0218726580149222017010100004+44883-093217FM-12+025599999V0202301N003619999999N016000199-00561-01061101001ADDAJ100033100030099GE19MSL   +99999+99999GF104991999999999999999999KA1120M-00281KA2120N-00671MA1999999097741MD1110051+9999REMSYN08672658 32966 42307 11056 21106 39774 40100 51005 92353 333 11028 21067 4/003 555 90100=
0255726580149222017010100537+44883-093229FM-15+0255KMSP V0301905N00315076205MN0160935N5-00615-01065100975ADDAA101000095GA1025+045725999GA2075+076205999GD11991+0457259GD23991+0762059GE19MSL   +99999+99999GF199999999999045721999999MA1100855097835REMMET10712/31/16 18:53:03 METAR KMSP 010053Z 19006KT 10SM FEW150 BKN250 M06/M11 A2978 RMK AO2 SLP097 T10611106 (NK)
0255726580149222017010101537+44883-093229FM-15+0255KMSP V0302105N00415045725MN0160935N5-00505-01005100945ADDAA101000095GA1025+036585999GA2085+045725999GD11991+0365859GD24991+0457259GE19MSL   +99999+99999GF199999999999036581999999MA1100815097805REMMET10712/31/16 19:53:03 METAR KMSP 010153Z 21008KT 10SM FEW120 OVC150 M05/M10 A2977 RMK AO2 SLP094 T10501100 (NK)
0275726580149222017010102537+44883-093229FM-15+0255KMSP V0302105N00465030485MN0160935N5-00395-00835100925ADDAA101000095GA1075+030485999GA2085+036585999GD13991+0304859GD24991+0365859GE19MSL   +99999+99999GF199999999999030481999999MA1100785097765MD1690089+9999REMMET11312/31/16 20:53:03 METAR KMSP 010253Z 21009KT 10SM BKN100 OVC120 M04/M08 A2976 RMK AO2 SLP092 T10391083 56008 (NK)
0217726580149222017010103537+44883-093229FM-15+0255KMSP V0302205N00575030485MN0160935N5-00335-00835100925ADDAA101000095GA1075+030485999GD13991+0304859GE19MSL   +99999+99999GF199999999999030481999999MA1100815097805REMMET10012/31/16 21:53:03 METAR KMSP 010353Z 22011KT 10SM BKN100 M03/M08 A2977 RMK AO2 SLP092 T10331083 (NK)
0217726580149222017010104537+44883-093229FM-15+0255KMSP V0302205N00465027435MN0160935N5-00335-00835100935ADDAA101000095GA1085+027435999GD14991+0274359GE19MSL   +99999+99999GF199999999999027431999999MA1100815097805REMMET10012/31/16 22:53:03 METAR KMSP 010453Z 22009KT 10SM OVC090 M03/M08 A2977 RMK AO2 SLP093 T10331083 (AP)
0311726580149222017010105537+44883-093229FM-15+0255KMSP V0302305N00365025915MN0160935N5-00335-00835100955ADDAA101000095GA1075+025915999GD13991+0259159GE19MSL   +99999+99999GF199999999999025911999999KA1060M-00331KA2060N-00611KA3240M-00061KA4240N-00671MA1100855097835MD1390049+9999REMMET12812/31/16 23:53:03 METAR KMSP 010553Z 23007KT 10SM BKN085 M03/M08 A2978 RMK AO2 SLP095 T10331083 11033 21061 410061067 53004 (AP)
0968726580149222017010105596+44883-093229SOD  +0255KMSP V030999999999999999999999999999+99999+99999999999ADDAA124000025AJ100039599999999AN1024000035KA1240M-00055KA2240N-00665KG1024W-0056D4KG2024D-0089D4MF1097664100784MG1097654100004OE11240125232099995OE22240102832099995OE33240054599999995RH1024X075D4RH2024N057D4RH3024M068D4REMSOD73924 HR PRECIPITATION (IN):    T SNOW DEPTH (IN):1     24 HR SNOWFALL (IN):T    24 HR MAX TEMP (F): 3124 HR MIN TEMP (F): 20AVERAGE STATION PRESSURE:28.835 MINIMUM SEA LEVEL PRESSURE:29.53 TIME OF OCCURRENCE:0100 PEAK WIND SPEED (MPH): 28 PEAK WIND DIR (DEG):320 PEAK WIND TIME (LST):      FASTEST 2MIN SPEED (MPH): 23FASTEST 2MIN DIR (DEG):320 FASTEST 2MIN TIME (LST):     AVERAGE WIND SPEED (MPH):12.2 24 HR AVG TEMP (F): 26DEPART FROM NORMAL: 10  HEATING DEGREE DAYS: 39 COOLING DEGREE DAYS:  0 LATEST DAY MAX TEMP (0700-1900 LST):26  LATEST NIGHT MIN TEMP(1900-0800 LST):22 HOURLY INCREMENTAL PRECIPITATION VALUES (IN):.00 0.00 0.00 T    T    T    0.00 0.00 0.00 0.00 0.00 0.00 0.00 0.00 0.00 0.00 0.00 0.00 0.00 0.00 0.00 0.00 0.00 0.00
1381726580149222017010105596+44883-093229SOM  +0255KMSP V030999999999999999999999999999+99999+99999999999ADDAB1005449AAD10024692526999999995AE1085065015005AH1005002092520575AH2010003092521005AH3015003092521005AH4020003392521075AH5030003892521195AH6045005392521075AI1060006192516005AI2080007192516085AI3100009192516005AI4120010492516085AI5150012492516085AI6180014592516085AK100239179999UAM101309111199999999UAN1744040195KB1744N-09565KB2744M-02785KB3744A-06175KC1N9-02881899995KC2M9+00612699995KD1744H13585KD2744C00005KE117U00U28U06UMH109868U10186UMK110366091053U09970260153UREMSOM869PCP MTOT:2.14 PCP GT 24HRS:0.97 DATE(S):25-26 DAYS W/PCP >=.01:8  DAYS W/PCP >=.10:6  DAYS W/ PCP >=.50:1 DAYS W/PCP >=1.00:0 MSDP AMTS W/DATE-TIME TAGS:MIN:5 0.08  25/2057 MIN:10 0.12  25/2100 MIN:15 0.12  25/2100 MIN:20 0.13  25/2107 MIN:30 0.15  25/2119 MIN:45 0.21  25/2107 MIN:60 0.24  25/1600 MIN:80 0.28  25/1608 MIN:100 0.36  25/1600 MIN:120 0.41  25/1608 MIN:150 0.49  25/1608 MIN:180 0.57  25/1608 SN GT DP ON GRND:8 DATE(S):18 SN GT IN 24HRS:5.1 DATE(S): 11SN MTOT:15.8 AVG DLY MIN:14.8  AVG DLY MAX:27.0  AVG MLY TMP:20.9  MIN TMP:-20DATE(S):18 MAX TMP:43  DATE(S):26 DAYS MAX <=32:1 DAYS MAX >=90:0  DAYS MIN <=32:28 DAYS MIN  <=0:6  AVG STP:29.140 LWST SLP:29.43 DATE/TIME:260146 HGST SLP:30.62 DATE/TIME:091018 HDD MTH TOT:1358 DEP NORM:-2553 SEASON(JUL 1-JUN 30):2402 DEP NORM:-25536 CDD MTH TOT:0 DEP NORM:-2553 SEASON(JAN 1-DEC 31):964 DEP NORM:-25536EQDR01  2.147ABP070R02     87AKS094
0195726580149222017010106004+44883-093217FM-12+025599999V0202301N003619999999N016000199-00331-00831100951ADDGE19MSL   +99999+99999GF106991999999999999999999KA1240M-00281KA2240N-00671MA1999999097711MD1310041+9999REMSYN08072658 32966 62307 11033 21083 39771 40095 53004 90553 333 11028 21067 555 90106=
0203726580149222017010106537+44883-093229FM-15+0255KMSP V0202405N005152200059N0160935N5-00285-00835100945ADDAA101000095GA1005+999999999GD10991+9999999GF100991999999999999999999MA1100815097805OC100825REMMET10001/01/17 00:53:02 METAR KMSP 010653Z 24010G16KT 10SM CLR M03/M08 A2977 RMK AO2 SLP094 T10281083 (AP)
0192726580149222017010107537+44883-093229FM-15+0255KMSP V0202405N004152200059N0160935N5-00335-00835101015ADDAA101000095GA1005+999999999GD10991+9999999GF100991999999999999999999MA1100885097865REMMET09701/01/17 01:53:02 METAR KMSP 010753Z 24008KT 10SM CLR M03/M08 A2979 RMK AO2 SLP101 T10331083 (AP)
0212726580149222017010108537+44883-093229FM-15+0255KMSP V0202405N004152200059N0160935N5-00335-00835101095ADDAA101000095GA1005+999999999GD10991+9999999GF100991999999999999999999MA1100985097965MD1390139+9999REMMET10301/01/17 02:53:02 METAR KMSP 010853Z 24008KT 10SM CLR M03/M08 A2982 RMK AO2 SLP109 T10331083 53013 (AP)
0192726580149222017010109537+44883-093229FM-15+0255KMSP V0202505N003652200059N0160935N5-00395-00835101165ADDAA101000095GA1005+999999999GD10991+9999999GF100991999999999999999999MA1101055098035REMMET09701/01/17 03:53:02 METAR KMSP 010953Z 25007KT 10SM CLR M04/M08 A2984 RMK AO2 SLP116 T10391083 (AP)
0192726580149222017010110537+44883-093229FM-15+0255KMSP V0202305N003652200059N0160935N5-00445-00895101235ADDAA101000095GA1005+999999999GD10991+9999999GF100991999999999999999999MA1101125098095REMMET09701/01/17 04:53:02 METAR KMSP 011053Z 23007KT 10SM CLR M04/M09 A2986 RMK AO2 SLP123 T10441089 (AP)
0273726580149222017010111537+44883-093229FM-15+0255KMSP V0202405N002652200059N0160935N5-00445-00895101315ADDAA101000095AJ100039500025099GA1005+999999999GD10991+9999999GF100991999999999999999999KA1060M-00281KA2060N-00501MA1101195098165MD1390219+9999REMMET12101/01/17 05:53:02 METAR KMSP 011153Z 24005KT 10SM CLR M04/M09 A2988 RMK AO2 SLP131 4/001 T10441089 11028 21050 53021 (AP)
0170726580149222017010112004+44883-093217FM-12+025599999V0202401N002619999999N016000199-00441-00891101311ADDAJ100033100030099KA1240M-00061KA2240N-00611MA1999999098041MD1310211+9999REMSYN08672658 32966 02405 11044 21089 39804 40131 53021 91153 333 11006 21061 4/003 555 90112=
0237726580149222017010112537+44883-093229FM-15+0255KMSP V0202605N002152200059N0160935N5-00505-00895101415ADDAA101000095GA1025+076205999GD11991+0762059GE19AGL   +99999+99999GF102995999999076201999999MA1101295098265REMMET10101/01/17 06:53:02 METAR KMSP 011253Z 26004KT 10SM FEW250 M05/M09 A2991 RMK AO2 SLP141 T10501089 (TAN)EQDD01      0ADE726
0237726580149222017010113537+44883-093229FM-15+0255KMSP V0202205N002652200059N0160935N5-00565-00895101555ADDAA101000095GA1025+007625999GD11991+0076259GE19AGL   +99999+99999GF102995999999007621999999MA1101425098395REMMET10101/01/17 07:53:02 METAR KMSP 011353Z 22005KT 10SM FEW025 M06/M09 A2995 RMK AO2 SLP155 T10561089 (TAN)EQDD01      0ADE726
0257726580149222017010114537+44883-093229FM-15+0255KMSP V0202405N002652200059N0160935N5-00565-00895101625ADDAA101000095GA1025+007625999GD11991+0076259GE19AGL   +99999+99999GF102995999999007621999999MA1101495098465MD1190319+9999REMMET10701/01/17 08:53:02 METAR KMSP 011453Z 24005KT 10SM FEW025 M06/M09 A2997 RMK AO2 SLP162 T10561089 51031 (TAN)EQDD01      0ADE726
0237726580149222017010115537+44883-093229FM-15+0255KMSP V0202905N002652200059N0160935N5-00335-00785101725ADDAA101000095GA1025+007625999GD11991+0076259GE19AGL   +99999+99999GF102995999999007621999999MA1101595098565REMMET10101/01/17 09:53:02 METAR KMSP 011553Z 29005KT 10SM FEW025 M03/M08 A3000 RMK AO2 SLP172 T10331078 (TAN)EQDD01      0ADE726
0237726580149222017010116537+44883-093229FM-15+0255KMSP V0203005N002652200059N0160935N5-00175-00785101795ADDAA101000095GA1025+007625999GD11991+0076259GE19AGL   +99999+99999GF102995999999007621999999MA1101695098665REMMET10101/01/17 10:53:02 METAR KMSP 011653Z 30005KT 10SM FEW025 M02/M08 A3003 RMK AO2 SLP179 T10171078 (TAN)EQDD01      0ADE726
0356726580149222017010117537+44883-093229FM-15+0255KMSP V0209999C000052200059N0160935N5-00115-00725101775ADDAA101000095AJ100039500025099GA1045+007625999GA2045+060965999GD12991+0076259GD22991+0609659GE19AGL   +99999+99999GF104995999999007621999999KA1060M-00061KA2060N-00611MA1101665098625MD1090179+9999REMMET13201/01/17 11:53:02 METAR KMSP 011753Z 00000KT 10SM SCT025 SCT200 M01/M07 A3002 RMK AO2 SLP177 4/001 T10111072 11006 21061 50017 (TAN)EQDD01      0ADE726
0234726580149222017010118004+44883-093217FM-12+025599999V0209999C000019999999N016000199-00111-00721101771ADDAJ100033100030099GA1999+008001999GE19MSL   +99999+99999GF104991999999008001999999KA1120M-00061KA2120N-00611MA1999999098501MD1990171+9999REMSYN08672658 32566 40000 11011 21072 39850 40177 50017 91753 333 11006 21061 4/003 555 90118=
0274726580149222017010118537+44883-093229FM-15+0255KMSP V0200405N003152200059N0160935N5+00005-00725101745ADDAA101000095GA1045+007925999GA2045+060965999GD12991+0079259GD22991+0609659GE19AGL   +99999+99999GF104995999999007921999999MA1101635098595REMMET10701/01/17 12:53:02 METAR KMSP 011853Z 04006KT 10SM SCT026 SCT200 00/M07 A3001 RMK AO2 SLP174 T00001072 (TAN)EQDD01      0ADE726
0256726580149222017010119537+44883-093229FM-15+0255KMSP V0209999C00005070105MN0160935N5-00115-00725101765ADDAA101000095GA1025+007925999GA2075+070105999GD11991+0079259GD23991+0701059GE19MSL   +99999+99999GF199999999999007921999999MA1101665098625REMMET10801/01/17 13:53:02 METAR KMSP 011953Z 00000KT 10SM FEW026 BKN230 M01/M07 A3002 RMK AO2 SLP176 T10111072 (TAN)
0276726580149222017010120537+44883-093229FM-15+0255KMSP V0200905N00315076205MN0160935N5-00065-00725101825ADDAA101000095GA1025+007925999GA2075+076205999GD11991+0079259GD23991+0762059GE19MSL   +99999+99999GF199999999999007921999999MA1101695098665MD1390049+9999REMMET11401/01/17 14:53:02 METAR KMSP 012053Z 09006KT 10SM FEW026 BKN250 M01/M07 A3003 RMK AO2 SLP182 T10061072 53004 (TAN)
0255726580149222017010121537+44883-093229FM-15+0255KMSP V0200705N00415064015MN0160935N5-00115-00725101875ADDAA101000095GA1025+007925999GA2075+064015999GD11991+0079259GD23991+0640159GE19MSL   +99999+99999GF199999999999007921999999MA1101765098725REMMET10701/01/17 15:53:02 METAR KMSP 012153Z 07008KT 10SM FEW026 BKN210 M01/M07 A3005 RMK AO2 SLP187 T10111072 (NK)
0255726580149222017010122537+44883-093229FM-15+0255KMSP V0200905N00315048775MN0160935N5-00175-00725101945ADDAA101000095GA1025+007625999GA2075+048775999GD11991+0076259GD23991+0487759GE19MSL   +99999+99999GF199999999999007621999999MA1101835098795REMMET10701/01/17 16:53:02 METAR KMSP 012253Z 09006KT 10SM FEW025 BKN160 M02/M07 A3007 RMK AO2 SLP194 T10171072 (NK)
0336726580149222017010123537+44883-093229FM-15+0255KMSP V0200805N00365051825MN0160935N5-00175-00725102015ADDAA101000095AJ100039500025099GA1045+036585999GA2075+051825999GD12991+0365859GD23991+0518259GE19MSL   +99999+99999GF199999999999036581999999KA1060M+00001KA2060N-00171MA1101905098855MD1390179+9999REMMET13101/01/17 17:53:02 METAR KMSP 012353Z 08007KT 10SM SCT120 BKN170 M02/M07 A3009 RMK AO2 SLP201 4/001 T10171072 10000 21017 53017 (NK)
0218726580149222017010200004+44883-093217FM-12+025599999V0200801N003619999999N016000199-00171-00721102011ADDAJ100033100030099GE19MSL   +99999+99999GF106991999999999999999999KA1120M+00001KA2120N-00501MA1999999098731MD1310171+9999REMSYN08672658 32966 60807 11017 21072 39873 40201 53017 92353 333 10000 21050 4/003 555 90200=
0250726580149222017010200537+44883-093229FM-15+0255KMSP V0200705N00365033535MN0160935N5-00225-00785102045ADDAA101000095GA1075+033535999GA2085+051825999GD13991+0335359GD24991+0518259GE19MSL   +99999+99999GF199999999999033531999999MA1101935098895REMMET10201/01/17 18:53:01 METAR KMSP 020053Z 07007KT 10SM BKN110 OVC170 M02/M08 A3010 RMK AO2 SLP204 T10221078
0250726580149222017010201537+44883-093229FM-15+0255KMSP V0200805N00365025915MN0160935N5-00225-00785102035ADDAA101000095GA1075+025915999GA2085+045725999GD13991+0259159GD24991+0457259GE19MSL   +99999+99999GF199999999999025911999999MA1101905098855REMMET10201/01/17 19:53:01 METAR KMSP 020153Z 08007KT 10SM BKN085 OVC150 M02/M08 A3009 RMK AO2 SLP203 T10221078
0232726580149222017010202537+44883-093229FM-15+0255KMSP V0200805N00415018295MN0160935N5-00225-00725102025ADDAA101000095GA1085+018295999GD14991+0182959GE19MSL   +99999+99999GF199999999999018291999999MA1101905098855MD1090019+9999REMMET10101/01/17 20:53:02 METAR KMSP 020253Z 08008KT 10SM OVC060 M02/M07 A3009 RMK AO2 SLP202 T10221072 50001
0250726580149222017010203537+44883-093229FM-15+0255KMSP V0200905N00365019815MN0160935N5-00225-00725102025ADDAA101000095GA1075+019815999GA2085+024385999GD13991+0198159GD24991+0243859GE19MSL   +99999+99999GF199999999999019811999999MA1101905098855REMMET10201/01/17 21:53:02 METAR KMSP 020353Z 09007KT 10SM BKN065 OVC080 M02/M07 A3009 RMK AO2 SLP202 T10221072
0212726580149222017010204537+44883-093229FM-15+0255KMSP V0201205N00465021345MN0160935N5-00225-00725102035ADDAA101000095GA1085+021345999GD14991+0213459GE19MSL   +99999+99999GF199999999999021341999999MA1101935098895REMMET09501/01/17 22:53:02 METAR KMSP 020453Z 12009KT 10SM OVC070 M02/M07 A3010 RMK AO2 SLP203 T10221072
0405726580149222017010205537+44883-093229FM-15+0255KMSP V0200905N00465027435MN0160935N5-00225-00725102045ADDAA101000095AJ100039500025099GA1025+016765999GA2045+022865999GA3085+027435999GD11991+0167659GD22991+0228659GD34991+0274359GE19MSL   +99999+99999GF199999999999016761999999KA1060M-00171KA2060N-00221KA3240M+00001KA4240N-00611MA1101935098895MD1390049+9999REMMET14301/01/17 23:53:02 METAR KMSP 020553Z 09009KT 10SM FEW055 SCT075 OVC090 M02/M07 A3010 RMK AO2 SLP204 4/001 T10221072 11017 21022 400001061 53004
0899726580149222017010205596+44883-093229SOD  +0255KMSP V020999999999999999999999999999+99999+99999999999ADDAA124000095AJ100039599999999AL12400095AN1024000095KA1240M+00005KA2240N-00605MG1098614100914OE11240102824099995OE22240071524099995OE33240032299999995REMSOD73924 HR PRECIPITATION (IN): 0.00 SNOW DEPTH (IN):1     24 HR SNOWFALL (IN):0.0  24 HR MAX TEMP (F): 3224 HR MIN TEMP (F): 21AVERAGE STATION PRESSURE:29.120 MINIMUM SEA LEVEL PRESSURE:29.80 TIME OF OCCURRENCE:0050 PEAK WIND SPEED (MPH): 23 PEAK WIND DIR (DEG):240 PEAK WIND TIME (LST):      FASTEST 2MIN SPEED (MPH): 16FASTEST 2MIN DIR (DEG):240 FASTEST 2MIN TIME (LST):     AVERAGE WIND SPEED (MPH): 7.2 24 HR AVG TEMP (F): 27DEPART FROM NORMAL: 11  HEATING DEGREE DAYS: 38 COOLING DEGREE DAYS:  0 LATEST DAY MAX TEMP (0700-1900 LST):32  LATEST NIGHT MIN TEMP(1900-0800 LST):22 HOURLY INCREMENTAL PRECIPITATION VALUES (IN):.00 0.00 0.00 0.00 0.00 0.00 0.00 0.00 0.00 0.00 0.00 0.00 0.00 0.00 0.00 0.00 0.00 0.00 0.00 0.00 0.00 0.00 0.00 0.00
0234726580149222017010206004+44883-093217FM-12+025599999V0200901N004619999999N016000199-00221-00721102041ADDAJ100033100030099GA1999+017501999GE19MSL   +99999+99999GF108991999999017501999999KA1240M-00171KA2240N-00501MA1999999098771MD1310041+9999REMSYN08672658 32766 80909 11022 21072 39877 40204 53004 90553 333 11017 21050 4/003 555 90206=
0217726580149222017010206537+44883-093229FM-15+0255KMSP V0200805N00365015245MN0160935N5-00225-00725102025ADDAA101000095GA1085+015245999GD14991+0152459GE19MSL   +99999+99999GF199999999999015241999999MA1101905098855REMMET10001/02/17 00:53:02 METAR KMSP 020653Z 08007KT 10SM OVC050 M02/M07 A3009 RMK AO2 SLP202 T10221072 (AP)
0249726580149222017010207537+44883-093229FM-15+0255KMSP V0200805N00315033535MN0144845N5-00225-00725101995ADDAA101000025AU110030015AW1715GA1075+033535999GD13991+0335359GE19MSL   +99999+99999GF199999999999033531999999MA1101865098825REMMET11501/02/17 01:53:02 METAR KMSP 020753Z 08006KT 9SM -SN BKN110 M02/M07 A3008 RMK AO2 SNB03 SLP199 P0000 T10221072 (AP)
0284726580149222017010208537+44883-093229FM-15+0255KMSP V0200705N00315033535MN0144845N5-00225-00675102045ADDAA101000025AA203000021GA1085+033535999GD14991+0335359GE19MSL   +99999+99999GF199999999999033531999999MA1101935098895MD1390009+9999REMMET12301/02/17 02:53:02 METAR KMSP 020853Z 07006KT 9SM OVC110 M02/M07 A3010 RMK AO2 SNE48 SLP204 P0000 60000 T10221067 53000 (AP)EQDQ01  00008PRCP03
0217726580149222017010209537+44883-093229FM-15+0255KMSP V0200805N00415033535MN0160935N5-00225-00675102025ADDAA101000095GA1085+033535999GD14991+0335359GE19MSL   +99999+99999GF199999999999033531999999MA1101935098895REMMET10001/02/17 03:53:02 METAR KMSP 020953Z 08008KT 10SM OVC110 M02/M07 A3010 RMK AO2 SLP202 T10221067 (AP)
0217726580149222017010210537+44883-093229FM-15+0255KMSP V0200905N00465027435MN0160935N5-00225-00675101985ADDAA101000095GA1085+027435999GD14991+0274359GE19MSL   +99999+99999GF199999999999027431999999MA1101865098825REMMET10001/02/17 04:53:02 METAR KMSP 021053Z 09009KT 10SM OVC090 M02/M07 A3008 RMK AO2 SLP198 T10221067 (AP)
0353726580149222017010211537+44883-093229FM-15+0255KMSP V0201005N00515025915MN0160935N5-00225-00675101945ADDAA101000095AA206000021AJ100039500025099GA1075+025915999GA2085+033535999GD13991+0259159GD24991+0335359GE19MSL   +99999+99999GF199999999999025911999999KA1060M-00171KA2060N-00221MA1101835098795MD1890109+9999REMMET13701/02/17 05:53:02 METAR KMSP 021153Z 10010KT 10SM BKN085 OVC110 M02/M07 A3007 RMK AO2 SLP194 4/001 60000 T10221067 11017 21022 58010 (AP)
0235726580149222017010212004+44883-093217FM-12+025599999V0201001N005119999999N016000199-00221-00671101941ADDAA106000021AJ100033100030099GE19MSL   +99999+99999GF108991999999999999999999KA1240M+00001KA2240N-00221MA1999999098671MD1810101+9999REMSYN09272658 12966 81010 11022 21067 39867 40194 58010 69901 91153 333 10000 21022 4/003 555 90212=
0217726580149222017010212537+44883-093229FM-15+0255KMSP V0200905N00625021345MN0160935N5-00175-00675101895ADDAA101000095GA1085+021345999GD14991+0213459GE19MSL   +99999+99999GF199999999999021341999999MA1101795098765REMMET10001/02/17 06:53:02 METAR KMSP 021253Z 09012KT 10SM OVC070 M02/M07 A3006 RMK AO2 SLP189 T10171067 (AP)
0256726580149222017010213537+44883-093229FM-15+0255KMSP V0201105N00675018295MN0160935N5-00115-00675101885ADDAA101000095GA1075+018295999GA2085+027435999GD13991+0182959GD24991+0274359GE19MSL   +99999+99999GF199999999999018291999999MA1101765098725REMMET10801/02/17 07:53:02 METAR KMSP 021353Z 11013KT 10SM BKN060 OVC090 M01/M07 A3005 RMK AO2 SLP188 T10111067 (IOL)
0276726580149222017010214537+44883-093229FM-15+0255KMSP V0201005N00575014945MN0160935N5-00115-00615101885ADDAA101000095GA1075+014945999GA2085+016765999GD13991+0149459GD24991+0167659GE19MSL   +99999+99999GF199999999999014941999999MA1101765098725MD1690069+9999REMMET11401/02/17 08:53:02 METAR KMSP 021453Z 10011KT 10SM BKN049 OVC055 M01/M06 A3005 RMK AO2 SLP188 T10111061 56006 (IOL)
0218726580149222017010215537+44883-093229FM-15+0255KMSP V0201105N00625013415MN0160935N5-00115-00615101905ADDAA101000095GA1085+013415999GD14991+0134159GE19MSL   +99999+99999GF199999999999013411999999MA1101795098765REMMET10101/02/17 09:53:02 METAR KMSP 021553Z 11012KT 10SM OVC044 M01/M06 A3006 RMK AO2 SLP190 T10111061 (IOL)
0256726580149222017010216537+44883-093229FM-15+0255KMSP V0201205N00675016765MN0160935N5-00065-00615101915ADDAA101000095GA1025+012805999GA2085+016765999GD11991+0128059GD24991+0167659GE19MSL   +99999+99999GF199999999999012801999999MA1101795098765REMMET10801/02/17 10:53:02 METAR KMSP 021653Z 12013KT 10SM FEW042 OVC055 M01/M06 A3006 RMK AO2 SLP191 T10061061 (IOL)
0367726580149222017010217537+44883-093229FM-15+0255KMSP V0201105N00575015245MN0128755N5-00065-00445101785ADDAA101000025AA206000021AJ100039500025099AU110030015AW1715GA1085+015245999GD14991+0152459GE19MSL   +99999+99999GF199999999999015241999999KA1060M-00061KA2060N-00221MA1101665098625MD1890099+9999REMMET14601/02/17 11:53:02 METAR KMSP 021753Z 11011KT 8SM -SN OVC050 M01/M04 A3002 RMK AO2 SNB17 SLP178 4/001 P0000 60000 T10061044 11006 21022 58009 (IOL)EQDQ01  00008PRCP06
0263726580149222017010218004+44883-093217FM-12+025599999V0201101N005719999999N012000199-00061-00441101781ADDAA106000021AJ100033100030099GA1999+017501999GE19MSL   +99999+99999GF108991999999017501999999KA1120M-00061KA2120N-00221MA1999999098501MD1810091+9999MW1711REMSYN09872658 11762 81111 11006 21044 39850 40178 58009 69901 771// 91753 333 11006 21022 4/003 555 90218=
0255726580149222017010218537+44883-093229FM-15+0255KMSP V0201105N00575014025MN0112655N5-00065-00395101665ADDAA101000025AU110030015AW1715GA1085+014025999GD14991+0140259GE19MSL   +99999+99999GF199999999999014021999999MA1101565098525REMMET12101/02/17 12:53:02 METAR KMSP 021853Z 11011KT 7SM -SN OVC046 M01/M04 A2999 RMK AO2 SLP166 SNE22SNB40 P0000 T10061039 (IOL)
0271726580149222017010219367+44883-093229FM-16+0255KMSP V0200805N00515010065MN0096565N5-00065-00395999999ADDAA101000021AU110030025AU220060035AW1715AW2745GA1075+010065999GA2085+013115999GD13991+0100659GD24991+0131159MA1101495098465REMMET11801/02/17 13:36:02 SPECI KMSP 021936Z 08010KT 6SM -SNPL BKN033 OVC043 M01/M04 A2997 RMK AO2 PLB35 P0000 T10061039 (IOL)EQDD01      0ADE735
0239726580149222017010219537+44883-093229FM-15+0255KMSP V0200905N00465010065MN0112655N5+00005-00395101585ADDAA101000025AU110030025AU220060035AW1715AW2745GA1085+010065999GD14991+0100659MA1101495098465REMMET11701/02/17 13:53:02 METAR KMSP 021953Z 09009KT 7SM -SNPL OVC033 00/M04 A2997 RMK AO2 PLB35 SLP158 P0000 T00001039 (IOL)EQDD01      0ADE735
0264726580149222017010220107+44883-093229FM-16+0255KMSP V0200905N00515004885MN0112655N5+00005-00395999999ADDAA101000021AU110030025AU220060035AW1715AW2745GA1075+004885999GA2085+010065999GD13991+0048859GD24991+0100659MA1101465098435REMMET11101/02/17 14:10:02 SPECI KMSP 022010Z 09010KT 7SM -SNPL BKN016 OVC033 00/M04 A2996 RMK AO2 P0000 T00001039 (IOL)EQDD01      0ADE735
0274726580149222017010220357+44883-093229FM-16+0255KMSP V0200705N00365004275MN0064375N5+00005-00335999999ADDAA101000021AU110010015AW1515GA1075+004275999GA2085+007925999GD13991+0042759GD24991+0079259GE19MSL   +99999+99999GF199999999999004271999999MA1101465098435REMMET10901/02/17 14:35:02 SPECI KMSP 022035Z 07007KT 4SM -DZ BKN014 OVC026 00/M03 A2996 RMK AO2 P0000 T00001033 (IOL)
0291726580149222017010220427+44883-093229FM-16+0255KMSP V0200905N00415004275MN0096565N5+00005-00335999999ADDAA101000021AU118010015AW1545GA1075+004275999GA2085+007925999GD13991+0042759GD24991+0079259GE19MSL   +99999+99999GF199999999999004271999999MA1101465098435WA1900099REMMET11701/02/17 14:42:02 SPECI KMSP 022042Z 09008KT 6SM -FZDZ BKN014 OVC026 00/M03 A2996 RMK AO2 P0000 I1000 T00001033 (IOL)
0360726580149222017010220537+44883-093229FM-15+0255KMSP V0200905N00415004275MN0096565N5+00005-00335101565ADDAA101000025AA203000021AU118010015AW1545GA1075+004275999GA2085+006715999GD13991+0042759GD24991+0067159GE19MSL   +99999+99999GF199999999999004271999999MA1101465098435MD1690219+9999WA1900099REMMET14201/02/17 14:53:02 METAR KMSP 022053Z 09008KT 6SM -FZDZ BKN014 OVC022 00/M03 A2996 RMK AO2 SLP156 P0000 60000 I1000 I3000 T00001033 56021 (IOL)EQDQ01  00008PRCP03
0291726580149222017010221087+44883-093229FM-16+0255KMSP V0201005N00465004885MN0048285N5+00005-00285999999ADDAA101000021AU118010015AW1545GA1075+004885999GA2085+007325999GD13991+0048859GD24991+0073259GE19MSL   +99999+99999GF199999999999004881999999MA1101495098465WA1900099REMMET11701/02/17 15:08:02 SPECI KMSP 022108Z 10009KT 3SM -FZDZ BKN016 OVC024 00/M03 A2997 RMK AO2 P0000 I1000 T00001028 (JDB)
0291726580149222017010221167+44883-093229FM-16+0255KMSP V0200805N00365004885MN0032195N5+00005-00285999999ADDAA101000021AU118010015AW1545GA1075+004885999GA2085+007325999GD13991+0048859GD24991+0073259GE19MSL   +99999+99999GF199999999999004881999999MA1101465098435WA1900099REMMET11701/02/17 15:16:02 SPECI KMSP 022116Z 08007KT 2SM -FZDZ BKN016 OVC024 00/M03 A2996 RMK AO2 P0000 I1000 T00001028 (JDB)
0295726580149222017010221217+44883-093229FM-16+0255KMSP V0200705N00365003965MN0028165N5+00005-00285999999ADDAA101000021AU118010015AW1545GA1075+003965999GA2085+005795999GD13991+0039659GD24991+0057959GE19MSL   +99999+99999GF199999999999003961999999MA1101465098435WA1900199REMMET12101/02/17 15:21:02 SPECI KMSP 022121Z 07007KT 1 3/4SM -FZDZ BKN013 OVC019 00/M03 A2996 RMK AO2 P0000 I1001 T00001028 (JDB)
0273726580149222017010221387+44883-093229FM-16+0255KMSP V0200805N00365003665MN0032195N5+00005-00225999999ADDAA101000021AU118010015AU200001015AW1105AW2545GA1085+003665999GD14991+0036659GE19MSL   +99999+99999GF199999999999003661999999MA1101465098435WA1900199REMMET11301/02/17 15:38:02 SPECI KMSP 022138Z 08007KT 2SM -FZDZ BR OVC012 00/M02 A2996 RMK AO2 P0000 I1001 T00001022 (JDB)
0284726580149222017010221537+44883-093229FM-15+0255KMSP V0200905N00415003665MN0040235N5+00005-00225101565ADDAA101000025AU118010015AU200001015AW1105AW2545GA1085+003665999GD14991+0036659GE19MSL   +99999+99999GF199999999999003661999999MA1101465098435WA1900199REMMET12401/02/17 15:53:02 METAR KMSP 022153Z 09008KT 2 1/2SM -FZDZ BR OVC012 00/M02 A2996 RMK AO2 SLP156 P0000 I1002 T00001022 (JDB)
0311726580149222017010222207+44883-093229FM-16+0255KMSP V0200805N00365002745MN0032195N5+00005-00225999999ADDAA101000021AU118010015AU200001015AW1105AW2545GA1075+002745999GA2085+004275999GD13991+0027459GD24991+0042759GE19MSL   +99999+99999GF199999999999002741999999MA1101465098435WA1900099REMMET12001/02/17 16:20:02 SPECI KMSP 022220Z 08007KT 2SM -FZDZ BR BKN009 OVC014 00/M02 A2996 RMK AO2 P0000 I1000 T00001022 (JDB)
0200726580149222017010222516+44883-093229FM-16+0255KMSP V0200805N00365002445MN0048285N5+00005-00205999999ADDAU118010015AU200001015AW1105AW2545GA1085+002445999GD14991+0024459MA1101425098395REMMET10801/02/17 16:51:02 SPECI KMSP 022251Z 08007KT 3SM -FZDZ BR OVC008 00/M02 A2995 RMK AO2 P0000 I1001 FIBI (JDB)
0280726580149222017010222537+44883-093229FM-15+0255KMSP V0200805N00415002445MN0048285N5+00005-00225101535ADDAA101000025AU118010015AU200001015AW1105AW2545GA1085+002445999GD14991+0024459GE19MSL   +99999+99999GF199999999999002441999999MA1101425098395WA1900199REMMET12001/02/17 16:53:02 METAR KMSP 022253Z 08008KT 3SM -FZDZ BR OVC008 00/M02 A2995 RMK AO2 SLP153 P0000 I1001 T00001022 (JDB)
0258726580149222017010223277+44883-093229FM-16+0255KMSP V0200905N00315002135MN0064375N5+00005-00175999999ADDAA101000021AU100001015AW1105GA1085+002135999GD14991+0021359GE19MSL   +99999+99999GF199999999999002131999999MA1101425098395WA1900099REMMET11501/02/17 17:27:02 SPECI KMSP 022327Z 09006KT 4SM BR OVC007 00/M02 A2995 RMK AO2 FZDZE27 P0000 I1000 T00001017 (JDB)
0274726580149222017010223477+44883-093229FM-16+0255KMSP V0200505N00215002135MN0048285N5+00005-00205999999ADDAA101000021AU118010015AU200001015AW1105AW2545GA1085+002135999GD14991+0021359GE19MSL   +99999+99999GF199999999999002131999999MA1101465098435WA1900099REMMET11401/02/17 17:47:02 SPECI KMSP 022347Z 05004KT 3SM -FZDZ BR OVC007 00/M02 A2996 RMK AO2 FZDZE27B46 P0000 I1000 (JDB)
0215726580149222017010223516+44883-093229FM-16+0255KMSP V0200505N00265002135MN0040235N5+00005-00205999999ADDAU118010015AU200001015AW1105AW2545GA1085+002135999GD14991+0021359MA1101465098435REMMET12301/02/17 17:51:02 SPECI KMSP 022351Z 05005KT 2 1/2SM -FZDZ BR OVC007 00/M02 A2996 RMK AO2 FZDZE27B46 P0000 I1000 FIBI (JDB)
0414726580149222017010223537+44883-093229FM-15+0255KMSP V0200605N00215002135MN0048285N5+00005-00175101555ADDAA101000025AA206000021AJ100039500025099AU118010015AU200001015AW1105AW2545GA1085+002135999GD14991+0021359GE19MSL   +99999+99999GF199999999999002131999999KA1060M+00001KA2060N-00111MA1101465098435MD1590019+9999WA1900199REMMET16701/02/17 17:53:02 METAR KMSP 022353Z 06004KT 3SM -FZDZ BR OVC007 00/M02 A2996 RMK AO2 FZDZE27B46 SLP155 4/001 P0000 60000 I1000 I6003 T00001017 10000 21011 55001 (JDB)EQDQ01  00008PRCP06
0269726580149222017010300004+44883-093217FM-12+025599999V0200601N002119999999N004800199+00001-00171101551ADDAA106000021AJ100033100030099GA1999+002501999GE19MSL   +99999+99999GF108991999999002501999999KA1120M+00001KA2120N-00221MA1999999098311MD1510011+9999MW1101REMSYN10472658 11348 80604 10000 21017 39831 40155 55001 69901 710// 92353 333 10000 21022 4/003 96010 555 90300=
0271726580149222017010300137+44883-093229FM-16+0255KMSP V0200305N00315001835MN0040235N5+00005-00175999999ADDAA101000021AU118010015AU200001015AW1105AW2545GA1085+001835999GD14991+0018359GE19MSL   +99999+99999GF199999999999001831999999MA1101465098435WA1900099REMMET11101/02/17 18:13:01 SPECI KMSP 030013Z 03006KT 2 1/2SM -FZDZ BR OVC006 00/M02 A2996 RMK AO2 P0000 I1000 T00001017
0267726580149222017010300307+44883-093229FM-16+0255KMSP V0200305N00315001835MN0048285N5+00005-00175999999ADDAA101000021AU118010015AU200001015AW1105AW2545GA1085+001835999GD14991+0018359GE19MSL   +99999+99999GF199999999999001831999999MA1101465098435WA1900099REMMET10701/02/17 18:30:01 SPECI KMSP 030030Z 03006KT 3SM -FZDZ BR OVC006 00/M02 A2996 RMK AO2 P0000 I1000 T00001017
0274726580149222017010300537+44883-093229FM-15+0255KMSP V0200405N00315002135MN0048285N5+00005-00175101585ADDAA101000025AU118010015AU200001015AW1105AW2545GA1085+002135999GD14991+0021359GE19MSL   +99999+99999GF199999999999002131999999MA1101495098465WA1900099REMMET11401/02/17 18:53:01 METAR KMSP 030053Z 04006KT 3SM -FZDZ BR OVC007 00/M02 A2997 RMK AO2 SLP158 P0000 I1000 T00001017
0271726580149222017010301027+44883-093229FM-16+0255KMSP V0200505N00265002135MN0040235N5+00005-00175999999ADDAA101000021AU118010015AU200001015AW1105AW2545GA1085+002135999GD14991+0021359GE19MSL   +99999+99999GF199999999999002131999999MA1101495098465WA1900099REMMET11101/02/17 19:02:01 SPECI KMSP 030102Z 05005KT 2 1/2SM -FZDZ BR OVC007 00/M02 A2997 RMK AO2 P0000 I1000 T00001017
0271726580149222017010301177+44883-093229FM-16+0255KMSP V0200405N00315002135MN0024145N5+00005-00175999999ADDAA101000021AU118010015AU200001015AW1105AW2545GA1085+002135999GD14991+0021359GE19MSL   +99999+99999GF199999999999002131999999MA1101465098435WA1900199REMMET11101/02/17 19:17:01 SPECI KMSP 030117Z 04006KT 1 1/2SM -FZDZ BR OVC007 00/M02 A2996 RMK AO2 P0000 I1001 T00001017
0299726580149222017010301517+44883-093229FM-16+0255KMSP V0200505N00265001225MN0028165N5+00005-00105999999ADDAA101000021AU118010015AU200001015AW1105AW2545GA1075+001225999GA2085+002745999GD13991+0012259GD24991+0027459GE19MSL   +99999+99999GF199999999999001221999999MA1101425098395WA1900199REMMET10801/02/17 19:51:01 SPECI KMSP 030151Z 05005KT 1 3/4SM -FZDZ BR BKN004 OVC009 00/M01 A2995 RMK AO2 P0000 I1002
0316726580149222017010301537+44883-093229FM-15+0255KMSP V0200505N00265001225MN0028165N5+00005-00115101535ADDAA101000025AU118010015AU200001015AW1105AW2545GA1075+001225999GA2085+002745999GD13991+0012259GD24991+0027459GE19MSL   +99999+99999GF199999999999001221999999MA1101425098395WA1900199REMMET12501/02/17 19:53:01 METAR KMSP 030153Z 05005KT 1 3/4SM -FZDZ BR BKN004 OVC009 00/M01 A2995 RMK AO2 SLP153 P0000 I1002 T00001011
0271726580149222017010302237+44883-093229FM-16+0255KMSP V0200705N00365001525MN0028165N5+00005-00175999999ADDAA101000231AU118010015AU200001015AW1105AW2545GA1085+001525999GD14991+0015259GE19MSL   +99999+99999GF199999999999001521999999MA1101395098365WA1900199REMMET11101/02/17 20:23:01 SPECI KMSP 030223Z 07007KT 1 3/4SM -FZDZ BR OVC005 00/M02 A2994 RMK AO2 P0001 I1002 T00001017
0267726580149222017010302387+44883-093229FM-16+0255KMSP V0200905N00415001525MN0032195N5+00005-00115999999ADDAA101000231AU118010015AU200001015AW1105AW2545GA1085+001525999GD14991+0015259GE19MSL   +99999+99999GF199999999999001521999999MA1101395098365WA1900199REMMET10701/02/17 20:38:01 SPECI KMSP 030238Z 09008KT 2SM -FZDZ BR OVC005 00/M01 A2994 RMK AO2 P0001 I1003 T00001011
0336726580149222017010302537+44883-093229FM-15+0255KMSP V0200805N00415001835MN0032195N5+00005-00175101455ADDAA101000395AA203000391AU118010015AU200001015AW1105AW2545GA1085+001835999GD14991+0018359GE19MSL   +99999+99999GF199999999999001831999999MA1101355098335MD1890129+9999WA1900299REMMET13201/02/17 20:53:02 METAR KMSP 030253Z 08008KT 2SM -FZDZ BR OVC006 00/M02 A2993 RMK AO2 SLP145 P0001 60001 I1003 I3005 T00001017 58012EQDQ01  00028PRCP03
0278726580149222017010303537+44883-093229FM-15+0255KMSP V0200605N00155001835MN0040235N5+00005-00115101475ADDAA101000025AU118010015AU200001015AW1105AW2545GA1085+001835999GD14991+0018359GE19MSL   +99999+99999GF199999999999001831999999MA1101355098335WA1900099REMMET11801/02/17 21:53:02 METAR KMSP 030353Z 06003KT 2 1/2SM -FZDZ BR OVC006 00/M01 A2993 RMK AO2 SLP147 P0000 I1000 T00001011
0267726580149222017010304447+44883-093229FM-16+0255KMSP V0200405N00155001835MN0048285N5+00005-00115999999ADDAA101000021AU118010015AU200001015AW1105AW2545GA1085+001835999GD14991+0018359GE19MSL   +99999+99999GF199999999999001831999999MA1101355098335WA1900199REMMET10701/02/17 22:44:02 SPECI KMSP 030444Z 04003KT 3SM -FZDZ BR OVC006 00/M01 A2993 RMK AO2 P0000 I1001 T00001011
0274726580149222017010304537+44883-093229FM-15+0255KMSP V0209999C00005001835MN0048285N5+00005-00115101465ADDAA101000395AU118010015AU200001015AW1105AW2545GA1085+001835999GD14991+0018359GE19MSL   +99999+99999GF199999999999001831999999MA1101355098335WA1900199REMMET11401/02/17 22:53:02 METAR KMSP 030453Z 00000KT 3SM -FZDZ BR OVC006 00/M01 A2993 RMK AO2 SLP146 P0000 I1001 T00001011
0271726580149222017010305297+44883-093229FM-16+0255KMSP V0209999C00005001835MN0040235N5+00005-00065999999ADDAA101000231AU118010015AU200001015AW1105AW2545GA1085+001835999GD14991+0018359GE19MSL   +99999+99999GF199999999999001831999999MA1101395098365WA1900099REMMET11101/02/17 23:29:02 SPECI KMSP 030529Z 00000KT 2 1/2SM -FZDZ BR OVC006 00/M01 A2994 RMK AO2 P0001 I1000 T00001006
0205726580149222017010305516+44883-093229FM-16+0255KMSP V0209999C00005001835MN0048285N5+00005-00105999999ADDAU118010015AU200001015AW1105AW2545GA1085+001835999GD14991+0018359MA1101355098335REMMET11301/02/17 23:51:03 SPECI KMSP 030551Z 00000KT 3SM -FZDZ BR OVC006 00/M01 A2993 RMK AO2 4/001 P0001 I1000 FIBI (AP)
0433726580149222017010305537+44883-093229FM-15+0255KMSP V0209999C00005001835MN0048285N5+00005-00115101445ADDAA101000025AA206000591AJ100039500025099AU118010015AU200001015AW1105AW2545GA1085+001835999GD14991+0018359GE19MSL   +99999+99999GF199999999999001831999999KA1060M+00061KA2060N+00001KA3240M+00061KA4240N-00221MA1101355098335MD1690039+9999WA1900299REMMET16001/02/17 23:53:02 METAR KMSP 030553Z 00000KT 3SM -FZDZ BR OVC006 00/M01 A2993 RMK AO2 SLP144 4/001 P0001 60002 I1000 I6006 T00001011 10006 20000 400061022 56003EQDQ01  00058PRCP06
1080726580149222017010305596+44883-093229SOD  +0255KMSP V020999999999999999999999999999+99999+99999999999ADDAA124000595AJ100039599999999AL12400035AN1024000035AT1AU14DZ  5AT2AU15FZDZ5AT3AU18SN  5AT4AU04PL  5AT5AU13BR  5AX1016246AX2046246AX3066246KA1240M+00065KA2240N-00215MG1098534101424OE11240098311099995OE22240080512099995OE33240040299999995REMSOD78224 HR PRECIPITATION (IN): 0.02 SNOW DEPTH (IN):1     24 HR SNOWFALL (IN):T    WEATHER(CODE):146  24 HR MAX TEMP (F): 3324 HR MIN TEMP (F): 28AVERAGE STATION PRESSURE:29.095 MINIMUM SEA LEVEL PRESSURE:29.95 TIME OF OCCURRENCE:2352 PEAK WIND SPEED (MPH): 22 PEAK WIND DIR (DEG):110 PEAK WIND TIME (LST):      FASTEST 2MIN SPEED (MPH): 18FASTEST 2MIN DIR (DEG):120 FASTEST 2MIN TIME (LST):     AVERAGE WIND SPEED (MPH): 9.0 24 HR AVG TEMP (F): 31DEPART FROM NORMAL: 15  SKY COVER SR-SS (TENTHS): 1HEATING DEGREE DAYS: 34 COOLING DEGREE DAYS:  0 LATEST DAY MAX TEMP (0700-1900 LST):32  LATEST NIGHT MIN TEMP(1900-0800 LST):28 HOURLY INCREMENTAL PRECIPITATION VALUES (IN):.00 T    T    0.00 0.00 0.00 0.00 0.00 0.00 0.00 0.00 T    T    T    T    T    T    T    T    T    0.01 T    0.01 TEQDR01   1467AXW093R02   1467AXW093R03   1467AXW093
0269726580149222017010306004+44883-093217FM-12+025599999V0209999C000019999999N004800199+00001-00111101441ADDAA106000531AJ100033100030099GA1999+001501999GE19MSL   +99999+99999GF108991999999001501999999KA1240M+00061KA2240N-00211MA1999999098211MD1610031+9999MW1101REMSYN10472658 11248 80000 10000 21011 39821 40144 56003 69951 710// 90553 333 10006 21021 4/003 96010 555 90306=
0276726580149222017010306197+44883-093229FM-16+0255KMSP V0209999C00005001835MN0040235N5+00005-00115999999ADDAA101000021AU118010015AU200001015AW1105AW2545GA1085+001835999GD14991+0018359GE19MSL   +99999+99999GF199999999999001831999999MA1101355098335WA1900099REMMET11601/03/17 00:19:02 SPECI KMSP 030619Z 00000KT 2 1/2SM -FZDZ BR OVC006 00/M01 A2993 RMK AO2 P0000 I1000 T00001011 (AP)
0272726580149222017010306267+44883-093229FM-16+0255KMSP V0209999C00005001835MN0048285N5+00005-00115999999ADDAA101000021AU118010015AU200001015AW1105AW2545GA1085+001835999GD14991+0018359GE19MSL   +99999+99999GF199999999999001831999999MA1101325098295WA1900099REMMET11201/03/17 00:26:02 SPECI KMSP 030626Z 00000KT 3SM -FZDZ BR OVC006 00/M01 A2992 RMK AO2 P0000 I1000 T00001011 (AP)
0276726580149222017010306357+44883-093229FM-16+0255KMSP V0209999C00005001835MN0040235N5+00005-00065999999ADDAA101000021AU118010015AU200001015AW1105AW2545GA1085+001835999GD14991+0018359GE19MSL   +99999+99999GF199999999999001831999999MA1101355098335WA1900099REMMET11601/03/17 00:35:02 SPECI KMSP 030635Z 00000KT 2 1/2SM -FZDZ BR OVC006 00/M01 A2993 RMK AO2 P0000 I1000 T00001006 (AP)
0283726580149222017010306537+44883-093229FM-15+0255KMSP V0209999C00005001835MN0040235N5+00005-00115101465ADDAA101000025AU118010015AU200001015AW1105AW2545GA1085+001835999GD14991+0018359GE19MSL   +99999+99999GF199999999999001831999999MA1101355098335WA1900099REMMET12301/03/17 00:53:02 METAR KMSP 030653Z 00000KT 2 1/2SM -FZDZ BR OVC006 00/M01 A2993 RMK AO2 SLP146 P0000 I1000 T00001011 (AP)
0264726580149222017010307537+44883-093229FM-15+0255KMSP V0202905N00215001525MN0048285N5+00005-00115101515ADDAA101000025AU100001015AW1105GA1085+001525999GD14991+0015259GE19MSL   +99999+99999GF199999999999001521999999MA1101425098395WA1900099REMMET12101/03/17 01:53:02 METAR KMSP 030753Z 29004KT 3SM BR OVC005 00/M01 A2995 RMK AO2 FZDZE53 SLP151 P0000 I1000 T00001011 (AP)
0221726580149222017010308027+44883-093229FM-16+0255KMSP V0203005N00155001525MN0040235N5+00005-00115999999ADDAU100001015AW1105GA1085+001525999GD14991+0015259GE19MSL   +99999+99999GF199999999999001521999999MA1101395098365REMMET09801/03/17 02:02:02 SPECI KMSP 030802Z 30003KT 2 1/2SM BR OVC005 00/M01 A2994 RMK AO2 T00001011 (AP)
0217726580149222017010308207+44883-093229FM-16+0255KMSP V0203005N00215001225MN0032195N5+00005-00115999999ADDAU100001015AW1105GA1085+001225999GD14991+0012259GE19MSL   +99999+99999GF199999999999001221999999MA1101395098365REMMET09401/03/17 02:20:02 SPECI KMSP 030820Z 30004KT 2SM BR OVC004 00/M01 A2994 RMK AO2 T00001011 (AP)
0221726580149222017010308437+44883-093229FM-16+0255KMSP V0203005N00155000915MN0028165N5+00005-00115999999ADDAU100001015AW1105GA1085+000915999GD14991+0009159GE19MSL   +99999+99999GF199999999999000911999999MA1101325098295REMMET09801/03/17 02:43:02 SPECI KMSP 030843Z 30003KT 1 3/4SM BR OVC003 00/M01 A2992 RMK AO2 T00001011 (AP)
0291726580149222017010308537+44883-093229FM-15+0255KMSP V0209999C00005000915MN0028165N5+00005-00065101435ADDAA101000095AA203000021AU100001015AW1105GA1085+000915999GD14991+0009159GE19MSL   +99999+99999GF199999999999000911999999MA1101325098295MD1890019+9999WA1900099REMMET12301/03/17 02:53:02 METAR KMSP 030853Z 00000KT 1 3/4SM BR OVC003 00/M01 A2992 RMK AO2 SLP143 60000 I3000 T00001006 58001 (AP)
0217726580149222017010309067+44883-093229FM-16+0255KMSP V0202805N00365000915MN0032195N5+00005-00115999999ADDAU100001015AW1105GA1085+000915999GD14991+0009159GE19MSL   +99999+99999GF199999999999000911999999MA1101355098335REMMET09401/03/17 03:06:02 SPECI KMSP 030906Z 28007KT 2SM BR OVC003 00/M01 A2993 RMK AO2 T00001011 (AP)
0217726580149222017010309227+44883-093229FM-16+0255KMSP V0202905N00215001225MN0048285N5+00005-00115999999ADDAU100001015AW1105GA1085+001225999GD14991+0012259GE19MSL   +99999+99999GF199999999999001221999999MA1101325098295REMMET09401/03/17 03:22:02 SPECI KMSP 030922Z 29004KT 3SM BR OVC004 00/M01 A2992 RMK AO2 T00001011 (AP)
0217726580149222017010309397+44883-093229FM-16+0255KMSP V0202905N00465002135MN0064375N5+00005-00175999999ADDAU100001015AW1105GA1085+002135999GD14991+0021359GE19MSL   +99999+99999GF199999999999002131999999MA1101325098295REMMET09401/03/17 03:39:02 SPECI KMSP 030939Z 29009KT 4SM BR OVC007 00/M02 A2992 RMK AO2 T00001017 (AP)
0235726580149222017010309537+44883-093229FM-15+0255KMSP V0202905N00515002135MN0080475N5+00005-00175101445ADDAA101000095AU100001015AW1105GA1085+002135999GD14991+0021359GE19MSL   +99999+99999GF199999999999002131999999MA1101355098335REMMET10101/03/17 03:53:02 METAR KMSP 030953Z 29010KT 5SM BR OVC007 00/M02 A2993 RMK AO2 SLP144 T00001017 (AP)
0216726580149222017010310537+44883-093229FM-15+0255KMSP V0202905N00575002745MN0112655N5-00065-00225101415ADDAA101000095GA1085+002745999GD14991+0027459GE19MSL   +99999+99999GF199999999999002741999999MA1101325098295REMMET09901/03/17 04:53:02 METAR KMSP 031053Z 29011KT 7SM OVC009 M01/M02 A2992 RMK AO2 SLP141 T10061022 (AP)
0198726580149222017010311097+44883-093229FM-16+0255KMSP V0202905N00515003355MN0128755N5-00065-00285999999ADDGA1085+003355999GD14991+0033559GE19MSL   +99999+99999GF199999999999003351999999MA1101355098335REMMET09201/03/17 05:09:02 SPECI KMSP 031109Z 29010KT 8SM OVC011 M01/M03 A2993 RMK AO2 T10061028 (AP)
0452726580149222017010311537+44883-093229FM-15+0255KMSP V0203005N00575004275MN0128755N5-00175-00445101505ADDAA101000095AA206000021AA324000591AJ100039500025099GA1075+004275999GA2075+005795999GA3085+007625999GD13991+0042759GD23991+0057959GD34991+0076259GE19MSL   +99999+99999GF199999999999004271999999KA1060M+00001KA2060N-00171MA1101395098365MD1390079+9999OC101085WA1900099REMMET15801/03/17 05:53:02 METAR KMSP 031153Z 30011G21KT 8SM BKN014 BKN019 OVC025 M02/M04 A2994 RMK AO2 SLP150 4/001 60000 70002 I6000 T10171044 10000 21017 53007 (AP)EQDQ01  00058PRCP24
0288726580149222017010312004+44883-093217FM-12+025599999V0203001N005719999999N012000199-00171-00441101501ADDAA106000021AA224000531AJ100033100030099GA1999+004501999GE19MSL   +99999+99999GF108991999999004501999999KA1240M+00061KA2240N-00171MA1999999098241MD1310071+9999OD149901081999REMSYN10472658 12462 83011 11017 21044 39824 40150 53007 69901 91153 333 10006 21017 4/003 70005 91021 555 90312=
0247726580149222017010312197+44883-093229FM-16+0255KMSP V0203005N00675007625MN0144845N5-00225-00565999999ADDGA1025+003965999GA2085+007625999GD11991+0039659GD24991+0076259GE19MSL   +99999+99999GF199999999999003961999999MA1101425098395OC101035REMMET10201/03/17 06:19:02 SPECI KMSP 031219Z 30013G20KT 9SM FEW013 OVC025 M02/M06 A2995 RMK AO2 T10221056 (AP)
0255726580149222017010312537+44883-093229FM-15+0255KMSP V0203105N00885007015MN0160935N5-00335-00615101625ADDAA101000095GA1045+004575999GA2085+007015999GD12991+0045759GD24991+0070159GE19MSL   +99999+99999GF199999999999004571999999MA1101525098495REMMET10701/03/17 06:53:02 METAR KMSP 031253Z 31017KT 10SM SCT015 OVC023 M03/M06 A2998 RMK AO2 SLP162 T10331061 (AP)
0238726580149222017010313017+44883-093229FM-16+0255KMSP V0203005N00985003965MN0160935N5-00395-00675999999ADDGA1075+003965999GA2085+007015999GD13991+0039659GD24991+0070159GE19MSL   +99999+99999GF199999999999003961999999MA1101525098495REMMET10101/03/17 07:01:02 SPECI KMSP 031301Z 30019KT 10SM BKN013 OVC023 M04/M07 A2998 RMK AO2 T10391067 (CLB)
0247726580149222017010313537+44883-093229FM-15+0255KMSP V0203005N00725003355MN0160935N5-00675-00895101705ADDAA101000095GA1085+003355999GD14991+0033559GE19MSL   +99999+99999GF199999999999003351999999MA1101595098565OC101245REMMET12201/03/17 07:53:02 METAR KMSP 031353Z 30014G24KT 10SM OVC011 M07/M09 A3000 RMK AO2 PK WND 30026/1343 SLP170 T10671089 (CLB)
0267726580149222017010314537+44883-093229FM-15+0255KMSP V0203005N00985003965MN0160935N5-00835-01175101745ADDAA101000095GA1085+003965999GD14991+0039659GE19MSL   +99999+99999GF199999999999003961999999MA1101635098595MD1190219+9999OC101345REMMET12801/03/17 08:53:02 METAR KMSP 031453Z 30019G26KT 10SM OVC013 M08/M12 A3001 RMK AO2 PK WND 28026/1450 SLP174 T10831117 51021 (CLB)
0287726580149222017010315207+44883-093229FM-16+0255KMSP V0202905N00935076205MN0160935N5-00945-01285999999ADDGA1045+004575999GA2045+054865999GA3075+076205999GD12991+0045759GD22991+0548659GD33991+0762059GE19MSL   +99999+99999GF199999999999004571999999MA1101665098625OC101295REMMET11101/03/17 09:20:02 SPECI KMSP 031520Z 29018G25KT 10SM SCT015 SCT180 BKN250 M09/M13 A3002 RMK AO2 T10941128 (CLB)
0356726580149222017010315537+44883-093229FM-15+0255KMSP V0203105N011852200059N0160935N5-01005-01395101915ADDAA101000095GA1045+005185999GA2045+054865999GA3045+076205999GD12991+0051859GD22991+0548659GD32991+0762059GE19AGL   +99999+99999GF104995999999005181999999MA1101795098765OC101445OD149901441320REMMET13601/03/17 09:53:02 METAR KMSP 031553Z 31023G28KT 10SM SCT017 SCT180 SCT250 M10/M14 A3006 RMK AO2 PK WND 32028/1553 SLP191 T11001139 (CLB)EQDD01      0ADE726
0318726580149222017010316537+44883-093229FM-15+0255KMSP V0203105N009852200059N0160935N5-01065-01505101975ADDAA101000095GA1025+005495999GA2045+076205999GD11991+0054959GD22991+0762059GE19AGL   +99999+99999GF104995999999005491999999MA1101835098795OC101345OD149901391310REMMET12901/03/17 10:53:02 METAR KMSP 031653Z 31019G26KT 10SM FEW018 SCT250 M11/M15 A3007 RMK AO2 PK WND 31027/1554 SLP197 T11061150 (CLB)EQDD01      0ADE726
0418726580149222017010317537+44883-093229FM-15+0255KMSP V0203105N00935076205MN0160935N5-01065-01445101955ADDAA101000095AJ100039500025099GA1025+005795999GA2025+051825999GA3075+076205999GD11991+0057959GD21991+0518259GD33991+0762059GE19MSL   +99999+99999GF199999999999005791999999KA1060M-00171KA2060N-01111MA1101835098795MD1090209+9999OC101245OD149901391300REMMET16001/03/17 11:53:02 METAR KMSP 031753Z 31018G24KT 10SM FEW019 FEW170 BKN250 M11/M14 A3007 RMK AO2 PK WND 30027/1724 SLP195 4/001 T11061144 11017 21111 50020 (CLB)
0254726580149222017010318004+44883-093217FM-12+025599999V0203101N009319999999N016000199-01061-01441101951ADDAJ100033100030099GA1999+004501999GE19MSL   +99999+99999GF106991999999004501999999KA1120M+00001KA2120N-01111MA1999999098671MD1990201+9999OD149901241999REMSYN09272658 32466 63118 11106 21144 39867 40195 50020 91753 333 10000 21111 4/003 91024 555 90318=
0356726580149222017010318537+44883-093229FM-15+0255KMSP V0203105N010352200059N0160935N5-01115-01565101895ADDAA101000095GA1025+006105999GA2025+051825999GA3045+076205999GD11991+0061059GD21991+0518259GD32991+0762059GE19AGL   +99999+99999GF104995999999006101999999MA1101765098725OC101345OD149901331310REMMET13601/03/17 12:53:02 METAR KMSP 031853Z 31020G26KT 10SM FEW020 FEW170 SCT250 M11/M16 A3005 RMK AO2 PK WND 31026/1853 SLP189 T11111156 (CLB)EQDD01      0ADE726
0294726580149222017010319537+44883-093229FM-15+0255KMSP V0203105N00775076205MN0160935N5-01175-01675101905ADDAA101000095GA1025+007015999GA2045+051825999GA3075+076205999GD11991+0070159GD22991+0518259GD33991+0762059GE19MSL   +99999+99999GF199999999999007011999999MA1101765098725REMMET11501/03/17 13:53:02 METAR KMSP 031953Z 31015KT 10SM FEW023 SCT170 BKN250 M12/M17 A3005 RMK AO2 SLP190 T11171167 (CLB)
0376726580149222017010320537+44883-093229FM-15+0255KMSP V0203005N010852200059N0160935N5-01175-01725101955ADDAA101000095GA1025+007325999GA2025+054865999GA3045+076205999GD11991+0073259GD21991+0548659GD32991+0762059GE19AGL   +99999+99999GF104995999999007321999999MA1101795098765MD1590019+9999OC101295OD149901331300REMMET14201/03/17 14:53:02 METAR KMSP 032053Z 30021G25KT 10SM FEW024 FEW180 SCT250 M12/M17 A3006 RMK AO2 PK WND 30026/2013 SLP195 T11171172 55001 (CLB)EQDD01      0ADE726
0318726580149222017010321537+44883-093229FM-15+0255KMSP V0202905N007252200059N0160935N5-01175-01725101995ADDAA101000095GA1025+007325999GA2025+076205999GD11991+0073259GD21991+0762059GE19MSL   +99999+99999GF102995999999007321999999MA1101865098825OC101245OD149901441300REMMET12901/03/17 15:53:02 METAR KMSP 032153Z 29014G24KT 10SM FEW024 FEW250 M12/M17 A3008 RMK AO2 PK WND 30028/2115 SLP199 T11171172 (JDB)EQDD01      0ADE726
0318726580149222017010322537+44883-093229FM-15+0255KMSP V0202905N009352200059N0160935N5-01335-01835102095ADDAA101000095GA1025+007325999GA2025+076205999GD11991+0073259GD21991+0762059GE19MSL   +99999+99999GF102995999999007321999999MA1101935098895OC101245OD149901391280REMMET12901/03/17 16:53:02 METAR KMSP 032253Z 29018G24KT 10SM FEW024 FEW250 M13/M18 A3010 RMK AO2 PK WND 28027/2236 SLP209 T11331183 (JDB)EQDD01      0ADE726
0347726580149222017010323537+44883-093229FM-15+0255KMSP V0202905N010852200059N0160935N5-01395-01895102115ADDAA101000095AJ100039500025099GA1025+008535999GD11991+0085359GE19MSL   +99999+99999GF102995999999008531999999KA1060M-01061KA2060N-01391MA1101965098925MD1190159+9999OC101295REMMET14601/03/17 17:53:02 METAR KMSP 032353Z 29021G25KT 10SM FEW028 M14/M19 A3011 RMK AO2 PK WND 31026/2327 SLP211 4/001 T11391189 11106 21139 51015 (JDB)EQDD01      0ADE726
0254726580149222017010400004+44883-093217FM-12+025599999V0202901N010819999999N016000199-01391-01891102111ADDAJ100033100030099GA1999+008001999GE19MSL   +99999+99999GF102991999999008001999999KA1120M-00171KA2120N-01391MA1999999098801MD1110151+9999OD149901291999REMSYN09272658 32566 22921 11139 21189 39880 40211 51015 92353 333 11017 21139 4/003 91025 555 90400=
0242726580149222017010400537+44883-093229FM-15+0255KMSP V0202905N007752200059N0160935N5-01445-01895102165ADDAA101000095GA1025+006105999GD11991+0061059GE19AGL   +99999+99999GF102995999999006101999999MA1102005098955OC101085REMMET09801/03/17 18:53:01 METAR KMSP 040053Z 29015G21KT 10SM FEW020 M14/M19 A3012 RMK AO2 SLP216 T11441189EQDD01      0ADE726
0242726580149222017010401537+44883-093229FM-15+0255KMSP V0202905N007752200059N0160935N5-01505-01945102195ADDAA101000095GA1045+005185999GD12991+0051859GE19AGL   +99999+99999GF104995999999005181999999MA1102005098955OC101085REMMET09801/03/17 19:53:01 METAR KMSP 040153Z 29015G21KT 10SM SCT017 M15/M19 A3012 RMK AO2 SLP219 T11501194EQDD01      0ADE726
0283726580149222017010402537+44883-093229FM-15+0255KMSP V0203005N008252200059N0160935N5-01565-02005102195ADDAA101000095GA1025+005495999GD11991+0054959GE19AGL   +99999+99999GF102995999999005491999999MA1102005098955MD1190059+9999OD149901331310REMMET11901/03/17 20:53:01 METAR KMSP 040253Z 30016KT 10SM FEW018 M16/M20 A3012 RMK AO2 PK WND 31026/0235 SLP219 T11561200 51005EQDD01      0ADE726
0242726580149222017010403537+44883-093229FM-15+0255KMSP V0202905N006752200059N0160935N5-01615-02005102225ADDAA101000095GA1025+005495999GD11991+0054959GE19AGL   +99999+99999GF102995999999005491999999MA1102035098995OC101245REMMET09801/03/17 21:53:02 METAR KMSP 040353Z 29013G24KT 10SM FEW018 M16/M20 A3013 RMK AO2 SLP222 T11611200EQDD01      0ADE726
0231726580149222017010404537+44883-093229FM-15+0255KMSP V0203005N006752200059N0160935N5-01615-02065102235ADDAA101000095GA1025+005495999GD11991+0054959GE19AGL   +99999+99999GF102995999999005491999999MA1102035098995REMMET09501/03/17 22:53:02 METAR KMSP 040453Z 30013KT 10SM FEW018 M16/M21 A3013 RMK AO2 SLP223 T11611206EQDD01      0ADE726
0359726580149222017010405537+44883-093229FM-15+0255KMSP V0203005N008252200059N0160935N5-01675-02115102265ADDAA101000095AJ100039500025099GA1025+005495999GD11991+0054959GE19AGL   +99999+99999GF102995999999005491999999KA1060M-01391KA2060N-01671KA3240M+00001KA4240N-01671MA1102075099025MD1390049+9999OC101135REMMET13201/03/17 23:53:02 METAR KMSP 040553Z 30016G22KT 10SM FEW018 M17/M21 A3014 RMK AO2 SLP226 4/001 T11671211 11139 21167 400001167 53004EQDD01      0ADE726
0994726580149222017010405596+44883-093229SOD  +0255KMSP V020999999999999999999999999999+99999+99999999999ADDAA124000025AJ100039599999999AL12400035AN1024000035AT1AU15FZDZ5AT2AU13BR  5AX1016246AX2066246KA1240M+00005KA2240N-01665MG1098754101394OE11240143130099995OE22240116231099995OE33240074799999995REMSOD75724 HR PRECIPITATION (IN):    T SNOW DEPTH (IN):1     24 HR SNOWFALL (IN):T    WEATHER(CODE):16  24 HR MAX TEMP (F): 3224 HR MIN TEMP (F):  2AVERAGE STATION PRESSURE:29.160 MINIMUM SEA LEVEL PRESSURE:29.94 TIME OF OCCURRENCE:0451 PEAK WIND SPEED (MPH): 32 PEAK WIND DIR (DEG):300 PEAK WIND TIME (LST):      FASTEST 2MIN SPEED (MPH): 26FASTEST 2MIN DIR (DEG):310 FASTEST 2MIN TIME (LST):     AVERAGE WIND SPEED (MPH):16.7 24 HR AVG TEMP (F): 17DEPART FROM NORMAL:  1  HEATING DEGREE DAYS: 48 COOLING DEGREE DAYS:  0 LATEST DAY MAX TEMP (0700-1900 LST):25  LATEST NIGHT MIN TEMP(1900-0800 LST):20 HOURLY INCREMENTAL PRECIPITATION VALUES (IN):    T    0.00 0.00 0.00 0.00 0.00 0.00 0.00 0.00 0.00 0.00 0.00 0.00 0.00 0.00 0.00 0.00 0.00 0.00 0.00 0.00 0.00 0.00EQDR01    167AXW093R02    167AXW093
0254726580149222017010406004+44883-093217FM-12+025599999V0203001N008219999999N016000199-01671-02111102261ADDAJ100033100030099GA1999+004501999GE19MSL   +99999+99999GF102991999999004501999999KA1240M+00001KA2240N-01671MA1999999098901MD1310041+9999OD149901131999REMSYN09272658 32466 23016 11167 21211 39890 40226 53004 90553 333 10000 21167 4/003 91022 555 90406=
0247726580149222017010406537+44883-093229FM-15+0255KMSP V0202905N007752200059N0160935N5-01725-02175102285ADDAA101000095GA1025+005495999GD11991+0054959GE19AGL   +99999+99999GF102995999999005491999999MA1102075099025OC101135REMMET10301/04/17 00:53:02 METAR KMSP 040653Z 29015G22KT 10SM FEW018 M17/M22 A3014 RMK AO2 SLP228 T11721217 (PL)EQDD01      0ADE726
0247726580149222017010407537+44883-093229FM-15+0255KMSP V0203005N007752200059N0160935N5-01785-02225102335ADDAA101000095GA1025+005495999GD11991+0054959GE19AGL   +99999+99999GF102995999999005491999999MA1102135099095OC101085REMMET10301/04/17 01:53:02 METAR KMSP 040753Z 30015G21KT 10SM FEW018 M18/M22 A3016 RMK AO2 SLP233 T11781222 (PL)EQDD01      0ADE726
0256726580149222017010408537+44883-093229FM-15+0255KMSP V0203005N007252200059N0160935N5-01835-02285102375ADDAA101000095GA1025+005495999GD11991+0054959GE19AGL   +99999+99999GF102995999999005491999999MA1102175099125MD1390109+9999REMMET10601/04/17 02:53:02 METAR KMSP 040853Z 30014KT 10SM FEW018 M18/M23 A3017 RMK AO2 SLP237 T11831228 53010 (PL)EQDD01      0ADE726
0203726580149222017010409537+44883-093229FM-15+0255KMSP V0202905N006252200059N0160935N5-01895-02335102385ADDAA101000095GA1005+999999999GD10991+9999999GF100991999999999999999999MA1102175099125OC101035REMMET10001/04/17 03:53:02 METAR KMSP 040953Z 29012G20KT 10SM CLR M19/M23 A3017 RMK AO2 SLP238 T11891233 (PL)
0247726580149222017010410537+44883-093229FM-15+0255KMSP V0203005N007752200059N0160935N5-01945-02395102395ADDAA101000095GA1025+005495999GD11991+0054959GE19AGL   +99999+99999GF102995999999005491999999MA1102175099125OC101135REMMET10301/04/17 04:53:02 METAR KMSP 041053Z 30015G22KT 10SM FEW018 M19/M24 A3017 RMK AO2 SLP239 T11941239 (PL)EQDD01      0ADE726
0317726580149222017010411537+44883-093229FM-15+0255KMSP V0202905N007252200059N0160935N5-02005-02395102415ADDAA101000095AJ100039500025099GA1025+005495999GD11991+0054959GE19AGL   +99999+99999GF102995999999005491999999KA1060M-01671KA2060N-02001MA1102175099125MD1290029+9999REMMET12401/04/17 05:53:02 METAR KMSP 041153Z 29014KT 10SM FEW018 M20/M24 A3017 RMK AO2 SLP241 4/001 T12001239 11167 21200 52002 (PL)EQDD01      0ADE726
0234726580149222017010412004+44883-093217FM-12+025599999V0202901N007219999999N016000199-02001-02391102411ADDAJ100033100030099GA1999+004501999GE19MSL   +99999+99999GF102991999999004501999999KA1240M+00001KA2240N-02001MA1999999099001MD1210021+9999REMSYN08672658 32466 22914 11200 21239 39900 40241 52002 91153 333 10000 21200 4/003 555 90412=
0247726580149222017010412537+44883-093229FM-15+0255KMSP V0202905N007252200059N0160935N5-02065-02445102425ADDAA101000095GA1025+005495999GD11991+0054959GE19AGL   +99999+99999GF102995999999005491999999MA1102205099155OC100985REMMET10301/04/17 06:53:02 METAR KMSP 041253Z 29014G19KT 10SM FEW018 M21/M24 A3018 RMK AO2 SLP242 T12061244 (PL)EQDD01      0ADE726
0236726580149222017010413537+44883-093229FM-15+0255KMSP V0203005N007252200059N0144845N5-02115-02505102435ADDAA101000095GA1045+005185999GD12991+0051859GE19AGL   +99999+99999GF104995999999005181999999MA1102205099155REMMET10001/04/17 07:53:02 METAR KMSP 041353Z 30014KT 9SM SCT017 M21/M25 A3018 RMK AO2 SLP243 T12111250 (CLB)EQDD01      0ADE726
0287726580149222017010414117+44883-093229FM-16+0255KMSP V0203005N007252200059N0112655N5-02065-02445999999ADDAA101000021AU110030015AW1715GA1045+005185999GD12991+0051859GE19AGL   +99999+99999GF104995999999005181999999MA1102205099155OC101035REMMET12601/04/17 08:11:02 SPECI KMSP 041411Z 30014G20KT 7SM -SN SCT017 M21/M24 A3018 RMK AO2 SNB11 PRESENT WX IC P0000 T12061244 (CLB)EQDD01      0ADE726
0304726580149222017010414537+44883-093229FM-15+0255KMSP V0203005N007752200059N0128755N5-02115-02505102495ADDAA101000025AA203000021GA1045+005185999GD12991+0051859GE19AGL   +99999+99999GF104995999999005181999999MA1102245099195MD1390069+9999REMMET12701/04/17 08:53:02 METAR KMSP 041453Z 30015KT 8SM SCT017 M21/M25 A3019 RMK AO2 SNB11E48 SLP249 P0000 60000 T12111250 53006 (CLB)EQDQ01  00008PRCP03D01      0ADE726
0237726580149222017010415537+44883-093229FM-15+0255KMSP V0203005N007752200059N0160935N5-02005-02505102505ADDAA101000095GA1025+005185999GD11991+0051859GE19AGL   +99999+99999GF102995999999005181999999MA1102275099225REMMET10101/04/17 09:53:02 METAR KMSP 041553Z 30015KT 10SM FEW017 M20/M25 A3020 RMK AO2 SLP250 T12001250 (CLB)EQDD01      0ADE726
0193726580149222017010416537+44883-093229FM-15+0255KMSP V0203005N006752200059N0160935N5-01895-02395102475ADDAA101000095GA1005+999999999GD10991+9999999GF100991999999999999999999MA1102245099195REMMET09801/04/17 10:53:02 METAR KMSP 041653Z 30013KT 10SM CLR M19/M24 A3019 RMK AO2 SLP247 T11891239 (CLB)
0302726580149222017010417537+44883-093229FM-15+0255KMSP V0203205N006752200059N0160935N5-01785-02395102395ADDAA101000095AA206000021AJ100039500025099GA1005+999999999GD10991+9999999GF100991999999999999999999KA1060M-01781KA2060N-02111MA1102175099125MD1890089+9999OC101085REMMET13101/04/17 11:53:02 METAR KMSP 041753Z 32013G21KT 10SM CLR M18/M24 A3017 RMK AO2 SLP239 4/001 60000 T11781239 11178 21211 58008 (CLB)
0207726580149222017010418004+44883-093217FM-12+025599999V0203201N006719999999N016000199-01781-02391102391ADDAA106000021AJ100033100030099KA1120M-01671KA2120N-02111MA1999999099001MD1810081+9999OD149901081999REMSYN09872658 12966 03213 11178 21239 39900 40239 58008 69901 91753 333 11167 21211 4/003 91021 555 90418=
0204726580149222017010418537+44883-093229FM-15+0255KMSP V0203005N005752200059N0160935N5-01675-02285102325ADDAA101000095GA1005+999999999GD10991+9999999GF100991999999999999999999MA1102105099055OC101085REMMET10101/04/17 12:53:02 METAR KMSP 041853Z 30011G21KT 10SM CLR M17/M23 A3015 RMK AO2 SLP232 T11671228 (CLB)
0204726580149222017010419537+44883-093229FM-15+0255KMSP V0202905N007752200059N0160935N5-01615-02225102295ADDAA101000095GA1005+999999999GD10991+9999999GF100991999999999999999999MA1102075099025OC101035REMMET10101/04/17 13:53:02 METAR KMSP 041953Z 29015G20KT 10SM CLR M16/M22 A3014 RMK AO2 SLP229 T11611222 (CLB)
0224726580149222017010420537+44883-093229FM-15+0255KMSP V0203205N008852200059N0160935N5-01565-02225102245ADDAA101000095GA1005+999999999GD10991+9999999GF100991999999999999999999MA1102005098955MD1690149+9999OC101085REMMET10701/04/17 14:53:02 METAR KMSP 042053Z 32017G21KT 10SM CLR M16/M22 A3012 RMK AO2 SLP224 T11561222 56014 (CLB)
0286726580149222017010421537+44883-093229FM-15+0255KMSP V0202805N007752200059N0160935N5-01615-02225102275ADDAA101000095GA1025+006105999GA2025+076205999GD11991+0061059GD21991+0762059GE19AGL   +99999+99999GF102995999999006101999999MA1102035098995OC100935REMMET11101/04/17 15:53:02 METAR KMSP 042153Z 28015G18KT 10SM FEW020 FEW250 M16/M22 A3013 RMK AO2 SLP227 T11611222 (JDB)EQDD01      0ADE726
0275726580149222017010422537+44883-093229FM-15+0255KMSP V0202905N004652200059N0160935N5-01675-02225102265ADDAA101000095GA1025+045725999GA2025+076205999GD11991+0457259GD21991+0762059GE19AGL   +99999+99999GF102995999999045721999999MA1102035098995REMMET10801/04/17 16:53:02 METAR KMSP 042253Z 29009KT 10SM FEW150 FEW250 M17/M22 A3013 RMK AO2 SLP226 T11671222 (JDB)EQDD01      0ADE726
0292726580149222017010423537+44883-093229FM-15+0255KMSP V0202905N003652200059N0160935N5-01675-02225102195ADDAA101000095AJ100039599999999GA1025+045725999GD11991+0457259GE19AGL   +99999+99999GF102995999999045721999999MA1101965098925MD1890069+9999REMMET12501/04/17 17:53:02 METAR KMSP 042353Z 29007KT 10SM FEW150 M17/M22 A3011 RMK AO2 SLP219 4/001 T11671222 11156 21178 58006 (JDB)EQDD01      0ADE726
0218726580149222017010500004+44883-093217FM-12+025599999V0202901N003619999999N016000199-01671-02221102191ADDAJ100033100030099GE19MSL   +99999+99999GF102991999999999999999999KA1120M-01561KA2120N-02001MA1999999098801MD1810061+9999REMSYN08672658 32966 22907 11167 21222 39880 40219 58006 92353 333 11156 21200 4/003 555 90500=
0231726580149222017010500537+44883-093229FM-15+0255KMSP V0202905N005752200059N0160935N5-01725-02225102215ADDAA101000095GA1025+030485999GD11991+0304859GE19AGL   +99999+99999GF102995999999030481999999MA1101965098925REMMET09501/04/17 18:53:01 METAR KMSP 050053Z 29011KT 10SM FEW100 M17/M22 A3011 RMK AO2 SLP221 T11721222EQDD01      0ADE726
0187726580149222017010501537+44883-093229FM-15+0255KMSP V0202905N004652200059N0160935N5-01785-02225102235ADDAA101000095GA1005+999999999GD10991+9999999GF100991999999999999999999MA1101965098925REMMET09201/04/17 19:53:01 METAR KMSP 050153Z 29009KT 10SM CLR M18/M22 A3011 RMK AO2 SLP223 T11781222
0289726580149222017010502537+44883-093229FM-15+0255KMSP V0203005N005752200059N0160935N5-01835-02225102225ADDAA101000095GA1025+006105999GA2025+030485999GD11991+0061059GD21991+0304859GE19AGL   +99999+99999GF102995999999006101999999MA1101965098925MD1090039+9999REMMET10801/04/17 20:53:02 METAR KMSP 050253Z 30011KT 10SM FEW020 FEW100 M18/M22 A3011 RMK AO2 SLP222 T11831222 50003EQDD01      0ADE726
0212726580149222017010503537+44883-093229FM-15+0255KMSP V0202905N00365013115MN0160935N5-01785-02175102215ADDAA101000095GA1075+013115999GD13991+0131159GE19MSL   +99999+99999GF199999999999013111999999MA1101965098925REMMET09501/04/17 21:53:02 METAR KMSP 050353Z 29007KT 10SM BKN043 M18/M22 A3011 RMK AO2 SLP221 T11781217
0237726580149222017010504537+44883-093229FM-15+0255KMSP V0202905N00415012805MN0096565N5-01785-02175102215ADDAA101000095AU100007015AW1051GA1085+012805999GD14991+0128059GE19MSL   +99999+99999GF199999999999012801999999MA1101965098925MW1055REMMET09701/04/17 22:53:02 METAR KMSP 050453Z 29008KT 6SM HZ OVC042 M18/M22 A3011 RMK AO2 SLP221 T11781217
0328726580149222017010505537+44883-093229FM-15+0255KMSP V0203005N00515014025MN0128755N5-01785-02175102155ADDAA101000095AJ100039500025099GA1085+014025999GD14991+0140259GE19MSL   +99999+99999GF199999999999014021999999KA1060M-01671KA2060N-01831KA3240M-01561KA4240N-02111MA1101935098895MD1890059+9999REMMET12801/04/17 23:53:02 METAR KMSP 050553Z 30010KT 8SM OVC046 M18/M22 A3010 RMK AO2 SLP215 4/001 T11781217 11167 21183 411561211 58005
0949726580149222017010505596+44883-093229SOD  +0255KMSP V020999999999999999999999999999+99999+99999999999ADDAA124000025AJ100039599999999AL12400035AN1024000035AT1AU18SN  5AT2AU08HZ  5AX1085245KA1240M-01555KA2240N-02105MG1098984102134OE11240120733099995OE22240098332099995OE33240063999999995REMSOD75624 HR PRECIPITATION (IN):    T SNOW DEPTH (IN):1     24 HR SNOWFALL (IN):T    WEATHER(CODE):8  24 HR MAX TEMP (F):  424 HR MIN TEMP (F): -6AVERAGE STATION PRESSURE:29.230 MINIMUM SEA LEVEL PRESSURE:30.16 TIME OF OCCURRENCE:2359 PEAK WIND SPEED (MPH): 27 PEAK WIND DIR (DEG):330 PEAK WIND TIME (LST):      FASTEST 2MIN SPEED (MPH): 22FASTEST 2MIN DIR (DEG):320 FASTEST 2MIN TIME (LST):     AVERAGE WIND SPEED (MPH):14.3 24 HR AVG TEMP (F): -1DEPART FROM NORMAL:-17  HEATING DEGREE DAYS: 66 COOLING DEGREE DAYS:  0 LATEST DAY MAX TEMP (0700-1900 LST):4   LATEST NIGHT MIN TEMP(1900-0800 LST):-6 HOURLY INCREMENTAL PRECIPITATION VALUES (IN):.00 0.00 0.00 0.00 0.00 0.00 0.00 0.00 T    0.00 0.00 0.00 0.00 0.00 0.00 0.00 0.00 0.00 0.00 0.00 0.00 0.00 0.00 0.00
0234726580149222017010506004+44883-093217FM-12+025599999V0203001N005119999999N012000199-01781-02171102151ADDAJ100033100030099GA1999+012501999GE19MSL   +99999+99999GF108991999999012501999999KA1240M-01671KA2240N-02001MA1999999098771MD1810051+9999REMSYN08672658 32662 83010 11178 21217 39877 40215 58005 90553 333 11167 21200 4/003 555 90506=
0254726580149222017010506537+44883-093229FM-15+0255KMSP V0203005N00515013725MN0112655N5-01785-02175102095ADDAA101000095GA1025+011895999GA2085+013725999GD11991+0118959GD24991+0137259GE19MSL   +99999+99999GF199999999999011891999999MA1101865098825REMMET10601/05/17 00:53:02 METAR KMSP 050653Z 30010KT 7SM FEW039 OVC045 M18/M22 A3008 RMK AO2 SLP209 T11781217 (PL)
0295726580149222017010507537+44883-093229FM-15+0255KMSP V0203005N00465015245MN0080475N5-01835-02225102085ADDAA101000025AU100007015AW1051GA1045+006105999GA2085+015245999GD12991+0061059GD24991+0152459GE19MSL   +99999+99999GF199999999999006101999999MA1101865098825MW1055REMMET12401/05/17 01:53:02 METAR KMSP 050753Z 30009KT 5SM HZ SCT020 OVC050 M18/M22 A3008 RMK AO2 SNB08E49 SLP208 P0000 T11831222 (PL)
0330726580149222017010508537+44883-093229FM-15+0255KMSP V0202905N00365009755MN0160935N5-01895-02285102105ADDAA101000095AA203000021GA1025+006105999GA2075+009755999GA3085+015245999GD11991+0061059GD23991+0097559GD34991+0152459GE19MSL   +99999+99999GF199999999999006101999999MA1101865098825MD1590049+9999REMMET12601/05/17 02:53:02 METAR KMSP 050853Z 29007KT 10SM FEW020 BKN032 OVC050 M19/M23 A3008 RMK AO2 SLP210 60000 T11891228 55004 (PL)
0254726580149222017010509537+44883-093229FM-15+0255KMSP V0203105N00465015245MN0144845N5-01945-02285102105ADDAA101000095GA1045+006715999GA2075+015245999GD12991+0067159GD23991+0152459GE19MSL   +99999+99999GF199999999999006711999999MA1101865098825REMMET10601/05/17 03:53:02 METAR KMSP 050953Z 31009KT 9SM SCT022 BKN050 M19/M23 A3008 RMK AO2 SLP210 T11941228 (PL)
0236726580149222017010510017+44883-093229FM-16+0255KMSP V0203205N00575006715MN0128755N5-01945-02335999999ADDGA1075+006715999GA2075+015245999GD13991+0067159GD23991+0152459GE19MSL   +99999+99999GF199999999999006711999999MA1101865098825REMMET09901/05/17 04:01:02 SPECI KMSP 051001Z 32011KT 8SM BKN022 BKN050 M19/M23 A3008 RMK AO2 T11941233 (PL)
0280726580149222017010510537+44883-093229FM-15+0255KMSP V0203005N00465004275MN0080475N5-02005-02335102115ADDAA101000095AU100007015AW1051GA1075+004275999GA2085+006105999GD13991+0042759GD24991+0061059GE19MSL   +99999+99999GF199999999999004271999999MA1101865098825MW1055REMMET10901/05/17 04:53:02 METAR KMSP 051053Z 30009KT 5SM HZ BKN014 OVC020 M20/M23 A3008 RMK AO2 SLP211 T12001233 (PL)
0224726580149222017010511047+44883-093229FM-16+0255KMSP V0203105N00365005185MN0080475N5-02005-02395999999ADDAU100007015AW1051GA1085+005185999GD14991+0051859GE19MSL   +99999+99999GF199999999999005181999999MA1101865098825MW1055REMMET09501/05/17 05:04:02 SPECI KMSP 051104Z 31007KT 5SM HZ OVC017 M20/M24 A3008 RMK AO2 T12001239 (PL)
0152726580149222017010511516+44883-093229FM-16+0255KMSP V0203105N00365003965MN0160935N5-02105-02405999999ADDGA1075+003965999GD13991+0039659MA1101865098825REMMET09401/05/17 05:51:02 SPECI KMSP 051151Z 31007KT 10SM BKN013 M21/M24 A3008 RMK AO2 4/001 FIBI (PL)
0334726580149222017010511537+44883-093229FM-15+0255KMSP V0203105N003652200059N0160935N5-02065-02395102105ADDAA101000095AA206000021AJ100039500025099GA1045+003965999GD12991+0039659GE19AGL   +99999+99999GF104995999999003961999999KA1060M-01781KA2060N-02061MA1101865098825MD1890019+9999REMMET13001/05/17 05:53:02 METAR KMSP 051153Z 31007KT 10SM SCT013 M21/M24 A3008 RMK AO2 SLP210 4/001 60000 T12061239 11178 21206 58001 (PL)EQDD01      0ADE726
0270726580149222017010512004+44883-093217FM-12+025599999V0203101N003619999999N016000199-02061-02391102101ADDAA106000091AJ100033100030099GA1999+004501999GE19MSL   +99999+99999GF104991999999004501999999KA1240M-01561KA2240N-02061MA1999999098701MD1810011+9999REMSYN09272658 12466 43107 11206 21239 39870 40210 58001 69901 91153 333 11156 21206 4/003 555 90512=EQDQ01  00002PRCP06
0236726580149222017010512537+44883-093229FM-15+0255KMSP V0203305N004652200059N0160935N5-02115-02445102135ADDAA101000095GA1025+003355999GD11991+0033559GE19AGL   +99999+99999GF102995999999003351999999MA1101905098855REMMET10001/05/17 06:53:02 METAR KMSP 051253Z 33009KT 10SM FEW011 M21/M24 A3009 RMK AO2 SLP213 T12111244 (PL)EQDD01      0ADE726
0237726580149222017010513537+44883-093229FM-15+0255KMSP V0203405N005152200059N0160935N5-02175-02505102175ADDAA101000095GA1025+003055999GD11991+0030559GE19AGL   +99999+99999GF102995999999003051999999MA1101935098895REMMET10101/05/17 07:53:02 METAR KMSP 051353Z 34010KT 10SM FEW010 M22/M25 A3010 RMK AO2 SLP217 T12171250 (CLB)EQDD01      0ADE726
0190726580149222017010514536+44883-093229FM-15+0255KMSP V0203105N004152200059N0160935N5-02115-02445102265ADDAA101000095GA1025+003055999GD11991+0030559MA1102005098955MD1390149+9999REMMET10701/05/17 08:53:02 METAR KMSP 051453Z 31008KT 10SM FEW010 M21/M24 A3012 RMK AO2 SLP226 T12111244 53014 (CLB)
0193726580149222017010515537+44883-093229FM-15+0255KMSP V0203205N003652200059N0160935N5-01945-02445102295ADDAA101000095GA1005+999999999GD10991+9999999GF100991999999999999999999MA1102035098995REMMET09801/05/17 09:53:02 METAR KMSP 051553Z 32007KT 10SM CLR M19/M24 A3013 RMK AO2 SLP229 T11941244 (CLB)
0275726580149222017010516537+44883-093229FM-15+0255KMSP V0202905N004152200059N0160935N5-01895-02445102315ADDAA101000095GA1025+004575999GA2025+015245999GD11991+0045759GD21991+0152459GE19AGL   +99999+99999GF102995999999004571999999MA1102075099025REMMET10801/05/17 10:53:02 METAR KMSP 051653Z 29008KT 10SM FEW015 FEW050 M19/M24 A3014 RMK AO2 SLP231 T11891244 (CLB)EQDD01      0ADE726
0337726580149222017010517537+44883-093229FM-15+0255KMSP V0203105N00465006405MN0160935N5-01785-02395102225ADDAA101000095AJ100039500025099GA1075+006405999GA2075+076205999GD13991+0064059GD23991+0762059GE19MSL   +99999+99999GF199999999999006401999999KA1060M-01781KA2060N-02171MA1102005098955MD1890029+9999REMMET13201/05/17 11:53:02 METAR KMSP 051753Z 31009KT 10SM BKN021 BKN250 M18/M24 A3012 RMK AO2 SLP222 4/001 T11781239 11178 21217 58002 (CLB)
0234726580149222017010518004+44883-093217FM-12+025599999V0203101N004619999999N016000199-01781-02391102221ADDAJ100033100030099GA1999+008001999GE19MSL   +99999+99999GF106991999999008001999999KA1120M-01781KA2120N-02171MA1999999098831MD1810021+9999REMSYN08672658 32566 63109 11178 21239 39883 40222 58002 91753 333 11178 21217 4/003 555 90518=
0250726580149222017010518537+44883-093229FM-15+0255KMSP V0203105N00465007625MN0144845N5-01725-02285102175ADDAA101000025AU110030015AW1715GA1075+007625999GD13991+0076259GE19MSL   +99999+99999GF199999999999007621999999MA1101935098895REMMET11601/05/17 12:53:02 METAR KMSP 051853Z 31009KT 9SM -SN BKN025 M17/M23 A3010 RMK AO2 SNB25 SLP217 P0000 T11721228 (CLB)
0261726580149222017010519407+44883-093229FM-16+0255KMSP V0203305N00465016765MN0160935N5-01675-02335999999ADDAA101000021GA1045+007925999GA2075+016765999GD12991+0079259GD23991+0167659GE19MSL   +99999+99999GF199999999999007921999999MA1101905098855REMMET11301/05/17 13:40:02 SPECI KMSP 051940Z 33009KT 10SM SCT026 BKN055 M17/M23 A3009 RMK AO2 SNE18 P0000 T11671233 (CLB)
0287726580149222017010519537+44883-093229FM-15+0255KMSP V0202905N004652200059N0160935N5-01675-02285102135ADDAA101000025GA1025+007925999GA2045+016765999GD11991+0079259GD22991+0167659GE19AGL   +99999+99999GF104995999999007921999999MA1101905098855REMMET12001/05/17 13:53:02 METAR KMSP 051953Z 29009KT 10SM FEW026 SCT055 M17/M23 A3009 RMK AO2 SNE18 SLP213 P0000 T11671228 (CLB)EQDD01      0ADE726
0292726580149222017010520537+44883-093229FM-15+0255KMSP V0202905N00365016765MN0160935N5-01675-02335102105ADDAA101000095AA203000021GA1045+009145999GA2075+016765999GD12991+0091459GD23991+0167659GE19MSL   +99999+99999GF199999999999009141999999MA1101865098825MD1690129+9999REMMET11901/05/17 14:53:02 METAR KMSP 052053Z 29007KT 10SM SCT030 BKN055 M17/M23 A3008 RMK AO2 SLP210 60000 T11671233 56012 (NK)
0274726580149222017010521537+44883-093229FM-15+0255KMSP V0203005N004652200059N0160935N5-01725-02335102135ADDAA101000095GA1045+008535999GA2045+016765999GD12991+0085359GD22991+0167659GE19AGL   +99999+99999GF104995999999008531999999MA1101905098855REMMET10701/05/17 15:53:02 METAR KMSP 052153Z 30009KT 10SM SCT028 SCT055 M17/M23 A3009 RMK AO2 SLP213 T11721233 (NK)EQDD01      0ADE726
0270726580149222017010522537+44883-093229FM-15+0255KMSP V0202705N00515008535MN0128755N5-01725-02285102145ADDAA101000095GA1045+006715999GA2075+008535999GD12991+0067159GD23991+0085359GE19MSL   +99999+99999GF199999999999006711999999MA1101905098855REMMET12201/05/17 16:53:02 METAR KMSP 052253Z 27010KT 8SM SCT022 BKN028 M17/M23 A3009 RMK AO2 SLP214 PRESENT WX VCSH T11721228 (NK)
0234726580149222017010523247+44883-093229FM-16+0255KMSP V0202705N005152200059N0160935N5-01785-02285999999ADDGA1045+004885999GD12991+0048859GE19AGL   +99999+99999GF104995999999004881999999MA1101905098855REMMET10901/05/17 17:24:02 SPECI KMSP 052324Z 27010KT 10SM SCT016 M18/M23 A3009 RMK AO2 PRESENT WX VCSH T11781228 (NK)EQDD01      0ADE726
0188726580149222017010523487+44883-093229FM-16+0255KMSP V0202905N00575006105MN0128755N5-01805-02305999999ADDGA1075+006105999GD13991+0061059GE19MSL   +99999+99999GF199999999999006101999999MA1101935098895REMMET08201/05/17 17:48:02 SPECI KMSP 052348Z 29011KT 8SM BKN020 M18/M23 A3010 RMK AO2 (NK)
0314726580149222017010523537+44883-093229FM-15+0255KMSP V0202905N00575006105MN0128755N5-01835-02285102175ADDAA101000095AA206000021AJ100039500025099GA1075+006105999GD13991+0061059GE19MSL   +99999+99999GF199999999999006101999999KA1060M-01671KA2060N-01831MA1101935098895MD1290039+9999REMMET12901/05/17 17:53:02 METAR KMSP 052353Z 29011KT 8SM BKN020 M18/M23 A3010 RMK AO2 SLP217 4/001 60000 T11831228 11167 21183 52003 (NK)
0251726580149222017010600004+44883-093217FM-12+025599999V0202901N005719999999N012000199-01831-02281102171ADDAA106000021AJ100033100030099GA1999+008001999GE19MSL   +99999+99999GF106991999999008001999999KA1120M-01671KA2120N-02061MA1999999098771MD1210031+9999REMSYN09272658 12562 62911 11183 21228 39877 40217 52003 69901 92353 333 11167 21206 4/003 555 90600=
0213726580149222017010600407+44883-093229FM-16+0255KMSP V0202905N004652200059N0160935N5-01895-02335999999ADDGA1045+006105999GD12991+0061059GE19AGL   +99999+99999GF104995999999006101999999MA1101965098925REMMET08801/05/17 18:40:01 SPECI KMSP 060040Z 29009KT 10SM SCT020 M19/M23 A3011 RMK AO2 T11891233EQDD01      0ADE726
0269726580149222017010600537+44883-093229FM-15+0255KMSP V0202805N004652200059N0160935N5-01895-02335102235ADDAA101000095GA1045+006105999GA2045+016765999GD12991+0061059GD22991+0167659GE19AGL   +99999+99999GF104995999999006101999999MA1101965098925REMMET10201/05/17 18:53:01 METAR KMSP 060053Z 28009KT 10SM SCT020 SCT055 M19/M23 A3011 RMK AO2 SLP223 T11891233EQDD01      0ADE726
0282726580149222017010601537+44883-093229FM-15+0255KMSP V0202905N00465015245MN0128755N5-01945-02335102265ADDAA101000025AU110030015AW1715GA1045+006105999GA2075+015245999GD12991+0061059GD23991+0152459GE19MSL   +99999+99999GF199999999999006101999999MA1102005098955REMMET11701/05/17 19:53:01 METAR KMSP 060153Z 29009KT 8SM -SN SCT020 BKN050 M19/M23 A3012 RMK AO2 SNB44 SLP226 P0000 T11941233
0334726580149222017010602537+44883-093229FM-15+0255KMSP V0202905N005752200059N0160935N5-02065-02445102305ADDAA101000025AA203000021GA1045+006105999GA2045+014335999GD12991+0061059GD22991+0143359GE19AGL   +99999+99999GF104995999999006101999999MA1102035098995MD1190129+9999REMMET12601/05/17 20:53:02 METAR KMSP 060253Z 29011KT 10SM SCT020 SCT047 M21/M24 A3013 RMK AO2 SNE18 SLP230 P0000 60000 T12061244 51012EQDQ01  00008PRCP03D01      0ADE726
0269726580149222017010603537+44883-093229FM-15+0255KMSP V0203005N005152200059N0160935N5-02115-02565102315ADDAA101000095GA1045+004575999GA2045+014335999GD12991+0045759GD22991+0143359GE19AGL   +99999+99999GF104995999999004571999999MA1102075099025REMMET10201/05/17 21:53:02 METAR KMSP 060353Z 30010KT 10SM SCT015 SCT047 M21/M26 A3014 RMK AO2 SLP231 T12111256EQDD01      0ADE726
0269726580149222017010604537+44883-093229FM-15+0255KMSP V0203205N004652200059N0160935N5-02175-02565102345ADDAA101000095GA1025+004575999GA2025+013725999GD11991+0045759GD21991+0137259GE19AGL   +99999+99999GF102995999999004571999999MA1102105099055REMMET10201/05/17 22:53:02 METAR KMSP 060453Z 32009KT 10SM FEW015 FEW045 M22/M26 A3015 RMK AO2 SLP234 T12171256EQDD01      0ADE726
0365726580149222017010605537+44883-093229FM-15+0255KMSP V0203005N005152200059N0160935N5-02225-02615102365ADDAA101000095AA206000021AJ100039500025099GA1025+003965999GD11991+0039659GE19AGL   +99999+99999GF102995999999003961999999KA1060M-01831KA2060N-02221KA3240M-01671KA4240N-02221MA1102105099055MD1190069+9999REMMET13501/05/17 23:53:02 METAR KMSP 060553Z 30010KT 10SM FEW013 M22/M26 A3015 RMK AO2 SLP236 4/001 60000 T12221261 11183 21222 411671222 51006EQDD01      0ADE726
0949726580149222017010605596+44883-093229SOD  +0255KMSP V020999999999999999999999999999+99999+99999999999ADDAA124000025AJ100039599999999AL12400035AN1024000035AT1AU18SN  5AT2AU08HZ  5AX1085245KA1240M-01665KA2240N-02215MG1098924102074OE11240093931099995OE22240076030099995OE33240046099999995REMSOD75624 HR PRECIPITATION (IN):    T SNOW DEPTH (IN):1     24 HR SNOWFALL (IN):T    WEATHER(CODE):8  24 HR MAX TEMP (F):  224 HR MIN TEMP (F): -8AVERAGE STATION PRESSURE:29.210 MINIMUM SEA LEVEL PRESSURE:30.14 TIME OF OCCURRENCE:0218 PEAK WIND SPEED (MPH): 21 PEAK WIND DIR (DEG):310 PEAK WIND TIME (LST):      FASTEST 2MIN SPEED (MPH): 17FASTEST 2MIN DIR (DEG):300 FASTEST 2MIN TIME (LST):     AVERAGE WIND SPEED (MPH):10.3 24 HR AVG TEMP (F): -3DEPART FROM NORMAL:-19  HEATING DEGREE DAYS: 68 COOLING DEGREE DAYS:  0 LATEST DAY MAX TEMP (0700-1900 LST):2   LATEST NIGHT MIN TEMP(1900-0800 LST):-7 HOURLY INCREMENTAL PRECIPITATION VALUES (IN):.00 T    0.00 0.00 0.00 0.00 0.00 0.00 0.00 0.00 0.00 0.00 T    T    0.00 0.00 0.00 0.00 0.00 T    T    0.00 0.00 0.00
0251726580149222017010606004+44883-093217FM-12+025599999V0203001N005119999999N016000199-02221-02611102361ADDAA106000021AJ100033100030099GA1999+004501999GE19MSL   +99999+99999GF102991999999004501999999KA1240M-01781KA2240N-02221MA1999999098931MD1110061+9999REMSYN09272658 12466 23010 11222 21261 39893 40236 51006 69901 90553 333 11178 21222 4/003 555 90606=
0236726580149222017010606537+44883-093229FM-15+0255KMSP V0203005N004152200059N0160935N5-02285-02615102375ADDAA101000095GA1025+004275999GD11991+0042759GE19AGL   +99999+99999GF102995999999004271999999MA1102135099095REMMET10001/06/17 00:53:02 METAR KMSP 060653Z 30008KT 10SM FEW014 M23/M26 A3016 RMK AO2 SLP237 T12281261 (PL)EQDD01      0ADE726
0192726580149222017010607537+44883-093229FM-15+0255KMSP V0202905N003152200059N0160935N5-02285-02615102395ADDAA101000095GA1005+999999999GD10991+9999999GF100991999999999999999999MA1102135099095REMMET09701/06/17 01:53:02 METAR KMSP 060753Z 29006KT 10SM CLR M23/M26 A3016 RMK AO2 SLP239 T12281261 (PL)
0212726580149222017010608537+44883-093229FM-15+0255KMSP V0202905N003152200059N0160935N5-02285-02615102435ADDAA101000095GA1005+999999999GD10991+9999999GF100991999999999999999999MA1102175099125MD1390079+9999REMMET10301/06/17 02:53:02 METAR KMSP 060853Z 29006KT 10SM CLR M23/M26 A3017 RMK AO2 SLP243 T12281261 53007 (PL)
0192726580149222017010609537+44883-093229FM-15+0255KMSP V0202905N002652200059N0160935N5-02285-02615102465ADDAA101000095GA1005+999999999GD10991+9999999GF100991999999999999999999MA1102205099155REMMET09701/06/17 03:53:02 METAR KMSP 060953Z 29005KT 10SM CLR M23/M26 A3018 RMK AO2 SLP246 T12281261 (PL)
0192726580149222017010610537+44883-093229FM-15+0255KMSP V0202805N003152200059N0160935N5-02285-02615102485ADDAA101000095GA1005+999999999GD10991+9999999GF100991999999999999999999MA1102245099195REMMET09701/06/17 04:53:02 METAR KMSP 061053Z 28006KT 10SM CLR M23/M26 A3019 RMK AO2 SLP248 T12281261 (PL)
0273726580149222017010611537+44883-093229FM-15+0255KMSP V0202705N002152200059N0160935N5-02285-02615102535ADDAA101000095AJ100039500025099GA1005+999999999GD10991+9999999GF100991999999999999999999KA1060M-02221KA2060N-02281MA1102275099225MD1390099+9999REMMET12101/06/17 05:53:02 METAR KMSP 061153Z 27004KT 10SM CLR M23/M26 A3020 RMK AO2 SLP253 4/001 T12281261 11222 21228 53009 (PL)
0170726580149222017010612004+44883-093217FM-12+025599999V0202701N002119999999N016000199-02281-02611102531ADDAJ100033100030099KA1240M-01671KA2240N-02281MA1999999099101MD1310091+9999REMSYN08672658 32966 02704 11228 21261 39910 40253 53009 91153 333 11167 21228 4/003 555 90612=
0192726580149222017010612537+44883-093229FM-15+0255KMSP V0202605N002152200059N0160935N5-02285-02615102575ADDAA101000095GA1005+999999999GD10991+9999999GF100991999999999999999999MA1102305099255REMMET09701/06/17 06:53:02 METAR KMSP 061253Z 26004KT 10SM CLR M23/M26 A3021 RMK AO2 SLP257 T12281261 (PL)
0209726580149222017010613537+44883-093229FM-15+0255KMSP V0202405N002652200059N0128755N5-02285-02615102605ADDAA101000095GA1005+999999999GD10991+9999999GF100991999999999999999999MA1102345099285REMMET11401/06/17 07:53:02 METAR KMSP 061353Z 24005KT 8SM R30L/2600VP6000FT CLR M23/M26 A3022 RMK AO2 SLP260 T12281261 (AP)
0212726580149222017010614537+44883-093229FM-15+0255KMSP V0202405N003152200059N0160935N5-02285-02615102655ADDAA101000095GA1005+999999999GD10991+9999999GF100991999999999999999999MA1102375099325MD1390119+9999REMMET10301/06/17 08:53:02 METAR KMSP 061453Z 24006KT 10SM CLR M23/M26 A3023 RMK AO2 SLP265 T12281261 53011 (AP)
0192726580149222017010615537+44883-093229FM-15+0255KMSP V0202405N002652200059N0160935N5-02115-02505102755ADDAA101000095GA1005+999999999GD10991+9999999GF100991999999999999999999MA1102475099425REMMET09701/06/17 09:53:02 METAR KMSP 061553Z 24005KT 10SM CLR M21/M25 A3026 RMK AO2 SLP275 T12111250 (AP)
0192726580149222017010616537+44883-093229FM-15+0255KMSP V0209999V002152200059N0160935N5-01945-02395102795ADDAA101000095GA1005+999999999GD10991+9999999GF100991999999999999999999MA1102545099485REMMET09701/06/17 10:53:02 METAR KMSP 061653Z VRB04KT 10SM CLR M19/M24 A3028 RMK AO2 SLP279 T11941239 (AP)
0267726580149222017010617537+44883-093229FM-15+0255KMSP V0209999V002152200059N0160935N5-01835-02335102725ADDAA101000095AJ100033100025099GA1005+999999999GD10991+9999999GF100991999999999999999999KA1060M-01781KA2060N-02281MA1102475099425MD1090099+9999REMMET11501/06/17 11:53:02 METAR KMSP 061753Z VRB04KT 10SM CLR M18/M23 A3026 RMK AO2 SLP272 T11831233 11178 21228 50009 (AP)
0147726580149222017010618004+44883-093217FM-12+025599999V0209999N002119999999N016000199-01831-02331102721ADDKA1120M-01781KA2120N-02281MA1999999099301MD1990091+9999REMSYN08072658 32966 0//04 11183 21233 39930 40272 50009 91753 333 11178 21228 555 90618=
0192726580149222017010618537+44883-093229FM-15+0255KMSP V0202405N002152200059N0160935N5-01675-02395102675ADDAA101000095GA1005+999999999GD10991+9999999GF100991999999999999999999MA1102405099355REMMET09701/06/17 12:53:02 METAR KMSP 061853Z 24004KT 10SM CLR M17/M24 A3024 RMK AO2 SLP267 T11671239 (AP)
0274726580149222017010619537+44883-093229FM-15+0255KMSP V0202405N004152200059N0160935N5-01565-02285102675ADDAA101000095GA1025+014635999GA2045+076205999GD11991+0146359GD22991+0762059GE19AGL   +99999+99999GF104995999999014631999999MA1102445099385REMMET10701/06/17 13:53:02 METAR KMSP 061953Z 24008KT 10SM FEW048 SCT250 M16/M23 A3025 RMK AO2 SLP267 T11561228 (NK)EQDD01      0ADE726
0275726580149222017010620537+44883-093229FM-15+0255KMSP V0202605N00315076205MN0160935N5-01565-02225102685ADDAA101000095GA1045+008235999GA2075+076205999GD12991+0082359GD23991+0762059GE19MSL   +99999+99999GF199999999999008231999999MA1102445099385MD1590049+9999REMMET11301/06/17 14:53:02 METAR KMSP 062053Z 26006KT 10SM SCT027 BKN250 M16/M22 A3025 RMK AO2 SLP268 T11561222 55004 (NK)
0293726580149222017010621537+44883-093229FM-15+0255KMSP V0209999V00215013725MN0160935N5-01505-02115102715ADDAA101000095GA1025+006715999GA2075+013725999GA3075+076205999GD11991+0067159GD23991+0137259GD33991+0762059GE19MSL   +99999+99999GF199999999999006711999999MA1102475099425REMMET11401/06/17 15:53:02 METAR KMSP 062153Z VRB04KT 10SM FEW022 BKN045 BKN250 M15/M21 A3026 RMK AO2 SLP271 T11501211 (NK)
0293726580149222017010622537+44883-093229FM-15+0255KMSP V0202605N00155076205MN0160935N5-01565-02065102765ADDAA101000095GA1025+006405999GA2045+012505999GA3075+076205999GD11991+0064059GD22991+0125059GD33991+0762059GE19MSL   +99999+99999GF199999999999006401999999MA1102515099455REMMET11401/06/17 16:53:02 METAR KMSP 062253Z 26003KT 10SM FEW021 SCT041 BKN250 M16/M21 A3027 RMK AO2 SLP276 T11561206 (NK)
0355726580149222017010623537+44883-093229FM-15+0255KMSP V0202605N002652200059N0160935N5-01565-02005102815ADDAA101000095AJ100039500025099GA1025+006405999GA2045+012505999GD11991+0064059GD22991+0125059GE19AGL   +99999+99999GF104995999999006401999999KA1060M-01501KA2060N-01831MA1102575099525MD1390139+9999REMMET13101/06/17 17:53:02 METAR KMSP 062353Z 26005KT 10SM FEW021 SCT041 M16/M20 A3029 RMK AO2 SLP281 4/001 T11561200 11150 21183 53013 (NK)EQDD01      0ADE726
0234726580149222017010700004+44883-093217FM-12+025599999V0202601N002619999999N016000199-01561-02001102811ADDAJ100033100030099GA1999+008001999GE19MSL   +99999+99999GF104991999999008001999999KA1120M-01501KA2120N-02281MA1999999099391MD1310131+9999REMSYN08672658 32566 42605 11156 21200 39939 40281 53013 92353 333 11150 21228 4/003 555 90700=
0269726580149222017010700537+44883-093229FM-15+0255KMSP V0202705N002652200059N0160935N5-01565-02005102885ADDAA101000095GA1025+006405999GA2045+076205999GD11991+0064059GD22991+0762059GE19AGL   +99999+99999GF104995999999006401999999MA1102645099585REMMET10201/06/17 18:53:01 METAR KMSP 070053Z 27005KT 10SM FEW021 SCT250 M16/M20 A3031 RMK AO2 SLP288 T11561200EQDD01      0ADE726
0231726580149222017010701537+44883-093229FM-15+0255KMSP V0202805N002652200059N0160935N5-01615-02065102935ADDAA101000095GA1025+076205999GD11991+0762059GE19AGL   +99999+99999GF102995999999076201999999MA1102685099615REMMET09501/06/17 19:53:01 METAR KMSP 070153Z 28005KT 10SM FEW250 M16/M21 A3032 RMK AO2 SLP293 T11611206EQDD01      0ADE726
0251726580149222017010702537+44883-093229FM-15+0255KMSP V0202705N002152200059N0160935N5-01675-02065103005ADDAA101000095GA1025+076205999GD11991+0762059GE19AGL   +99999+99999GF102995999999076201999999MA1102745099685MD1290189+9999REMMET10101/06/17 20:53:02 METAR KMSP 070253Z 27004KT 10SM FEW250 M17/M21 A3034 RMK AO2 SLP300 T11671206 52018EQDD01      0ADE726
0186726580149222017010703537+44883-093229FM-15+0255KMSP V0202705N002152200059N0144845N5-01675-02065103045ADDAA101000095GA1005+999999999GD10991+9999999GF100991999999999999999999MA1102785099715REMMET09101/06/17 21:53:02 METAR KMSP 070353Z 27004KT 9SM CLR M17/M21 A3035 RMK AO2 SLP304 T11671206
0187726580149222017010704537+44883-093229FM-15+0255KMSP V0202505N002652200059N0160935N5-01725-02065103075ADDAA101000095GA1005+999999999GD10991+9999999GF100991999999999999999999MA1102815099755REMMET09201/06/17 22:53:02 METAR KMSP 070453Z 25005KT 10SM CLR M17/M21 A3036 RMK AO2 SLP307 T11721206
0304726580149222017010705537+44883-093229FM-15+0255KMSP V0202605N002152200059N0160935N5-01725-02065103115ADDAA101000095AJ100039500025099GA1005+999999999GD10991+9999999GF100991999999999999999999KA1060M-01561KA2060N-01721KA3240M-01501KA4240N-02281MA1102885099815MD1190139+9999REMMET12601/06/17 23:53:02 METAR KMSP 070553Z 26004KT 10SM CLR M17/M21 A3038 RMK AO2 SLP311 4/001 T11721206 11156 21172 411501228 51013
0944726580149222017010705596+44883-093229SOD  +0255KMSP V020999999999999999999999999999+99999+99999999999ADDAA124000095AJ100039599999999AL12400095AN1024000095AX1086246KA1240M-01495KA2240N-02275MG1099484102344OE11240067128099995OE22240044730099995OE33240025999999995REMSOD75624 HR PRECIPITATION (IN): 0.00 SNOW DEPTH (IN):1     24 HR SNOWFALL (IN):0.0  WEATHER(CODE):8  24 HR MAX TEMP (F):  524 HR MIN TEMP (F): -9AVERAGE STATION PRESSURE:29.375 MINIMUM SEA LEVEL PRESSURE:30.22 TIME OF OCCURRENCE:0035 PEAK WIND SPEED (MPH): 15 PEAK WIND DIR (DEG):280 PEAK WIND TIME (LST):      FASTEST 2MIN SPEED (MPH): 10FASTEST 2MIN DIR (DEG):300 FASTEST 2MIN TIME (LST):     AVERAGE WIND SPEED (MPH): 5.8 24 HR AVG TEMP (F): -2DEPART FROM NORMAL:-18  HEATING DEGREE DAYS: 67 COOLING DEGREE DAYS:  0 LATEST DAY MAX TEMP (0700-1900 LST):5   LATEST NIGHT MIN TEMP(1900-0800 LST):-9 HOURLY INCREMENTAL PRECIPITATION VALUES (IN):.00 0.00 0.00 0.00 0.00 0.00 0.00 0.00 0.00 0.00 0.00 0.00 0.00 0.00 0.00 0.00 0.00 0.00 0.00 0.00 0.00 0.00 0.00 0.00EQDR01     87AXW093
0170726580149222017010706004+44883-093217FM-12+025599999V0202601N002119999999N016000199-01721-02061103111ADDAJ100033100030099KA1240M-01561KA2240N-02281MA1999999099691MD1110131+9999REMSYN08672658 32966 02604 11172 21206 39969 40311 51013 90553 333 11156 21228 4/003 555 90706=
0192726580149222017010706537+44883-093229FM-15+0255KMSP V0202605N001552200059N0160935N5-01785-02115103115ADDAA101000095GA1005+999999999GD10991+9999999GF100991999999999999999999MA1102885099815REMMET09701/07/17 00:53:02 METAR KMSP 070653Z 26003KT 10SM CLR M18/M21 A3038 RMK AO2 SLP311 T11781211 (PL)
0192726580149222017010707537+44883-093229FM-15+0255KMSP V0202705N002652200059N0160935N5-01785-02115103175ADDAA101000095GA1005+999999999GD10991+9999999GF100991999999999999999999MA1102955099885REMMET09701/07/17 01:53:02 METAR KMSP 070753Z 27005KT 10SM CLR M18/M21 A3040 RMK AO2 SLP317 T11781211 (PL)
0212726580149222017010708537+44883-093229FM-15+0255KMSP V0202905N002652200059N0160935N5-01785-02115103275ADDAA101000095GA1005+999999999GD10991+9999999GF100991999999999999999999MA1103015099955MD1390159+9999REMMET10301/07/17 02:53:02 METAR KMSP 070853Z 29005KT 10SM CLR M18/M21 A3042 RMK AO2 SLP327 T11781211 53015 (PL)
0192726580149222017010709537+44883-093229FM-15+0255KMSP V0202805N002152200059N0160935N5-01785-02115103285ADDAA101000095GA1005+999999999GD10991+9999999GF100991999999999999999999MA1103055099985REMMET09701/07/17 03:53:02 METAR KMSP 070953Z 28004KT 10SM CLR M18/M21 A3043 RMK AO2 SLP328 T11781211 (PL)
0192726580149222017010710537+44883-093229FM-15+0255KMSP V0202905N002152200059N0160935N5-01835-02115103295ADDAA101000095GA1005+999999999GD10991+9999999GF100991999999999999999999MA1103055099985REMMET09701/07/17 04:53:02 METAR KMSP 071053Z 29004KT 10SM CLR M18/M21 A3043 RMK AO2 SLP329 T11831211 (PL)
0346726580149222017010711537+44883-093229FM-15+0255KMSP V0202505N002152200059N0160935N5-01835-02115103345ADDAA101000095AJ100039500025099ED130L99999GA1025+030485999GD11991+0304859GE19AGL   +99999+99999GF102995999999030481999999KA1060M-01721KA2060N-01831MA1103085100015MD1390079+9999REMMET14201/07/17 05:53:02 METAR KMSP 071153Z 25004KT 10SM R30L/6000VP6000FT FEW100 M18/M21 A3044 RMK AO2 SLP334 4/001 T11831211 11172 21183 53007 (PL)EQDD01      0ADE726
0218726580149222017010712004+44883-093217FM-12+025599999V0202501N002119999999N016000199-01831-02111103341ADDAJ100033100030099GE19MSL   +99999+99999GF102991999999999999999999KA1240M-01501KA2240N-01831MA1999999099891MD1310071+9999REMSYN08672658 32966 22504 11183 21211 39989 40334 53007 91153 333 11150 21183 4/003 555 90712=
0217726580149222017010712537+44883-093229FM-15+0255KMSP V0202805N00415014335MN0160935N5-01725-02065103415ADDAA101000095GA1075+014335999GD13991+0143359GE19MSL   +99999+99999GF199999999999014331999999MA1103185100115REMMET10001/07/17 06:53:02 METAR KMSP 071253Z 28008KT 10SM BKN047 M17/M21 A3047 RMK AO2 SLP341 T11721206 (PL)
0218726580149222017010713537+44883-093229FM-15+0255KMSP V0203105N00365013725MN0160935N5-01785-02115103515ADDAA101000095GA1075+013725999GD13991+0137259GE19MSL   +99999+99999GF199999999999013721999999MA1103285100215REMMET10101/07/17 07:53:02 METAR KMSP 071353Z 31007KT 10SM BKN045 M18/M21 A3050 RMK AO2 SLP351 T11781211 (TNP)
0257726580149222017010714537+44883-093229FM-15+0255KMSP V0203205N005152200059N0160935N5-01725-02115103635ADDAA101000095GA1045+021345999GD12991+0213459GE19AGL   +99999+99999GF104995999999021341999999MA1103395100315MD1390289+9999REMMET10701/07/17 08:53:02 METAR KMSP 071453Z 32010KT 10SM SCT070 M17/M21 A3053 RMK AO2 SLP363 T11721211 53028 (TNP)EQDD01      0ADE726
0193726580149222017010715537+44883-093229FM-15+0255KMSP V0203305N006252200059N0160935N5-01615-02065103755ADDAA101000095GA1005+999999999GD10991+9999999GF100991999999999999999999MA1103525100445REMMET09801/07/17 09:53:02 METAR KMSP 071553Z 33012KT 10SM CLR M16/M21 A3057 RMK AO2 SLP375 T11611206 (TNP)
0193726580149222017010716537+44883-093229FM-15+0255KMSP V0203205N004652200059N0160935N5-01505-02005103825ADDAA101000095GA1005+999999999GD10991+9999999GF100991999999999999999999MA1103595100515REMMET09801/07/17 10:53:02 METAR KMSP 071653Z 32009KT 10SM CLR M15/M20 A3059 RMK AO2 SLP382 T11501200 (TNP)
0274726580149222017010717537+44883-093229FM-15+0255KMSP V0203505N006252200059N0160935N5-01395-02005103845ADDAA101000095AJ100039500025099GA1005+999999999GD10991+9999999GF100991999999999999999999KA1060M-01391KA2060N-01891MA1103595100515MD1190219+9999REMMET12201/07/17 11:53:02 METAR KMSP 071753Z 35012KT 10SM CLR M14/M20 A3059 RMK AO2 SLP384 4/001 T11391200 11139 21189 51021 (TNP)
0170726580149222017010718004+44883-093217FM-12+025599999V0203501N006219999999N016000199-01391-02001103841ADDAJ100033100030099KA1120M-01391KA2120N-01891MA1999999100391MD1110211+9999REMSYN08672658 32966 03512 11139 21200 30039 40384 51021 91753 333 11139 21189 4/003 555 90718=
0193726580149222017010718537+44883-093229FM-15+0255KMSP V0203505N005752200059N0160935N5-01335-02065103835ADDAA101000095GA1005+999999999GD10991+9999999GF100991999999999999999999MA1103595100515REMMET09801/07/17 12:53:02 METAR KMSP 071853Z 35011KT 10SM CLR M13/M21 A3059 RMK AO2 SLP383 T11331206 (TNP)
0193726580149222017010719537+44883-093229FM-15+0255KMSP V0203105N004652200059N0160935N5-01335-02065103855ADDAA101000095GA1005+999999999GD10991+9999999GF100991999999999999999999MA1103625100545REMMET09801/07/17 13:53:02 METAR KMSP 071953Z 31009KT 10SM CLR M13/M21 A3060 RMK AO2 SLP385 T11331206 (TNP)
0224726580149222017010720537+44883-093229FM-15+0255KMSP V0203105N007252200059N0160935N5-01285-02065103905ADDAA101000095GA1005+999999999GD10991+9999999GF100991999999999999999999MA1103695100615MD1390079+9999OC100935REMMET10701/07/17 14:53:02 METAR KMSP 072053Z 31014G18KT 10SM CLR M13/M21 A3062 RMK AO2 SLP390 T11281206 53007 (TNP)
0192726580149222017010721537+44883-093229FM-15+0255KMSP V0203205N005152200059N0160935N5-01335-02115103995ADDAA101000095GA1005+999999999GD10991+9999999GF100991999999999999999999MA1103765100675REMMET09701/07/17 15:53:02 METAR KMSP 072153Z 32010KT 10SM CLR M13/M21 A3064 RMK AO2 SLP399 T11331211 (NK)
0192726580149222017010722537+44883-093229FM-15+0255KMSP V0203005N004652200059N0160935N5-01395-02115104025ADDAA101000095GA1005+999999999GD10991+9999999GF100991999999999999999999MA1103795100715REMMET09701/07/17 16:53:02 METAR KMSP 072253Z 30009KT 10SM CLR M14/M21 A3065 RMK AO2 SLP402 T11391211 (NK)
0273726580149222017010723537+44883-093229FM-15+0255KMSP V0202905N003152200059N0160935N5-01505-02065104055ADDAA101000095AJ100039500025099GA1005+999999999GD10991+9999999GF100991999999999999999999KA1060M-01281KA2060N-01501MA1103795100715MD1190139+9999REMMET12101/07/17 17:53:02 METAR KMSP 072353Z 29006KT 10SM CLR M15/M21 A3065 RMK AO2 SLP405 4/001 T11501206 11128 21150 51013 (NK)
0170726580149222017010800004+44883-093217FM-12+025599999V0202901N003119999999N016000199-01501-02061104051ADDAJ100033100030099KA1120M-01281KA2120N-01831MA1999999100581MD1110131+9999REMSYN08672658 32966 02906 11150 21206 30058 40405 51013 92353 333 11128 21183 4/003 555 90800=
0187726580149222017010800537+44883-093229FM-15+0255KMSP V0202905N004152200059N0160935N5-01565-02115104105ADDAA101000095GA1005+999999999GD10991+9999999GF100991999999999999999999MA1103865100775REMMET09201/07/17 18:53:01 METAR KMSP 080053Z 29008KT 10SM CLR M16/M21 A3067 RMK AO2 SLP410 T11561211
0187726580149222017010801537+44883-093229FM-15+0255KMSP V0203005N004652200059N0160935N5-01615-02115104135ADDAA101000095GA1005+999999999GD10991+9999999GF100991999999999999999999MA1103895100805REMMET09201/07/17 19:53:01 METAR KMSP 080153Z 30009KT 10SM CLR M16/M21 A3068 RMK AO2 SLP413 T11611211
0207726580149222017010802537+44883-093229FM-15+0255KMSP V0203005N003152200059N0160935N5-01675-02115104135ADDAA101000095GA1005+999999999GD10991+9999999GF100991999999999999999999MA1103895100805MD1090079+9999REMMET09801/07/17 20:53:02 METAR KMSP 080253Z 30006KT 10SM CLR M17/M21 A3068 RMK AO2 SLP413 T11671211 50007
0187726580149222017010803537+44883-093229FM-15+0255KMSP V0203105N003152200059N0160935N5-01725-02175104185ADDAA101000095GA1005+999999999GD10991+9999999GF100991999999999999999999MA1103935100845REMMET09201/07/17 21:53:02 METAR KMSP 080353Z 31006KT 10SM CLR M17/M22 A3069 RMK AO2 SLP418 T11721217
0186726580149222017010804537+44883-093229FM-15+0255KMSP V0202805N001552200059N0144845N5-01785-02175104155ADDAA101000095GA1005+999999999GD10991+9999999GF100991999999999999999999MA1103935100845REMMET09101/07/17 22:53:02 METAR KMSP 080453Z 28003KT 9SM CLR M18/M22 A3069 RMK AO2 SLP415 T11781217
0281726580149222017010805537+44883-093229FM-15+0255KMSP V0202705N001552200059N0160935N5-01785-02175104115ADDAA101000095GA1005+999999999GD10991+9999999GF100991999999999999999999KA1060M-01501KA2060N-01831KA3240M-01281KA4240N-01891MA1103865100775MD1890009+9999REMMET12001/07/17 23:53:02 METAR KMSP 080553Z 27003KT 10SM CLR M18/M22 A3067 RMK AO2 SLP411 T11781217 11150 21183 411281189 58000
0960726580149222017010805596+44883-093229SOD  +0255KMSP V020999999999999999999999999999+99999+99999999999ADDAA124000095AJ100039599999999AL12400095AN1024000095AX1086246KA1240M-01275KA2240N-01885MG1100494103124OE11240089431099996OE22240071532099995OE33240038099999995REMSOD75624 HR PRECIPITATION (IN): 0.00 SNOW DEPTH (IN):1     24 HR SNOWFALL (IN):0.0  WEATHER(CODE):8  24 HR MAX TEMP (F):  924 HR MIN TEMP (F): -2AVERAGE STATION PRESSURE:29.675 MINIMUM SEA LEVEL PRESSURE:30.45 TIME OF OCCURRENCE:0129 PEAK WIND SPEED (MPH): 20 PEAK WIND DIR (DEG):310 PEAK WIND TIME (LST):      FASTEST 2MIN SPEED (MPH): 16FASTEST 2MIN DIR (DEG):320 FASTEST 2MIN TIME (LST):     AVERAGE WIND SPEED (MPH): 8.5 24 HR AVG TEMP (F):  4DEPART FROM NORMAL:-12  HEATING DEGREE DAYS: 61 COOLING DEGREE DAYS:  0 LATEST DAY MAX TEMP (0700-1900 LST):9   LATEST NIGHT MIN TEMP(1900-0800 LST):-2 HOURLY INCREMENTAL PRECIPITATION VALUES (IN):.00 0.00 0.00 0.00 0.00 0.00 0.00 0.00 0.00 0.00 0.00 0.00 0.00 0.00 0.00 0.00 0.00 0.00 0.00 0.00 0.00 0.00 0.00 0.00EQDR01     87AXW093R02    207OES063
0152726580149222017010806004+44883-093217FM-12+025599999V0202701N001519999999N016000199-01781-02171104111ADDKA1240M-01501KA2240N-01831MA1999999100651REMSYN08072658 32966 02703 11178 21217 30065 40411 58000 90553 333 11150 21183 555 90806=EQDQ018     3APCTEN
0192726580149222017010806537+44883-093229FM-15+0255KMSP V0202505N001552200059N0160935N5-01835-02175104085ADDAA101000095GA1005+999999999GD10991+9999999GF100991999999999999999999MA1103865100775REMMET09701/08/17 00:53:02 METAR KMSP 080653Z 25003KT 10SM CLR M18/M22 A3067 RMK AO2 SLP408 T11831217 (AP)
