0192726575949602017010100537+45062-093351FM-15+0265KMIC V0301905N004152200059N0160935N5-00615-01065100895ADDAA101000095GA1005+999999999GD10991+9999999GF100991999999999999999999MA1100755097615REMMET09712/31/16 18:53:03 METAR KMIC 010053Z 19008KT 10SM CLR M06/M11 A2975 RMK AO2 SLP089 T10611106 (FD)
0217726575949602017010101537+45062-093351FM-15+0265KMIC V0301905N00415033535MN0160935N5-00505-01005100855ADDAA101000095GA1075+033535999GD13991+0335359GE19MSL   +99999+99999GF199999999999033531999999MA1100715097585REMMET10012/31/16 19:53:03 METAR KMIC 010153Z 19008KT 10SM BKN110 M05/M10 A2974 RMK AO2 SLP085 T10501100 (FD)
0237726575949602017010102537+45062-093351FM-15+0265KMIC V0302105N00465027435MN0160935N5-00395-00895100855ADDAA101000095GA1085+027435999GD14991+0274359GE19MSL   +99999+99999GF199999999999027431999999MA1100715097585MD1690089+9999REMMET10612/31/16 20:53:03 METAR KMIC 010253Z 21009KT 10SM OVC090 M04/M09 A2974 RMK AO2 SLP085 T10391089 56008 (FD)
0255726575949602017010103537+45062-093351FM-15+0265KMIC V0302005N00415028965MN0160935N5-00395-00895100855ADDAA101000095GA1075+028965999GA2075+036585999GD13991+0289659GD23991+0365859GE19MSL   +99999+99999GF199999999999028961999999MA1100715097585REMMET10712/31/16 21:53:03 METAR KMIC 010353Z 20008KT 10SM BKN095 BKN120 M04/M09 A2974 RMK AO2 SLP085 T10391089 TSNO
0217726575949602017010104537+45062-093351FM-15+0265KMIC V0302005N00465027435MN0160935N5-00335-00835100855ADDAA101000095GA1085+027435999GD14991+0274359GE19MSL   +99999+99999GF199999999999027431999999MA1100715097585REMMET10012/31/16 22:53:03 METAR KMIC 010453Z 20009KT 10SM OVC090 M03/M08 A2974 RMK AO2 SLP085 T10331083 TSNO
0330726575949602017010105537+45062-093351FM-15+0265KMIC V0302105N005152200059N0160935N5-00335-00895100855ADDAA101000095GA1025+025915999GD11991+0259159GE19AGL   +99999+99999GF102995999999025911999999KA1060M-00281KA2060N-00671KA3240M-00111KA4240N-00671MA1100715097585MD1190019+9999REMMET12812/31/16 23:53:03 METAR KMIC 010553Z 21010KT 10SM FEW085 M03/M09 A2974 RMK AO2 SLP085 T10331089 11028 21067 410111067 51001 TSNOEQDD01      0ADE726
0965726575949602017010105596+45062-093351SOD  +0265KMIC V030999999999999999999999999999+99999+99999999999ADDAA124000025KA1240M-00105KA2240N-00665KG1024W-0061D4KG2024D-0100D4MF1097494100754MG1097484099974OE11240120730008065OE22240089431008065OE33240051499999995RH1024X071D4RH2024N052D4RH3024M065D4REMSOD73024 HR PRECIPITATION (IN):T     24 HR MAX TEMP (F):30 24 HR MAX TEMP TIME (LST):0334 24 HR MIN TEMP (F):20 24 HR MIN TEMP TIME (LST):1815 AVERAGE STATION PRESSURE:28.785 MINIMUM SEA LEVEL PRESSURE:29.52 TIME OF OCCURRENCE:0114 PEAK WIND SPEED (MPH):27  PEAK WIND DIR (DEG):300 PEAK WIND TIME (LST):0806  FASTEST 2MIN SPEED (MPH):20 FASTEST 2MIN DIR (DEG):310 FASTEST 2MIN TIME (LST):0806 AVERAGE WIND SPEED (MPH):11.5 24 HR AVG TEMP (F):25 HEATING DEGREE DAYS:40  COOLING DEGREE DAYS:0   LATEST DAY MAX TEMP (0700-1900 LST):25  LATEST NIGHT MIN TEMP(1900-0800 LST):21 HOURLY INCREMENTAL PRECIPITATION VALUES (IN):.00 0.00 0.00 T    T    T    0.00 0.00 0.00 0.00 0.00 0.00 0.00 0.00 0.00 0.00 0.00 0.00 0.00 0.00 0.00 0.00 0.00 0.00EQDR01     N7GJS072R02     N7GKS075
1234726575949602017010105596+45062-093351SOM  +0265KMIC V030999999999999999999999999999+99999+99999999999ADDAD1002089252599999999UAE102P03P01P00PAH1005001092520495AH2010001892520545AH3015002392515565AH4020002592521025AH5030003392515565AH6045004392515565AI1060005192515565AI2080005892516075AI3100006492516075AI4120008192515565AI5150010292516075AI6180010992516075KB1744N-09785KB2744M-03065KB3744A-06395KC1N9-02881899995KC2M9+00612699995KD1744H13755KD2744C00005KE101P00P31P07PMH109851U10183UMK110362091053U09956260153UREMSOM796PCP MTOT:1.21 PCP GT 24HRS:0.82 DATE(S):25-26 DAYS W/PCP >=.01:9  DAYS W/PCP >=.10:3  DAYS W/ PCP >=.50:1 DAYS W/PCP >=1.00:0 MSDP AMTS W/DATE-TIME TAGS:MIN:5 0.04  25/2049 MIN:10 0.07  25/2054 MIN:15 0.09  25/1556 MIN:20 0.10  25/2102 MIN:30 0.13  25/1556 MIN:45 0.17  25/1556 MIN:60 0.20  25/1556 MIN:80 0.23  25/1607 MIN:100 0.25  25/1607 MIN:120 0.32  25/1556 MIN:150 0.40  25/1607 MIN:180 0.43  25/1607 AVG DLY MIN:14.4  AVG DLY MAX:26.5  AVG MLY TMP:20.5  MIN TMP:-20DATE(S):18 MAX TMP:43  DATE(S):26 DAYS MAX <=32:1 DAYS MAX >=90:0  DAYS MIN <=32:31 DAYS MIN  <=0:7  AVG STP:29.090 LWST SLP:29.39 DATE/TIME:260132 HGST SLP:30.61 DATE/TIME:091047 HDD MTH TOT:1375 DEP NORM:-2553 SEASON(JUL 1-JUN 30):2550 DEP NORM:-25536 CDD MTH TOT:0 DEP NORM:-2553 SEASON(JAN 1-DEC 31):794 DEP NORM:-25536EQDR01  1.217ABP070
0203726575949602017010106537+45062-093351FM-15+0265KMIC V0202205N007252200059N0160935N5-00285-00895100875ADDAA101000095GA1005+999999999GD10991+9999999GF100991999999999999999999MA1100755097615OC101085REMMET10001/01/17 00:53:02 METAR KMIC 010653Z 22014G21KT 10SM CLR M03/M09 A2975 RMK AO2 SLP087 T10281089 TSNO
0192726575949602017010107537+45062-093351FM-15+0265KMIC V0202305N005152200059N0160935N5-00335-00895100945ADDAA101000095GA1005+999999999GD10991+9999999GF100991999999999999999999MA1100815097685REMMET09701/01/17 01:53:02 METAR KMIC 010753Z 23010KT 10SM CLR M03/M09 A2977 RMK AO2 SLP094 T10331089 TSNO
0212726575949602017010108537+45062-093351FM-15+0265KMIC V0202205N004652200059N0160935N5-00335-00895101035ADDAA101000095GA1005+999999999GD10991+9999999GF100991999999999999999999MA1100915097785MD1390179+9999REMMET10301/01/17 02:53:02 METAR KMIC 010853Z 22009KT 10SM CLR M03/M09 A2980 RMK AO2 SLP103 T10331089 53017 TSNO
0192726575949602017010109537+45062-093351FM-15+0265KMIC V0202505N004152200059N0160935N5-00395-00895101095ADDAA101000095GA1005+999999999GD10991+9999999GF100991999999999999999999MA1100955097815REMMET09701/01/17 03:53:02 METAR KMIC 010953Z 25008KT 10SM CLR M04/M09 A2981 RMK AO2 SLP109 T10391089 TSNO
0192726575949602017010110537+45062-093351FM-15+0265KMIC V0202405N003152200059N0160935N5-00445-00895101185ADDAA101000095GA1005+999999999GD10991+9999999GF100991999999999999999999MA1101055097915REMMET09701/01/17 04:53:02 METAR KMIC 011053Z 24006KT 10SM CLR M04/M09 A2984 RMK AO2 SLP118 T10441089 TSNO
0250726575949602017010111537+45062-093351FM-15+0265KMIC V0202605N003152200059N0160935N5-00505-00945101255ADDAA101000095GA1005+999999999GD10991+9999999GF100991999999999999999999KA1060M-00281KA2060N-00501MA1101125097985MD1390209+9999REMMET11501/01/17 05:53:02 METAR KMIC 011153Z 26006KT 10SM CLR M05/M09 A2986 RMK AO2 SLP125 T10501094 11028 21050 53020 TSNO
0146726575949602017010112516+45062-093351FM-16+0265KMIC V0202405N00315006715MN0160935N5-00605-00905999999ADDGA1075+006715999GD13991+0067159MA1101225098085REMMET08801/01/17 06:51:02 SPECI KMIC 011251Z 24006KT 10SM BKN022 M06/M09 A2989 RMK AO2 FIBI (FD)
0217726575949602017010112537+45062-093351FM-15+0265KMIC V0202505N00265006715MN0160935N5-00565-00945101375ADDAA101000095GA1075+006715999GD13991+0067159GE19MSL   +99999+99999GF199999999999006711999999MA1101225098085REMMET10001/01/17 06:53:02 METAR KMIC 011253Z 25005KT 10SM BKN022 M06/M09 A2989 RMK AO2 SLP137 T10561094 (FD)
0217726575949602017010113537+45062-093351FM-15+0265KMIC V0202205N00215006405MN0160935N5-00615-00945101495ADDAA101000095GA1075+006405999GD13991+0064059GE19MSL   +99999+99999GF199999999999006401999999MA1101355098215REMMET10001/01/17 07:53:02 METAR KMIC 011353Z 22004KT 10SM BKN021 M06/M09 A2993 RMK AO2 SLP149 T10611094 (FD)
0218726575949602017010114267+45062-093351FM-16+0265KMIC V0202105N002652200059N0160935N5-00615-00945999999ADDGA1045+006715999GD12991+0067159GE19AGL   +99999+99999GF104995999999006711999999MA1101425098275REMMET09301/01/17 08:26:02 SPECI KMIC 011426Z 21005KT 10SM SCT022 M06/M09 A2995 RMK AO2 T10611094 (FD)EQDD01      0ADE726
0199726575949602017010114347+45062-093351FM-16+0265KMIC V0202105N00265006715MN0160935N5-00615-00945999999ADDGA1075+006715999GD13991+0067159GE19MSL   +99999+99999GF199999999999006711999999MA1101425098275REMMET09301/01/17 08:34:02 SPECI KMIC 011434Z 21005KT 10SM BKN022 M06/M09 A2995 RMK AO2 T10611094 (FD)
0218726575949602017010114417+45062-093351FM-16+0265KMIC V0202105N003152200059N0160935N5-00565-00945999999ADDGA1025+006715999GD11991+0067159GE19AGL   +99999+99999GF102995999999006711999999MA1101465098315REMMET09301/01/17 08:41:02 SPECI KMIC 011441Z 21006KT 10SM FEW022 M06/M09 A2996 RMK AO2 T10561094 (FD)EQDD01      0ADE726
0256726575949602017010114537+45062-093351FM-15+0265KMIC V0202405N002652200059N0160935N5-00565-00895101585ADDAA101000095GA1025+007015999GD11991+0070159GE19AGL   +99999+99999GF102995999999007011999999MA1101465098315MD1190339+9999REMMET10601/01/17 08:53:02 METAR KMIC 011453Z 24005KT 10SM FEW023 M06/M09 A2996 RMK AO2 SLP158 T10561089 51033 (FD)EQDD01      0ADE726
0192726575949602017010115537+45062-093351FM-15+0265KMIC V0202605N002652200059N0160935N5-00395-00835101685ADDAA101000095GA1005+999999999GD10991+9999999GF100991999999999999999999MA1101565098415REMMET09701/01/17 09:53:02 METAR KMIC 011553Z 26005KT 10SM CLR M04/M08 A2999 RMK AO2 SLP168 T10391083 (FD)
0192726575949602017010116537+45062-093351FM-15+0265KMIC V0203205N002152200059N0160935N5-00285-00835101785ADDAA101000095GA1005+999999999GD10991+9999999GF100991999999999999999999MA1101665098515REMMET09701/01/17 10:53:02 METAR KMIC 011653Z 32004KT 10SM CLR M03/M08 A3002 RMK AO2 SLP178 T10281083 (FD)
0199726575949602017010117377+45062-093351FM-16+0265KMIC V0203605N00215007625MN0160935N5-00115-00785999999ADDGA1075+007625999GD13991+0076259GE19MSL   +99999+99999GF199999999999007621999999MA1101635098475REMMET09301/01/17 11:37:02 SPECI KMIC 011737Z 36004KT 10SM BKN025 M01/M08 A3001 RMK AO2 T10111078 (FD)
0275726575949602017010117537+45062-093351FM-15+0265KMIC V0209999V00155007625MN0160935N5-00175-00835101755ADDAA101000095GA1085+007625999GD14991+0076259GE19MSL   +99999+99999GF199999999999007621999999KA1060M-00111KA2060N-00671MA1101635098475MD1090189+9999REMMET11801/01/17 11:53:02 METAR KMIC 011753Z VRB03KT 10SM OVC025 M02/M08 A3001 RMK AO2 SLP175 T10171083 11011 21067 50018 (FD)
0217726575949602017010118537+45062-093351FM-15+0265KMIC V0200205N00265007625MN0160935N5-00175-00835101725ADDAA101000095GA1085+007625999GD14991+0076259GE19MSL   +99999+99999GF199999999999007621999999MA1101595098445REMMET10001/01/17 12:53:02 METAR KMIC 011853Z 02005KT 10SM OVC025 M02/M08 A3000 RMK AO2 SLP172 T10171083 (FD)
0218726575949602017010119277+45062-093351FM-16+0265KMIC V0200205N002652200059N0160935N5-00115-00835999999ADDGA1045+007625999GD12991+0076259GE19AGL   +99999+99999GF104995999999007621999999MA1101595098445REMMET09301/01/17 13:27:02 SPECI KMIC 011927Z 02005KT 10SM SCT025 M01/M08 A3000 RMK AO2 T10111083 (FD)EQDD01      0ADE726
0146726575949602017010119516+45062-093351FM-16+0265KMIC V0200605N00315007625MN0160935N5-00105-00805999999ADDGA1075+007625999GD13991+0076259MA1101595098445REMMET08801/01/17 13:51:02 SPECI KMIC 011951Z 06006KT 10SM BKN025 M01/M08 A3000 RMK AO2 FIBI (FD)
0217726575949602017010119537+45062-093351FM-15+0265KMIC V0200505N00415007625MN0160935N5-00115-00835101715ADDAA101000095GA1075+007625999GD13991+0076259GE19MSL   +99999+99999GF199999999999007621999999MA1101595098445REMMET10001/01/17 13:53:02 METAR KMIC 011953Z 05008KT 10SM BKN025 M01/M08 A3000 RMK AO2 SLP171 T10111083 (FD)
0218726575949602017010120047+45062-093351FM-16+0265KMIC V0200805N002652200059N0160935N5-00115-00835999999ADDGA1045+007625999GD12991+0076259GE19AGL   +99999+99999GF104995999999007621999999MA1101665098515REMMET09301/01/17 14:04:02 SPECI KMIC 012004Z 08005KT 10SM SCT025 M01/M08 A3002 RMK AO2 T10111083 (FD)EQDD01      0ADE726
0256726575949602017010120537+45062-093351FM-15+0265KMIC V0200605N003152200059N0160935N5-00175-00835101805ADDAA101000095GA1025+007925999GD11991+0079259GE19AGL   +99999+99999GF102995999999007921999999MA1101695098545MD1390059+9999REMMET10601/01/17 14:53:02 METAR KMIC 012053Z 06006KT 10SM FEW026 M02/M08 A3003 RMK AO2 SLP180 T10171083 53005 (FD)EQDD01      0ADE726
0192726575949602017010121537+45062-093351FM-15+0265KMIC V0200705N003152200059N0160935N5-00175-00895101855ADDAA101000095GA1005+999999999GD10991+9999999GF100991999999999999999999MA1101735098575REMMET09701/01/17 15:53:02 METAR KMIC 012153Z 07006KT 10SM CLR M02/M09 A3004 RMK AO2 SLP185 T10171089 (FD)
0192726575949602017010122537+45062-093351FM-15+0265KMIC V0200805N002152200059N0160935N5-00225-00895101935ADDAA101000095GA1005+999999999GD10991+9999999GF100991999999999999999999MA1101795098645REMMET09701/01/17 16:53:02 METAR KMIC 012253Z 08004KT 10SM CLR M02/M09 A3006 RMK AO2 SLP193 T10221089 (FD)
0250726575949602017010123537+45062-093351FM-15+0265KMIC V0200605N002152200059N0160935N5-00285-00895102005ADDAA101000095GA1005+999999999GD10991+9999999GF100991999999999999999999KA1060M-00111KA2060N-00281MA1101865098705MD1390179+9999REMMET11501/01/17 17:53:02 METAR KMIC 012353Z 06004KT 10SM CLR M03/M09 A3008 RMK AO2 SLP200 T10281089 11011 21028 53017 (FD)
0231726575949602017010200537+45062-093351FM-15+0265KMIC V0200705N002652200059N0160935N5-00225-00835102025ADDAA101000095GA1025+036585999GD11991+0365859GE19AGL   +99999+99999GF102995999999036581999999MA1101905098745REMMET09501/01/17 18:53:01 METAR KMIC 020053Z 07005KT 10SM FEW120 M02/M08 A3009 RMK AO2 SLP202 T10221083EQDD01      0ADE726
0231726575949602017010201537+45062-093351FM-15+0265KMIC V0200705N002152200059N0160935N5-00225-00835102045ADDAA101000095GA1025+036585999GD11991+0365859GE19AGL   +99999+99999GF102995999999036581999999MA1101905098745REMMET09501/01/17 19:53:01 METAR KMIC 020153Z 07004KT 10SM FEW120 M02/M08 A3009 RMK AO2 SLP204 T10221083EQDD01      0ADE726
0270726575949602017010202537+45062-093351FM-15+0265KMIC V0200705N00365027435MN0160935N5-00285-00835102015ADDAA101000095GA1075+027435999GA2085+033535999GD13991+0274359GD24991+0335359GE19MSL   +99999+99999GF199999999999027431999999MA1101865098705MD1090019+9999REMMET10801/01/17 20:53:02 METAR KMIC 020253Z 07007KT 10SM BKN090 OVC110 M03/M08 A3008 RMK AO2 SLP201 T10281083 50001
0212726575949602017010203537+45062-093351FM-15+0265KMIC V0200905N00315027435MN0160935N5-00225-00835101995ADDAA101000095GA1085+027435999GD14991+0274359GE19MSL   +99999+99999GF199999999999027431999999MA1101865098705REMMET09501/01/17 21:53:02 METAR KMIC 020353Z 09006KT 10SM OVC090 M02/M08 A3008 RMK AO2 SLP199 T10221083
0212726575949602017010204537+45062-093351FM-15+0265KMIC V0201005N00265019815MN0160935N5-00225-00785102015ADDAA101000095GA1085+019815999GD14991+0198159GE19MSL   +99999+99999GF199999999999019811999999MA1101905098745REMMET09501/01/17 22:53:02 METAR KMIC 020453Z 10005KT 10SM OVC065 M02/M08 A3009 RMK AO2 SLP201 T10221078
0344726575949602017010205537+45062-093351FM-15+0265KMIC V0200705N00215021345MN0160935N5-00225-00785102025ADDAA101000095GA1075+021345999GA2085+024385999GD13991+0213459GD24991+0243859GE19MSL   +99999+99999GF199999999999021341999999KA1060M-00221KA2060N-00281KA3240M-00111KA4240N-00671MA1101905098745MD1390039+9999REMMET13001/01/17 23:53:02 METAR KMIC 020553Z 07004KT 10SM BKN070 OVC080 M02/M08 A3009 RMK AO2 SLP202 T10221078 11022 21028 410111067 53003
0886726575949602017010205596+45062-093351SOD  +0265KMIC V020999999999999999999999999999+99999+99999999999ADDAA124000095KA1240M-00105KA2240N-00665MG1098464100814OE11240111822000465OE22240089422000335OE33240030899999995REMSOD73024 HR PRECIPITATION (IN):0.00  24 HR MAX TEMP (F):30 24 HR MAX TEMP TIME (LST):1433 24 HR MIN TEMP (F):20 24 HR MIN TEMP TIME (LST):0804 AVERAGE STATION PRESSURE:29.075 MINIMUM SEA LEVEL PRESSURE:29.77 TIME OF OCCURRENCE:0019 PEAK WIND SPEED (MPH):25  PEAK WIND DIR (DEG):220 PEAK WIND TIME (LST):0046  FASTEST 2MIN SPEED (MPH):20 FASTEST 2MIN DIR (DEG):220 FASTEST 2MIN TIME (LST):0033 AVERAGE WIND SPEED (MPH):6.9  24 HR AVG TEMP (F):25 HEATING DEGREE DAYS:40  COOLING DEGREE DAYS:0   LATEST DAY MAX TEMP (0700-1900 LST):30  LATEST NIGHT MIN TEMP(1900-0800 LST):20 HOURLY INCREMENTAL PRECIPITATION VALUES (IN):.00 0.00 0.00 0.00 0.00 0.00 0.00 0.00 0.00 0.00 0.00 0.00 0.00 0.00 0.00 0.00 0.00 0.00 0.00 0.00 0.00 0.00 0.00 0.00EQDR01     N7GJS072R02     N7GKS075
0212726575949602017010206537+45062-093351FM-15+0265KMIC V0200605N00315021345MN0160935N5-00225-00785102015ADDAA101000095GA1085+021345999GD14991+0213459GE19MSL   +99999+99999GF199999999999021341999999MA1101905098745REMMET09501/02/17 00:53:02 METAR KMIC 020653Z 06006KT 10SM OVC070 M02/M08 A3009 RMK AO2 SLP201 T10221078
0282726575949602017010207537+45062-093351FM-15+0265KMIC V0200905N00315024385MN0096565N5-00285-00725101975ADDAA101000025AU110030015AW1715GA1045+012195999GA2085+024385999GD12991+0121959GD24991+0243859GE19MSL   +99999+99999GF199999999999012191999999MA1101865098705REMMET11701/02/17 01:53:02 METAR KMIC 020753Z 09006KT 6SM -SN SCT040 OVC080 M03/M07 A3008 RMK AO2 SNB40 SLP197 P0000 T10281072
0282726575949602017010208537+45062-093351FM-15+0265KMIC V0200705N00315033535MN0160935N5-00285-00725102025ADDAA101000095AA203000021GA1085+033535999GD14991+0335359GE19MSL   +99999+99999GF199999999999033531999999MA1101905098745MD1590009+9999REMMET12101/02/17 02:53:02 METAR KMIC 020853Z 07006KT 10SM OVC110 M03/M07 A3009 RMK AO2 SNE0755 SLP202 P0000 60000 T10281072 55000EQDQ01  00008PRCP03
0212726575949602017010209537+45062-093351FM-15+0265KMIC V0200805N00265033535MN0160935N5-00285-00675101995ADDAA101000095GA1085+033535999GD14991+0335359GE19MSL   +99999+99999GF199999999999033531999999MA1101865098705REMMET09501/02/17 03:53:02 METAR KMIC 020953Z 08005KT 10SM OVC110 M03/M07 A3008 RMK AO2 SLP199 T10281067
0212726575949602017010210537+45062-093351FM-15+0265KMIC V0200905N00265030485MN0160935N5-00225-00725101985ADDAA101000095GA1085+030485999GD14991+0304859GE19MSL   +99999+99999GF199999999999030481999999MA1101865098705REMMET09501/02/17 04:53:02 METAR KMIC 021053Z 09005KT 10SM OVC100 M02/M07 A3008 RMK AO2 SLP198 T10221072
0287726575949602017010211537+45062-093351FM-15+0265KMIC V0201005N00365025915MN0160935N5-00225-00725101915ADDAA101000095AA206000021GA1085+025915999GD14991+0259159GE19MSL   +99999+99999GF199999999999025911999999KA1060M-00221KA2060N-00281MA1101795098645MD1890109+9999REMMET11901/02/17 05:53:02 METAR KMIC 021153Z 10007KT 10SM OVC085 M02/M07 A3006 RMK AO2 SLP191 60000 T10221072 11022 21028 58010
0217726575949602017010212537+45062-093351FM-15+0265KMIC V0200905N00315022865MN0160935N5-00225-00725101905ADDAA101000095GA1085+022865999GD14991+0228659GE19MSL   +99999+99999GF199999999999022861999999MA1101795098645REMMET10001/02/17 06:53:02 METAR KMIC 021253Z 09006KT 10SM OVC075 M02/M07 A3006 RMK AO2 SLP190 T10221072 (FD)
0217726575949602017010213537+45062-093351FM-15+0265KMIC V0200905N00415019815MN0160935N5-00175-00725101865ADDAA101000095GA1085+019815999GD14991+0198159GE19MSL   +99999+99999GF199999999999019811999999MA1101765098605REMMET10001/02/17 07:53:02 METAR KMIC 021353Z 09008KT 10SM OVC065 M02/M07 A3005 RMK AO2 SLP186 T10171072 (FD)
0313726575949602017010214537+45062-093351FM-15+0265KMIC V0200905N00365021345MN0160935N5-00175-00725101865ADDAA101000095GA1045+015245999GA2075+021345999GA3085+024385999GD12991+0152459GD23991+0213459GD34991+0243859GE19MSL   +99999+99999GF199999999999015241999999MA1101765098605MD1690059+9999REMMET12001/02/17 08:53:02 METAR KMIC 021453Z 09007KT 10SM SCT050 BKN070 OVC080 M02/M07 A3005 RMK AO2 SLP186 T10171072 56005 (FD)
0217726575949602017010215537+45062-093351FM-15+0265KMIC V0201005N00365013115MN0160935N5-00115-00675101885ADDAA101000095GA1085+013115999GD14991+0131159GE19MSL   +99999+99999GF199999999999013111999999MA1101765098605REMMET10001/02/17 09:53:02 METAR KMIC 021553Z 10007KT 10SM OVC043 M01/M07 A3005 RMK AO2 SLP188 T10111067 (FD)
0217726575949602017010216537+45062-093351FM-15+0265KMIC V0200905N00415012505MN0160935N5-00065-00675101875ADDAA101000095GA1085+012505999GD14991+0125059GE19MSL   +99999+99999GF199999999999012501999999MA1101765098605REMMET10001/02/17 10:53:02 METAR KMIC 021653Z 09008KT 10SM OVC041 M01/M07 A3005 RMK AO2 SLP187 T10061067 (FD)
0312726575949602017010217537+45062-093351FM-15+0265KMIC V0201005N00315016765MN0144845N5-00065-00615101745ADDAA101000095GA1025+013725999GA2085+016765999GD11991+0137259GD24991+0167659GE19MSL   +99999+99999GF199999999999013721999999KA1060M-00061KA2060N-00221MA1101635098475MD1890119+9999REMMET12401/02/17 11:53:02 METAR KMIC 021753Z 10006KT 9SM FEW045 OVC055 M01/M06 A3001 RMK AO2 SLP174 T10061061 11006 21022 58011 (FD)
0280726575949602017010218537+45062-093351FM-15+0265KMIC V0200705N00365014945MN0080475N5-00065-00505101665ADDAA101000095AU100007015AW1051GA1025+007625999GA2085+014945999GD11991+0076259GD24991+0149459GE19MSL   +99999+99999GF199999999999007621999999MA1101565098415MW1055REMMET10901/02/17 12:53:02 METAR KMIC 021853Z 07007KT 5SM HZ FEW025 OVC049 M01/M05 A2999 RMK AO2 SLP166 T10061050 (FD)
0236726575949602017010219247+45062-093351FM-16+0265KMIC V0200805N00365006105MN0128755N5-00065-00445999999ADDGA1075+006105999GA2085+014025999GD13991+0061059GD24991+0140259GE19MSL   +99999+99999GF199999999999006101999999MA1101525098375REMMET09901/02/17 13:24:02 SPECI KMIC 021924Z 08007KT 8SM BKN020 OVC046 M01/M04 A2998 RMK AO2 T10061044 (FD)
0254726575949602017010219537+45062-093351FM-15+0265KMIC V0200705N00415005495MN0112655N5-00065-00445101585ADDAA101000095GA1075+005495999GA2085+011285999GD13991+0054959GD24991+0112859GE19MSL   +99999+99999GF199999999999005491999999MA1101465098315REMMET10601/02/17 13:53:02 METAR KMIC 021953Z 07008KT 7SM BKN018 OVC037 M01/M04 A2996 RMK AO2 SLP158 T10061044 (FD)
0262726575949602017010220067+45062-093351FM-16+0265KMIC V0200705N00415010675MN0080475N5-00065-00445999999ADDAU100007015AW1051GA1045+004885999GA2085+010675999GD12991+0048859GD24991+0106759GE19MSL   +99999+99999GF199999999999004881999999MA1101465098315MW1055REMMET10201/02/17 14:06:02 SPECI KMIC 022006Z 07008KT 5SM HZ SCT016 OVC035 M01/M04 A2996 RMK AO2 T10061044 (FD)
0262726575949602017010220137+45062-093351FM-16+0265KMIC V0200705N00415004885MN0064375N5-00065-00395999999ADDAU100007015AW1051GA1075+004885999GA2085+010675999GD13991+0048859GD24991+0106759GE19MSL   +99999+99999GF199999999999004881999999MA1101465098315MW1055REMMET10201/02/17 14:13:02 SPECI KMIC 022013Z 07008KT 4SM HZ BKN016 OVC035 M01/M04 A2996 RMK AO2 T10061039 (FD)
0329726575949602017010220537+45062-093351FM-15+0265KMIC V0200805N00365004275MN0064375N5-00065-00395101545ADDAA101000025AA203000021AU100007015AW1051GA1085+004275999GD14991+0042759GE19MSL   +99999+99999GF199999999999004271999999MA1101425098275MD1690209+9999MW1055REMMET12901/02/17 14:53:02 METAR KMIC 022053Z 08007KT 4SM HZ OVC014 M01/M04 A2995 RMK AO2 UPB26E38 SLP154 P0000 60000 T10061039 56020 (FD)EQDQ01  00002PRCP03Q02  00008PRCP03
0224726575949602017010221237+45062-093351FM-16+0265KMIC V0200905N00365007625MN0048285N5-00065-00335999999ADDAU100007015AW1051GA1085+007625999GD14991+0076259GE19MSL   +99999+99999GF199999999999007621999999MA1101425098275MW1055REMMET09501/02/17 15:23:02 SPECI KMIC 022123Z 09007KT 3SM HZ OVC025 M01/M03 A2995 RMK AO2 T10061033 (FD)
0333726575949602017010221537+45062-093351FM-15+0265KMIC V0201005N00265005495MN0064375N5-00065-00335101555ADDAA101000095AU100007015AW1051GA1025+003055999GA2075+005495999GA3085+007325999GD11991+0030559GD23991+0054959GD34991+0073259GE19MSL   +99999+99999GF199999999999003051999999MA1101425098275MW1055WA1900099REMMET12201/02/17 15:53:02 METAR KMIC 022153Z 10005KT 4SM HZ FEW010 BKN018 OVC024 M01/M03 A2995 RMK AO2 SLP155 I1000 T10061033 TSNO
0313726575949602017010222107+45062-093351FM-16+0265KMIC V0200905N00365005495MN0040235N5-00065-00285999999ADDAU100001015AW1105GA1025+003355999GA2075+005495999GA3085+010365999GD11991+0033559GD23991+0054959GD34991+0103659GE19MSL   +99999+99999GF199999999999003351999999MA1101425098275WA1900099REMMET11901/02/17 16:10:02 SPECI KMIC 022210Z 09007KT 2 1/2SM BR FEW011 BKN018 OVC034 M01/M03 A2995 RMK AO2 I1000 T10061028 (RH)
0313726575949602017010222427+45062-093351FM-16+0265KMIC V0200705N00265004575MN0040235N5-00065-00285999999ADDAU100001015AW1105GA1045+002745999GA2075+004575999GA3085+006405999GD12991+0027459GD23991+0045759GD34991+0064059GE19MSL   +99999+99999GF199999999999002741999999MA1101425098275WA1900199REMMET11901/02/17 16:42:02 SPECI KMIC 022242Z 07005KT 2 1/2SM BR SCT009 BKN015 OVC021 M01/M03 A2995 RMK AO2 I1001 T10061028 (RH)
0309726575949602017010222467+45062-093351FM-16+0265KMIC V0200505N00215003965MN0048285N5-00065-00285999999ADDAU100001015AW1105GA1045+002745999GA2075+003965999GA3085+006405999GD12991+0027459GD23991+0039659GD34991+0064059GE19MSL   +99999+99999GF199999999999002741999999MA1101425098275WA1900199REMMET11501/02/17 16:46:02 SPECI KMIC 022246Z 05004KT 3SM BR SCT009 BKN013 OVC021 M01/M03 A2995 RMK AO2 I1001 T10061028 (RH)
0209726575949602017010222516+45062-093351FM-16+0265KMIC V0200605N00215002745MN0048285N5-00105-00305999999ADDAU100001015AW1105GA1075+002745999GA2085+005795999GD13991+0027459GD24991+0057959MA1101425098275REMMET10301/02/17 16:51:02 SPECI KMIC 022251Z 06004KT 3SM BR BKN009 OVC019 M01/M03 A2995 RMK AO2 I1001 FIBI (RH)
0289726575949602017010222537+45062-093351FM-15+0265KMIC V0200605N00215002745MN0048285N5-00065-00285101535ADDAA101000095AU100001015AW1105GA1075+002745999GA2085+005795999GD13991+0027459GD24991+0057959GE19MSL   +99999+99999GF199999999999002741999999MA1101425098275WA1900199REMMET11501/02/17 16:53:02 METAR KMIC 022253Z 06004KT 3SM BR BKN009 OVC019 M01/M03 A2995 RMK AO2 SLP153 I1001 T10061028 (RH)
0234726575949602017010223357+45062-093351FM-16+0265KMIC V0200105N00265002135MN0040235N5-00065-00225999999ADDAU100001015AW1105GA1085+002135999GD14991+0021351GE19MSL   +99999+99999GF199999999999002131999999MA1101425098275REMMET11101/02/17 17:35:02 SPECI KMIC 022335Z 01005KT 2 1/2SM BR OVC007 M01/M02 A2995 RMK AO2 CIG 005V009 T10061022 (RH)
0230726575949602017010223467+45062-093351FM-16+0265KMIC V0200305N00215002135MN0048285N5-00065-00225999999ADDAU100001015AW1105GA1085+002135999GD14991+0021351GE19MSL   +99999+99999GF199999999999002131999999MA1101425098275REMMET10701/02/17 17:46:02 SPECI KMIC 022346Z 03004KT 3SM BR OVC007 M01/M02 A2995 RMK AO2 CIG 005V009 T10061022 (RH)
0338726575949602017010223537+45062-093351FM-15+0265KMIC V0200505N00215002135MN0048285N5-00065-00225101535ADDAA101000095AA206000021AU100001015AW1105GA1085+002135999GD14991+0021351GE19MSL   +99999+99999GF199999999999002131999999KA1060M-00061KA2060N-00061MA1101425098275MD1890019+9999WA1900199REMMET14401/02/17 17:53:02 METAR KMIC 022353Z 05004KT 3SM BR OVC007 M01/M02 A2995 RMK AO2 CIG 005V010 SLP153 60000 I6001 T10061022 11006 21006 58001 (RH)
0229726575949602017010300107+45062-093351FM-16+0265KMIC V0200605N00265002445MN0040235N5-00065-00225999999ADDAU100001015AW1105GA1085+002445999GD14991+0024451GE19MSL   +99999+99999GF199999999999002441999999MA1101425098275REMMET10601/02/17 18:10:01 SPECI KMIC 030010Z 06005KT 2 1/2SM BR OVC008 M01/M02 A2995 RMK AO2 CIG 005V011 T10061022
0244726575949602017010300277+45062-093351FM-16+0265KMIC V0200405N00215003055MN0040235N5-00065-00225999999ADDAU100001015AW1105GA1085+003055999GD14991+0030551GE19MSL   +99999+99999GF199999999999003051999999MA1101465098315WA1900099REMMET11201/02/17 18:27:01 SPECI KMIC 030027Z 04004KT 2 1/2SM BR OVC010 M01/M02 A2996 RMK AO2 CIG 005V011 I1000 T10061022
0282726575949602017010300387+45062-093351FM-16+0265KMIC V0200505N00265001835MN0040235N5-00065-00225999999ADDAU100001015AW1105GA1075+001835999GA2085+003055999GD13991+0018351GD24991+0030559GE19MSL   +99999+99999GF199999999999001831999999MA1101465098315WA1900099REMMET11901/02/17 18:38:01 SPECI KMIC 030038Z 05005KT 2 1/2SM BR BKN006 OVC010 M01/M02 A2996 RMK AO2 CIG 005V009 I1000 T10061022
0262726575949602017010300537+45062-093351FM-15+0265KMIC V0200605N00155002745MN0028165N5-00065-00225101565ADDAA101000095AU100001015AW1105GA1085+002745999GD14991+0027451GE19MSL   +99999+99999GF199999999999002741999999MA1101465098315WA1900199REMMET11901/02/17 18:53:01 METAR KMIC 030053Z 06003KT 1 3/4SM BR OVC009 M01/M02 A2996 RMK AO2 CIG 004V012 SLP156 I1001 T10061022
0171726575949602017010301516+45062-093351FM-16+0265KMIC V0200705N00215001525MN0032195N5-00105-00205999999ADDAU100001015AW1105GA1085+001525999GD14991+0015259MA1101425098275REMMET09601/02/17 19:51:03 SPECI KMIC 030151Z 07004KT 2SM BR OVC005 M01/M02 A2995 RMK AO2 I1001 FIBI (RH)
0246726575949602017010301537+45062-093351FM-15+0265KMIC V0200605N00265001525MN0032195N5-00065-00225101525ADDAA101000095AU100001015AW1105GA1085+001525999GD14991+0015259GE19MSL   +99999+99999GF199999999999001521999999MA1101425098275WA1900199REMMET10301/02/17 19:53:01 METAR KMIC 030153Z 06005KT 2SM BR OVC005 M01/M02 A2995 RMK AO2 SLP152 I1001 T10061022
0272726575949602017010302537+45062-093351FM-15+0265KMIC V0200805N00215001525MN0032195N5-00065-00225101455ADDAA101000095AU100001015AW1105GA1085+001525999GD14991+0015259GE19MSL   +99999+99999GF199999999999001521999999MA1101325098185MD1890089+9999WA1900199REMMET11501/02/17 20:53:02 METAR KMIC 030253Z 08004KT 2SM BR OVC005 M01/M02 A2992 RMK AO2 SLP145 I1001 I3003 T10061022 58008
0236726575949602017010303447+45062-093351FM-16+0265KMIC V0209999C00005001525MN0028165N5+00005-00175999999ADDAU100001015AW1105GA1085+001525999GD14991+0015259GE19MSL   +99999+99999GF199999999999001521999999MA1101355098215WA1900199REMMET10401/02/17 21:44:02 SPECI KMIC 030344Z 00000KT 1 3/4SM BR OVC005 00/M02 A2993 RMK AO2 I1001 T00001017 TSNO
0254726575949602017010303537+45062-093351FM-15+0265KMIC V0209999C00005001525MN0028165N5+00005-00175101455ADDAA101000095AU100001015AW1105GA1085+001525999GD14991+0015259GE19MSL   +99999+99999GF199999999999001521999999MA1101355098215WA1900199REMMET11101/02/17 21:53:02 METAR KMIC 030353Z 00000KT 1 3/4SM BR OVC005 00/M02 A2993 RMK AO2 SLP145 I1001 T00001017 TSNO
0236726575949602017010304167+45062-093351FM-16+0265KMIC V0209999C00005001225MN0028165N5+00005-00225999999ADDAU100001015AW1105GA1085+001225999GD14991+0012259GE19MSL   +99999+99999GF199999999999001221999999MA1101355098215WA1900099REMMET10401/02/17 22:16:02 SPECI KMIC 030416Z 00000KT 1 3/4SM BR OVC004 00/M02 A2993 RMK AO2 I1000 T00001022 TSNO
0238726575949602017010304517+45062-093351FM-16+0265KMIC V0209999C00005001525MN0024145N5+00005-00205999999ADDAU100001015AW1105GA1085+001525999GD14991+0015251GE19MSL   +99999+99999GF199999999999001521999999MA1101325098185WA1900199REMMET10601/02/17 22:51:02 SPECI KMIC 030451Z 00000KT 1 1/2SM BR OVC005 00/M02 A2992 RMK AO2 CIG 004V008 I1001 TSNO
0254726575949602017010304537+45062-093351FM-15+0265KMIC V0200705N00155001525MN0024145N5+00005-00175101435ADDAA101000095AU100001015AW1105GA1085+001525999GD14991+0015259GE19MSL   +99999+99999GF199999999999001521999999MA1101325098185WA1900199REMMET11101/02/17 22:53:02 METAR KMIC 030453Z 07003KT 1 1/2SM BR OVC005 00/M02 A2992 RMK AO2 SLP143 I1001 T00001017 TSNO
0236726575949602017010305207+45062-093351FM-16+0265KMIC V0209999C00005000915MN0028165N5+00005-00175999999ADDAU100001015AW1105GA1085+000915999GD14991+0009159GE19MSL   +99999+99999GF199999999999000911999999MA1101395098245WA1900099REMMET10401/02/17 23:20:02 SPECI KMIC 030520Z 00000KT 1 3/4SM BR OVC003 00/M02 A2994 RMK AO2 I1000 T00001017 TSNO
0354726575949602017010305537+45062-093351FM-15+0265KMIC V0209999C00005001225MN0020125N5+00005-00175101445ADDAA101000095AU100001015AW1105GA1085+001225999GD14991+0012259GE19MSL   +99999+99999GF199999999999001221999999KA1060M+00001KA2060N-00061KA3240M+00001KA4240N-00281MA1101325098185MD1590019+9999WA1900299REMMET14501/02/17 23:53:02 METAR KMIC 030553Z 00000KT 1 1/4SM BR OVC004 00/M02 A2992 RMK AO2 SLP144 I1000 I6005 T00001017 10000 21006 400001028 55001 TSNO
0922726575949602017010305596+45062-093351SOD  +0265KMIC V020999999999999999999999999999+99999+99999999999ADDAA124000025AT1AU18SN  5AT2AU13BR  5AT3AU08HZ  5KA1240M+00005KA2240N-00275MG1098394101424OE11240071508015325OE22240053609015285OE33240027399999995REMSOD73024 HR PRECIPITATION (IN):T     24 HR MAX TEMP (F):32 24 HR MAX TEMP TIME (LST):2359 24 HR MIN TEMP (F):27 24 HR MIN TEMP TIME (LST):0422 AVERAGE STATION PRESSURE:29.055 MINIMUM SEA LEVEL PRESSURE:29.95 TIME OF OCCURRENCE:2359 PEAK WIND SPEED (MPH):16  PEAK WIND DIR (DEG):80  PEAK WIND TIME (LST):1532  FASTEST 2MIN SPEED (MPH):12 FASTEST 2MIN DIR (DEG):90  FASTEST 2MIN TIME (LST):1528 AVERAGE WIND SPEED (MPH):6.1  24 HR AVG TEMP (F):30 HEATING DEGREE DAYS:35  COOLING DEGREE DAYS:0   LATEST DAY MAX TEMP (0700-1900 LST):31  LATEST NIGHT MIN TEMP(1900-0800 LST):27 HOURLY INCREMENTAL PRECIPITATION VALUES (IN):.00 T    0.00 0.00 0.00 0.00 0.00 0.00 0.00 0.00 0.00 0.00 0.00 0.00 T    0.00 0.00 0.00 0.00 0.00 0.00 0.00 0.00 0.00EQDR01     N7GJS072R02     N7GKS075
0254726575949602017010306537+45062-093351FM-15+0265KMIC V0209999C00005000915MN0024145N5+00005-00175101425ADDAA101000095AU100001015AW1105GA1085+000915999GD14991+0009159GE19MSL   +99999+99999GF199999999999000911999999MA1101325098185WA1900199REMMET11101/03/17 00:53:02 METAR KMIC 030653Z 00000KT 1 1/2SM BR OVC003 00/M02 A2992 RMK AO2 SLP142 I1001 T00001017 TSNO
0217726575949602017010307407+45062-093351FM-16+0265KMIC V0202705N00215001225MN0032195N5+00005-00175999999ADDAU100001015AW1105GA1085+001225999GD14991+0012259GE19MSL   +99999+99999GF199999999999001221999999MA1101395098245REMMET09401/03/17 01:40:02 SPECI KMIC 030740Z 27004KT 2SM BR OVC004 00/M02 A2994 RMK AO2 T00001017 TSNO
0235726575949602017010307537+45062-093351FM-15+0265KMIC V0202805N00215001225MN0032195N5+00005-00175101485ADDAA101000095AU100001015AW1105GA1085+001225999GD14991+0012259GE19MSL   +99999+99999GF199999999999001221999999MA1101395098245REMMET10101/03/17 01:53:02 METAR KMIC 030753Z 28004KT 2SM BR OVC004 00/M02 A2994 RMK AO2 SLP148 T00001017 TSNO
0221726575949602017010308077+45062-093351FM-16+0265KMIC V0202905N00215000915MN0028165N5+00005-00175999999ADDAU100001015AW1105GA1085+000915999GD14991+0009159GE19MSL   +99999+99999GF199999999999000911999999MA1101355098215REMMET09801/03/17 02:07:02 SPECI KMIC 030807Z 29004KT 1 3/4SM BR OVC003 00/M02 A2993 RMK AO2 T00001017 TSNO
0208726575949602017010308487+45062-093351FM-16+0265KMIC V0202805N00265000915MN0032195N5-00105-00205999999ADDAU100001015AW1105GA1085+000915999GD14991+0009159GE19MSL   +99999+99999GF199999999999000911999999MA1101325098185REMMET08501/03/17 02:48:02 SPECI KMIC 030848Z 28005KT 2SM BR OVC003 M01/M02 A2992 RMK AO2 TSNO
0283726575949602017010308537+45062-093351FM-15+0265KMIC V0202905N00315000915MN0032195N5-00065-00175101435ADDAA101000095AU100001015AW1105GA1085+000915999GD14991+0009151GE19MSL   +99999+99999GF199999999999000911999999MA1101325098185MD1190019+9999WA1900199REMMET12601/03/17 02:53:02 METAR KMIC 030853Z 29006KT 2SM BR OVC003 M01/M02 A2992 RMK AO2 CIG 002V007 SLP143 I3001 T10061017 51001 TSNO
0218726575949602017010309087+45062-093351FM-16+0265KMIC V0202705N00315001225MN0048285N5-00065-00175999999ADDAU100001015AW1105GA1085+001225999GD14991+0012259GE19MSL   +99999+99999GF199999999999001221999999MA1101325098185REMMET09501/03/17 03:08:02 SPECI KMIC 030908Z 27006KT 3SM BR OVC004 M01/M02 A2992 RMK AO2 T10061017 TSNO
0230726575949602017010309367+45062-093351FM-16+0265KMIC V0202905N00415001835MN0080475N5-00065-00225999999ADDAU100001015AW1105GA1085+001835999GD14991+0018351GE19MSL   +99999+99999GF199999999999001831999999MA1101295098145REMMET10701/03/17 03:36:02 SPECI KMIC 030936Z 29008KT 5SM BR OVC006 M01/M02 A2991 RMK AO2 CIG 003V010 T10061022 TSNO
0248726575949602017010309537+45062-093351FM-15+0265KMIC V0202905N00575001835MN0080475N5-00065-00225101425ADDAA101000095AU100001015AW1105GA1085+001835999GD14991+0018351GE19MSL   +99999+99999GF199999999999001831999999MA1101325098185REMMET11401/03/17 03:53:02 METAR KMIC 030953Z 29011KT 5SM BR OVC006 M01/M02 A2992 RMK AO2 CIG 006V012 SLP142 T10061022 TSNO
0210726575949602017010310317+45062-093351FM-16+0265KMIC V0202805N00465003055MN0112655N5-00065-00335999999ADDGA1085+003055999GD14991+0030551GE19MSL   +99999+99999GF199999999999003051999999MA1101255098115REMMET10401/03/17 04:31:02 SPECI KMIC 031031Z 28009KT 7SM OVC010 M01/M03 A2990 RMK AO2 CIG 007V013 T10061033 TSNO
0303726575949602017010310537+45062-093351FM-15+0265KMIC V0202805N00675003665MN0128755N5-00175-00445101395ADDAA101000095GA1075+003665999GA2075+005495999GA3085+007325999GD13991+0036659GD23991+0054959GD34991+0073259GE19MSL   +99999+99999GF199999999999003661999999MA1101295098145OC101135REMMET11601/03/17 04:53:02 METAR KMIC 031053Z 28013G22KT 8SM BKN012 BKN018 OVC024 M02/M04 A2991 RMK AO2 SLP139 T10171044 TSNO
0327726575949602017010311537+45062-093351FM-15+0265KMIC V0202905N00725004275MN0144845N5-00225-00615101515ADDAA101000095GA1075+004275999GA2085+007325999GD13991+0042759GD24991+0073259GE19MSL   +99999+99999GF199999999999004271999999KA1060M+00001KA2060N-00221MA1101395098245MD1390079+9999WA1900199REMMET13001/03/17 05:53:02 METAR KMIC 031153Z 29014KT 9SM BKN014 OVC024 M02/M06 A2994 RMK AO2 SLP151 I6001 T10221061 10000 21022 53007 TSNO
0228726575949602017010312537+45062-093351FM-15+0265KMIC V0202905N00675003355MN0160935N5-00565-00835101675ADDAA101000095GA1085+003355999GD14991+0033559GE19MSL   +99999+99999GF199999999999003351999999MA1101565098415OC101185REMMET10301/03/17 06:53:02 METAR KMIC 031253Z 29013G23KT 10SM OVC011 M06/M08 A2999 RMK AO2 SLP167 T10561083 (FD)
0228726575949602017010313537+45062-093351FM-15+0265KMIC V0202905N00935003665MN0160935N5-00725-01065101715ADDAA101000095GA1085+003665999GD14991+0036659GE19MSL   +99999+99999GF199999999999003661999999MA1101595098445OC101135REMMET10301/03/17 07:53:02 METAR KMIC 031353Z 29018G22KT 10SM OVC012 M07/M11 A3000 RMK AO2 SLP171 T10721106 (FD)
0228726575949602017010314417+45062-093351FM-16+0265KMIC V0202805N00885004575MN0160935N5-00945-01335999999ADDGA1085+004575999GD14991+0045759GE19MSL   +99999+99999GF199999999999004571999999MA1101635098475OC101345REMMET11401/03/17 08:41:02 SPECI KMIC 031441Z 28017G26KT 10SM OVC015 M09/M13 A3001 RMK AO2 PK WND 28026/1441 T10941133 (FD)
0266726575949602017010314537+45062-093351FM-15+0265KMIC V0202805N00775004575MN0160935N5-01005-01395101795ADDAA101000095GA1075+004575999GD13991+0045759GE19MSL   +99999+99999GF199999999999004571999999MA1101665098515MD1190249+9999OC101185REMMET12701/03/17 08:53:02 METAR KMIC 031453Z 28015G23KT 10SM BKN015 M10/M14 A3002 RMK AO2 PK WND 28026/1441 SLP179 T11001139 51024 (FD)
0229726575949602017010315097+45062-093351FM-16+0265KMIC V0202905N008852200059N0160935N5-01065-01445999999ADDGA1045+004885999GD12991+0048859GE19AGL   +99999+99999GF104995999999004881999999MA1101665098515OC101295REMMET09601/03/17 09:09:02 SPECI KMIC 031509Z 29017G25KT 10SM SCT016 M11/M14 A3002 RMK AO2 T11061144 (FD)EQDD01      0ADE726
0246726575949602017010315537+45062-093351FM-15+0265KMIC V0202905N00985005185MN0160935N5-01115-01565101895ADDAA101000095GA1075+005185999GD13991+0051859GE19MSL   +99999+99999GF199999999999005181999999MA1101765098605OC101295REMMET12101/03/17 09:53:02 METAR KMIC 031553Z 29019G25KT 10SM BKN017 M11/M16 A3005 RMK AO2 PK WND 30028/1542 SLP189 T11111156 (FD)
0246726575949602017010316537+45062-093351FM-15+0265KMIC V0202905N00935004575MN0160935N5-01115-01565101955ADDAA101000095GA1075+004575999GD13991+0045759GE19MSL   +99999+99999GF199999999999004571999999MA1101835098675OC101245REMMET12101/03/17 10:53:02 METAR KMIC 031653Z 29018G24KT 10SM BKN015 M11/M16 A3007 RMK AO2 PK WND 31026/1639 SLP195 T11111156 (FD)
0275726575949602017010317537+45062-093351FM-15+0265KMIC V0202705N00725005495MN0160935N5-01175-01615101945ADDAA101000095GA1075+005495999GD13991+0054959GE19MSL   +99999+99999GF199999999999005491999999KA1060M-00221KA2060N-01171MA1101795098645MD1090149+9999REMMET11801/03/17 11:53:02 METAR KMIC 031753Z 27014KT 10SM BKN018 M12/M16 A3006 RMK AO2 SLP194 T11171161 11022 21117 50014 (FD)
0228726575949602017010318537+45062-093351FM-15+0265KMIC V0202905N00825005795MN0160935N5-01175-01675101875ADDAA101000095GA1075+005795999GD13991+0057959GE19MSL   +99999+99999GF199999999999005791999999MA1101735098575OC101085REMMET10301/03/17 12:53:02 METAR KMIC 031853Z 29016G21KT 10SM BKN019 M12/M17 A3004 RMK AO2 SLP187 T11171167 (FD)
0157726575949602017010319516+45062-093351FM-16+0265KMIC V0203105N008252200059N0160935N5-01205-01805999999ADDGA1045+006405999GD12991+0064059MA1101735098575OC101185REMMET09101/03/17 13:51:02 SPECI KMIC 031951Z 31016G23KT 10SM SCT021 M12/M18 A3004 RMK AO2 FIBI (FD)
0247726575949602017010319537+45062-093351FM-15+0265KMIC V0203005N009352200059N0160935N5-01175-01725101875ADDAA101000095GA1045+006405999GD12991+0064059GE19AGL   +99999+99999GF104995999999006401999999MA1101735098575OC101185REMMET10301/03/17 13:53:02 METAR KMIC 031953Z 30018G23KT 10SM SCT021 M12/M17 A3004 RMK AO2 SLP187 T11171172 (FD)EQDD01      0ADE726
0285726575949602017010320537+45062-093351FM-15+0265KMIC V0202905N009352200059N0160935N5-01225-01785101945ADDAA101000095GA1025+007325999GD11991+0073259GE19AGL   +99999+99999GF102995999999007321999999MA1101795098645MD1590009+9999OC101245REMMET12701/03/17 14:53:02 METAR KMIC 032053Z 29018G24KT 10SM FEW024 M12/M18 A3006 RMK AO2 PK WND 30027/2029 SLP194 T11221178 55000 (FD)EQDD01      0ADE726
0203726575949602017010321537+45062-093351FM-15+0265KMIC V0202905N007752200059N0160935N5-01225-01785101965ADDAA101000095GA1005+999999999GD10991+9999999GF100991999999999999999999MA1101835098675OC101185REMMET10001/03/17 15:53:02 METAR KMIC 032153Z 29015G23KT 10SM CLR M12/M18 A3007 RMK AO2 SLP196 T11221178 (FD)
0235726575949602017010322537+45062-093351FM-15+0265KMIC V0202905N006752200059N0160935N5-01395-01895102065ADDAA101000095GA1005+999999999GD10991+9999999GF100991999999999999999999MA1101905098745OC101295OD149901391290REMMET11801/03/17 16:53:02 METAR KMIC 032253Z 29013G25KT 10SM CLR M14/M19 A3009 RMK AO2 PK WND 29027/2209 SLP206 T11391189 (FD)
0250726575949602017010323537+45062-093351FM-15+0265KMIC V0202805N007252200059N0160935N5-01445-01945102115ADDAA101000095GA1005+999999999GD10991+9999999GF100991999999999999999999KA1060M-01171KA2060N-01441MA1101965098805MD1390159+9999REMMET11501/03/17 17:53:02 METAR KMIC 032353Z 28014KT 10SM CLR M14/M19 A3011 RMK AO2 SLP211 T11441194 11117 21144 53015 (FD)
0230726575949602017010400537+45062-093351FM-15+0265KMIC V0202905N006752200059N0160935N5-01505-02005102125ADDAA101000095GA1005+999999999GD10991+9999999GF100991999999999999999999MA1101965098805OC101135OD149901331280REMMET11301/03/17 18:53:01 METAR KMIC 040053Z 29013G22KT 10SM CLR M15/M20 A3011 RMK AO2 PK WND 28026/2359 SLP212 T11501200
0194726575949602017010401447+45062-093351FM-16+0265KMIC V0202905N00675004575MN0160935N5-01505-02005999999ADDGA1075+004575999GD13991+0045759GE19MSL   +99999+99999GF199999999999004571999999MA1101965098805REMMET08801/03/17 19:44:01 SPECI KMIC 040144Z 29013KT 10SM BKN015 M15/M20 A3011 RMK AO2 T11501200
0157726575949602017010401516+45062-093351FM-16+0265KMIC V0202905N007752200059N0160935N5-01505-02005999999ADDGA1045+004575999GD12991+0045759MA1101965098805OC101085REMMET09101/03/17 19:51:03 SPECI KMIC 040151Z 29015G21KT 10SM SCT015 M15/M20 A3011 RMK AO2 FIBI (FD)
0242726575949602017010401537+45062-093351FM-15+0265KMIC V0202905N006752200059N0160935N5-01565-02005102155ADDAA101000095GA1045+004575999GD12991+0045759GE19AGL   +99999+99999GF104995999999004571999999MA1101965098805OC101085REMMET09801/03/17 19:53:01 METAR KMIC 040153Z 29013G21KT 10SM SCT015 M16/M20 A3011 RMK AO2 SLP215 T11561200EQDD01      0ADE726
0256726575949602017010402537+45062-093351FM-15+0265KMIC V0202905N008252200059N0160935N5-01565-02065102175ADDAA101000095GA1045+004575999GD12991+0045759GE19AGL   +99999+99999GF104995999999004571999999MA1101965098805MD1190029+9999REMMET10601/03/17 20:53:01 METAR KMIC 040253Z 29016KT 10SM SCT015 M16/M21 A3011 RMK AO2 SLP217 T11561206 51002 TSNOEQDD01      0ADE726
0203726575949602017010403537+45062-093351FM-15+0265KMIC V0202905N008852200059N0160935N5-01615-02115102185ADDAA101000095GA1005+999999999GD10991+9999999GF100991999999999999999999MA1102005098845OC101135REMMET10001/03/17 21:53:02 METAR KMIC 040353Z 29017G22KT 10SM CLR M16/M21 A3012 RMK AO2 SLP218 T11611211 TSNO
0192726575949602017010404537+45062-093351FM-15+0265KMIC V0203005N006752200059N0160935N5-01675-02115102215ADDAA101000095GA1005+999999999GD10991+9999999GF100991999999999999999999MA1102005098845REMMET09701/03/17 22:53:02 METAR KMIC 040453Z 30013KT 10SM CLR M17/M21 A3012 RMK AO2 SLP221 T11671211 TSNO
0297726575949602017010405537+45062-093351FM-15+0265KMIC V0202805N008252200059N0160935N5-01725-02225102235ADDAA101000095GA1005+999999999GD10991+9999999GF100991999999999999999999KA1060M-01441KA2060N-01721KA3240M+00001KA4240N-01721MA1102035098875MD1390059+9999OC101135REMMET12801/03/17 23:53:02 METAR KMIC 040553Z 28016G22KT 10SM CLR M17/M22 A3013 RMK AO2 SLP223 T11721222 11144 21172 400001172 53005 TSNO
0898726575949602017010405596+45062-093351SOD  +0265KMIC V020999999999999999999999999999+99999+99999999999ADDAA124000095AT1AU13BR  5KA1240M+00005KA2240N-01715MG1098634101324OE11240143130009425OE22240116231009435OE33240070299999995REMSOD73024 HR PRECIPITATION (IN):0.00  24 HR MAX TEMP (F):32 24 HR MAX TEMP TIME (LST):0245 24 HR MIN TEMP (F):1  24 HR MIN TEMP TIME (LST):2359 AVERAGE STATION PRESSURE:29.125 MINIMUM SEA LEVEL PRESSURE:29.92 TIME OF OCCURRENCE:0444 PEAK WIND SPEED (MPH):32  PEAK WIND DIR (DEG):300 PEAK WIND TIME (LST):0942  FASTEST 2MIN SPEED (MPH):26 FASTEST 2MIN DIR (DEG):310 FASTEST 2MIN TIME (LST):0943 AVERAGE WIND SPEED (MPH):15.7 24 HR AVG TEMP (F):17 HEATING DEGREE DAYS:48  COOLING DEGREE DAYS:0   LATEST DAY MAX TEMP (0700-1900 LST):22  LATEST NIGHT MIN TEMP(1900-0800 LST):19 HOURLY INCREMENTAL PRECIPITATION VALUES (IN):.00 0.00 0.00 0.00 0.00 0.00 0.00 0.00 0.00 0.00 0.00 0.00 0.00 0.00 0.00 0.00 0.00 0.00 0.00 0.00 0.00 0.00 0.00 0.00EQDR01     N7GJS072R02     N7GKS075
0203726575949602017010406537+45062-093351FM-15+0265KMIC V0202805N007252200059N0160935N5-01725-02225102245ADDAA101000095GA1005+999999999GD10991+9999999GF100991999999999999999999MA1102035098875OC101085REMMET10001/04/17 00:53:02 METAR KMIC 040653Z 28014G21KT 10SM CLR M17/M22 A3013 RMK AO2 SLP224 T11721222 TSNO
0203726575949602017010407537+45062-093351FM-15+0265KMIC V0202805N007252200059N0160935N5-01785-02335102285ADDAA101000095GA1005+999999999GD10991+9999999GF100991999999999999999999MA1102075098905OC101085REMMET10001/04/17 01:53:02 METAR KMIC 040753Z 28014G21KT 10SM CLR M18/M23 A3014 RMK AO2 SLP228 T11781233 TSNO
0212726575949602017010408537+45062-093351FM-15+0265KMIC V0202805N007752200059N0160935N5-01835-02335102345ADDAA101000095GA1005+999999999GD10991+9999999GF100991999999999999999999MA1102135098975MD1390109+9999REMMET10301/04/17 02:53:02 METAR KMIC 040853Z 28015KT 10SM CLR M18/M23 A3016 RMK AO2 SLP234 T11831233 53010 TSNO
0192726575949602017010409537+45062-093351FM-15+0265KMIC V0202905N006752200059N0160935N5-01945-02445102355ADDAA101000095GA1005+999999999GD10991+9999999GF100991999999999999999999MA1102135098975REMMET09701/04/17 03:53:02 METAR KMIC 040953Z 29013KT 10SM CLR M19/M24 A3016 RMK AO2 SLP235 T11941244 TSNO
0203726575949602017010410537+45062-093351FM-15+0265KMIC V0202905N008852200059N0160935N5-02005-02445102375ADDAA101000095GA1005+999999999GD10991+9999999GF100991999999999999999999MA1102135098975OC101135REMMET10001/04/17 04:53:02 METAR KMIC 041053Z 29017G22KT 10SM CLR M20/M24 A3016 RMK AO2 SLP237 T12001244 TSNO
0250726575949602017010411537+45062-093351FM-15+0265KMIC V0202905N006752200059N0160935N5-02005-02505102375ADDAA101000095GA1005+999999999GD10991+9999999GF100991999999999999999999KA1060M-01721KA2060N-02001MA1102135098975MD1190019+9999REMMET11501/04/17 05:53:02 METAR KMIC 041153Z 29013KT 10SM CLR M20/M25 A3016 RMK AO2 SLP237 T12001250 11172 21200 51001 TSNO
0192726575949602017010412537+45062-093351FM-15+0265KMIC V0203005N008852200059N0160935N5-02065-02565102405ADDAA101000095GA1005+999999999GD10991+9999999GF100991999999999999999999MA1102175099005REMMET09701/04/17 06:53:02 METAR KMIC 041253Z 30017KT 10SM CLR M21/M26 A3017 RMK AO2 SLP240 T12061256 (FD)
0235726575949602017010413537+45062-093351FM-15+0265KMIC V0203105N005752200059N0128755N5-02115-02615102405ADDAA101000095GA1045+004885999GD12991+0048859GE19AGL   +99999+99999GF104995999999004881999999MA1102175099005REMMET09901/04/17 07:53:02 METAR KMIC 041353Z 31011KT 8SM SCT016 M21/M26 A3017 RMK AO2 SLP240 T12111261 (FD)EQDD01      0ADE726
0243726575949602017010414027+45062-093351FM-16+0265KMIC V0202905N006252200059N0048285N5-02115-02615999999ADDAU100007015AW1051GA1045+004885999GD12991+0048859GE19AGL   +99999+99999GF104995999999004881999999MA1102175099005MW1055REMMET09501/04/17 08:02:02 SPECI KMIC 041402Z 29012KT 3SM HZ SCT016 M21/M26 A3017 RMK AO2 T12111261 (FD)EQDD01      0ADE726
0257726575949602017010414407+45062-093351FM-16+0265KMIC V0203005N004652200059N0040235N5-02115-02565999999ADDAU100007015AW1051GA1045+004885999GD12991+0048859GE19AGL   +99999+99999GF104995999999004881999999MA1102205099035MW1055REMMET10901/04/17 08:40:02 SPECI KMIC 041440Z 30009KT 2 1/2SM HZ SCT016 M21/M26 A3018 RMK AO2 TWR VIS 3 T12111256 (FD)EQDD01      0ADE726
0165726575949602017010414516+45062-093351FM-16+0265KMIC V0202905N006752200059N0048285N5-02105-02605999999ADDAU100007015GA1045+004885999GD12991+0048859MA1102205099035MW1055REMMET09001/04/17 08:51:02 SPECI KMIC 041451Z 29013KT 3SM HZ SCT016 M21/M26 A3018 RMK AO2 FIBI (FD)
0281726575949602017010414537+45062-093351FM-15+0265KMIC V0202905N006252200059N0048285N5-02115-02615102445ADDAA101000095AU100007015AW1051GA1045+004885999GD12991+0048859GE19AGL   +99999+99999GF104995999999004881999999MA1102205099035MD1190049+9999MW1055REMMET10801/04/17 08:53:02 METAR KMIC 041453Z 29012KT 3SM HZ SCT016 M21/M26 A3018 RMK AO2 SLP244 T12111261 51004 (FD)EQDD01      0ADE726
0236726575949602017010415537+45062-093351FM-15+0265KMIC V0203005N004652200059N0160935N5-02065-02565102495ADDAA101000095GA1045+004885999GD12991+0048859GE19AGL   +99999+99999GF104995999999004881999999MA1102245099075REMMET10001/04/17 09:53:02 METAR KMIC 041553Z 30009KT 10SM SCT016 M21/M26 A3019 RMK AO2 SLP249 T12061256 (FD)EQDD01      0ADE726
0192726575949602017010416537+45062-093351FM-15+0265KMIC V0203005N005752200059N0160935N5-01895-02505102465ADDAA101000095GA1005+999999999GD10991+9999999GF100991999999999999999999MA1102205099035REMMET09701/04/17 10:53:02 METAR KMIC 041653Z 30011KT 10SM CLR M19/M25 A3018 RMK AO2 SLP246 T11891250 (FD)
0250726575949602017010417537+45062-093351FM-15+0265KMIC V0202905N006252200059N0160935N5-01835-02445102375ADDAA101000095GA1005+999999999GD10991+9999999GF100991999999999999999999KA1060M-01831KA2060N-02111MA1102135098975MD1890079+9999REMMET11501/04/17 11:53:02 METAR KMIC 041753Z 29012KT 10SM CLR M18/M24 A3016 RMK AO2 SLP237 T11831244 11183 21211 58007 (FD)
0203726575949602017010418537+45062-093351FM-15+0265KMIC V0203005N006752200059N0160935N5-01675-02335102305ADDAA101000095GA1005+999999999GD10991+9999999GF100991999999999999999999MA1102075098905OC101135REMMET10001/04/17 12:53:02 METAR KMIC 041853Z 30013G22KT 10SM CLR M17/M23 A3014 RMK AO2 SLP230 T11671233 (FD)
0203726575949602017010419537+45062-093351FM-15+0265KMIC V0202705N007252200059N0160935N5-01675-02335102265ADDAA101000095GA1005+999999999GD10991+9999999GF100991999999999999999999MA1102035098875OC101085REMMET10001/04/17 13:53:02 METAR KMIC 041953Z 27014G21KT 10SM CLR M17/M23 A3013 RMK AO2 SLP226 T11671233 (FD)
0223726575949602017010420537+45062-093351FM-15+0265KMIC V0202805N006252200059N0160935N5-01615-02285102215ADDAA101000095GA1005+999999999GD10991+9999999GF100991999999999999999999MA1102005098845MD1690149+9999OC100885REMMET10601/04/17 14:53:02 METAR KMIC 042053Z 28012G17KT 10SM CLR M16/M23 A3012 RMK AO2 SLP221 T11611228 56014 (FD)
0203726575949602017010421537+45062-093351FM-15+0265KMIC V0202805N007752200059N0160935N5-01615-02285102235ADDAA101000095GA1005+999999999GD10991+9999999GF100991999999999999999999MA1102005098845OC101035REMMET10001/04/17 15:53:02 METAR KMIC 042153Z 28015G20KT 10SM CLR M16/M23 A3012 RMK AO2 SLP223 T11611228 (FD)
0203726575949602017010422537+45062-093351FM-15+0265KMIC V0202905N006252200059N0160935N5-01675-02335102225ADDAA101000095GA1005+999999999GD10991+9999999GF100991999999999999999999MA1101965098805OC100935REMMET10001/04/17 16:53:02 METAR KMIC 042253Z 29012G18KT 10SM CLR M17/M23 A3011 RMK AO2 SLP222 T11671233 (FD)
0294726575949602017010423537+45062-093351FM-15+0265KMIC V0202905N004652200059N0160935N5-01725-02335102155ADDAA101000095GA1025+030485999GD11991+0304859GE19AGL   +99999+99999GF102995999999030481999999KA1060M-01611KA2060N-01831MA1101905098745MD1890079+9999REMMET11801/04/17 17:53:02 METAR KMIC 042353Z 29009KT 10SM FEW100 M17/M23 A3009 RMK AO2 SLP215 T11721233 11161 21183 58007 (FD)EQDD01      0ADE726
0231726575949602017010500537+45062-093351FM-15+0265KMIC V0202905N005152200059N0160935N5-01785-02335102185ADDAA101000095GA1025+033535999GD11991+0335359GE19AGL   +99999+99999GF102995999999033531999999MA1101935098775REMMET09501/04/17 18:53:01 METAR KMIC 050053Z 29010KT 10SM FEW110 M18/M23 A3010 RMK AO2 SLP218 T11781233EQDD01      0ADE726
0187726575949602017010501537+45062-093351FM-15+0265KMIC V0202805N003152200059N0160935N5-01785-02335102195ADDAA101000095GA1005+999999999GD10991+9999999GF100991999999999999999999MA1101935098775REMMET09201/04/17 19:53:01 METAR KMIC 050153Z 28006KT 10SM CLR M18/M23 A3010 RMK AO2 SLP219 T11781233
0207726575949602017010502537+45062-093351FM-15+0265KMIC V0202805N003652200059N0160935N5-01835-02335102185ADDAA101000095GA1005+999999999GD10991+9999999GF100991999999999999999999MA1101935098775MD1090029+9999REMMET09801/04/17 20:53:02 METAR KMIC 050253Z 28007KT 10SM CLR M18/M23 A3010 RMK AO2 SLP218 T11831233 50002
0255726575949602017010503537+45062-093351FM-15+0265KMIC V0202705N00365014335MN0160935N5-01835-02285102175ADDAA101000095GA1025+011585999GA2075+014335999GD11991+0115859GD23991+0143359GE19MSL   +99999+99999GF199999999999011581999999MA1101935098775REMMET10701/04/17 21:53:02 METAR KMIC 050353Z 27007KT 10SM FEW038 BKN047 M18/M23 A3010 RMK AO2 SLP217 T11831228 TSNO
0216726575949602017010504537+45062-093351FM-15+0265KMIC V0202905N00415010975MN0144845N5-01835-02285102175ADDAA101000095GA1085+010975999GD14991+0109759GE19MSL   +99999+99999GF199999999999010971999999MA1101935098775REMMET09901/04/17 22:53:02 METAR KMIC 050453Z 29008KT 9SM OVC036 M18/M23 A3010 RMK AO2 SLP217 T11831228 TSNO
0336726575949602017010505537+45062-093351FM-15+0265KMIC V0202805N00365014335MN0096565N5-01835-02285102115ADDAA101000095AU100007015AW1051GA1085+014335999GD14991+0143359GE19MSL   +99999+99999GF199999999999014331999999KA1060M-01721KA2060N-01891KA3240M-01611KA4240N-02111MA1101865098705MD1890069+9999MW1055REMMET13001/04/17 23:53:02 METAR KMIC 050553Z 28007KT 6SM HZ OVC047 M18/M23 A3008 RMK AO2 SLP211 T11831228 11172 21189 411611211 58006 TSNO
0898726575949602017010505596+45062-093351SOD  +0265KMIC V020999999999999999999999999999+99999+99999999999ADDAA124000095AT1AU08HZ  5KA1240M-01605KA2240N-02105MG1098834102104OE11240125228012425OE22240093930012485OE33240059599999995REMSOD73024 HR PRECIPITATION (IN):0.00  24 HR MAX TEMP (F):3  24 HR MAX TEMP TIME (LST):1602 24 HR MIN TEMP (F):-6 24 HR MIN TEMP TIME (LST):0925 AVERAGE STATION PRESSURE:29.185 MINIMUM SEA LEVEL PRESSURE:30.15 TIME OF OCCURRENCE:2359 PEAK WIND SPEED (MPH):28  PEAK WIND DIR (DEG):280 PEAK WIND TIME (LST):1242  FASTEST 2MIN SPEED (MPH):21 FASTEST 2MIN DIR (DEG):300 FASTEST 2MIN TIME (LST):1248 AVERAGE WIND SPEED (MPH):13.3 24 HR AVG TEMP (F):-1 HEATING DEGREE DAYS:66  COOLING DEGREE DAYS:0   LATEST DAY MAX TEMP (0700-1900 LST):3   LATEST NIGHT MIN TEMP(1900-0800 LST):-6 HOURLY INCREMENTAL PRECIPITATION VALUES (IN):.00 0.00 0.00 0.00 0.00 0.00 0.00 0.00 0.00 0.00 0.00 0.00 0.00 0.00 0.00 0.00 0.00 0.00 0.00 0.00 0.00 0.00 0.00 0.00EQDR01     N7GJS072R02     N7GKS075
0284726575949602017010506467+45062-093351FM-16+0265KMIC V0203005N00365014635MN0040235N5-01835-02285999999ADDAA101000021AU110030015AW1715GA1045+007325999GA2085+014635999GD12991+0073259GD24991+0146359GE19MSL   +99999+99999GF199999999999007321999999MA1101835098675REMMET11901/05/17 00:46:02 SPECI KMIC 050646Z 30007KT 2 1/2SM -SN SCT024 OVC048 M18/M23 A3007 RMK AO2 SNB18 P0000 T11831228 TSNO
0216726575949602017010506516+45062-093351FM-16+0265KMIC V0202905N00465015245MN0048285N5-01805-02305999999ADDAU110030015AW1715GA1025+007925999GA2085+015245999GD11991+0079259GD24991+0152459MA1101835098675REMMET11001/05/17 00:51:02 SPECI KMIC 050651Z 29009KT 3SM -SN FEW026 OVC050 M18/M23 A3007 RMK AO2 SNB18 P0000 TSNO FIBI
0287726575949602017010506537+45062-093351FM-15+0265KMIC V0203005N00465015245MN0048285N5-01835-02285102055ADDAA101000025AU110030015AW1715GA1045+007925999GA2085+015245999GD12991+0079259GD24991+0152459GE19MSL   +99999+99999GF199999999999007921999999MA1101835098675REMMET12201/05/17 00:53:02 METAR KMIC 050653Z 30009KT 3SM -SN SCT026 OVC050 M18/M23 A3007 RMK AO2 SNB18 SLP205 P0000 T11831228 TSNO
0330726575949602017010507537+45062-093351FM-15+0265KMIC V0203005N00365010065MN0064375N5-01895-02335102055ADDAA101000025AU100007015AW1051GA1025+005185999GA2075+010065999GA3085+015245999GD11991+0051859GD23991+0100659GD34991+0152459GE19MSL   +99999+99999GF199999999999005181999999MA1101795098645MW1055REMMET12801/05/17 01:53:02 METAR KMIC 050753Z 30007KT 4SM HZ FEW017 BKN033 OVC050 M19/M23 A3006 RMK AO2 SNE24 SLP205 P0000 T11891233 TSNO
0343726575949602017010508537+45062-093351FM-15+0265KMIC V0203005N00465010675MN0048285N5-01895-02395102075ADDAA101000025AA203000021AU110030015AW1715GA1025+006405999GA2085+010675999GD11991+0064059GD24991+0106759GE19MSL   +99999+99999GF199999999999006401999999MA1101835098675MD1590039+9999REMMET13401/05/17 02:53:02 METAR KMIC 050853Z 30009KT 3SM -SN FEW021 OVC035 M19/M24 A3007 RMK AO2 SNB46 SLP207 P0000 60000 T11891239 55003 TSNOEQDQ01  00008PRCP03
0278726575949602017010509077+45062-093351FM-16+0265KMIC V0203205N00515005795MN0040235N5-01945-02335999999ADDAA101000021AU110030015AW1715GA1075+005795999GA2085+010675999GD13991+0057959GD24991+0106759GE19MSL   +99999+99999GF199999999999005791999999MA1101835098675REMMET11301/05/17 03:07:02 SPECI KMIC 050907Z 32010KT 2 1/2SM -SN BKN019 OVC035 M19/M23 A3007 RMK AO2 P0000 T11941233 TSNO
0278726575949602017010509177+45062-093351FM-16+0265KMIC V0203305N00465005795MN0028165N5-01945-02335999999ADDAA101000021AU110030015AW1715GA1075+005795999GA2085+010675999GD13991+0057959GD24991+0106759GE19MSL   +99999+99999GF199999999999005791999999MA1101835098675REMMET11301/05/17 03:17:02 SPECI KMIC 050917Z 33009KT 1 3/4SM -SN BKN019 OVC035 M19/M23 A3007 RMK AO2 P0000 T11941233 TSNO
0247726575949602017010509397+45062-093351FM-16+0265KMIC V0203305N00365005795MN0032195N5-02005-02395999999ADDAA101000021AU100007015AW1051GA1085+005795999GD14991+0057959GE19MSL   +99999+99999GF199999999999005791999999MA1101865098705MW1055REMMET10701/05/17 03:39:02 SPECI KMIC 050939Z 33007KT 2SM HZ OVC019 M20/M24 A3008 RMK AO2 SNE36 P0000 T12001239 TSNO
0275726575949602017010509507+45062-093351FM-16+0265KMIC V0203405N00465005795MN0096565N5-02005-02405999999ADDAA101000021AU100007015AW1051GA1025+003665999GA2085+005795999GD11991+0036659GD24991+0057959GE19MSL   +99999+99999GF199999999999003661999999MA1101865098705MW1055REMMET10401/05/17 03:50:02 SPECI KMIC 050950Z 34009KT 6SM HZ FEW012 OVC019 M20/M24 A3008 RMK AO2 SNE36 P0000 TSNO
0304726575949602017010509537+45062-093351FM-15+0265KMIC V0203305N00365005795MN0128755N5-02005-02445102105ADDAA101000025GA1025+003665999GA2075+005795999GA3085+015245999GD11991+0036659GD23991+0057959GD34991+0152459GE19MSL   +99999+99999GF199999999999003661999999MA1101865098705REMMET12501/05/17 03:53:02 METAR KMIC 050953Z 33007KT 8SM FEW012 BKN019 OVC050 M20/M24 A3008 RMK AO2 SNE36 SLP210 P0000 T12001244 TSNO
0199726575949602017010510157+45062-093351FM-16+0265KMIC V0203305N00415004275MN0160935N5-02065-02505999999ADDGA1075+004275999GD13991+0042759GE19MSL   +99999+99999GF199999999999004271999999MA1101865098705REMMET09301/05/17 04:15:02 SPECI KMIC 051015Z 33008KT 10SM BKN014 M21/M25 A3008 RMK AO2 T12061250 TSNO
0218726575949602017010510267+45062-093351FM-16+0265KMIC V0203105N004652200059N0160935N5-02065-02505999999ADDGA1045+004275999GD12991+0042759GE19AGL   +99999+99999GF104995999999004271999999MA1101865098705REMMET09301/05/17 04:26:02 SPECI KMIC 051026Z 31009KT 10SM SCT014 M21/M25 A3008 RMK AO2 T12061250 TSNOEQDD01      0ADE726
0192726575949602017010510537+45062-093351FM-15+0265KMIC V0203205N002652200059N0160935N5-02115-02505102085ADDAA101000095GA1005+999999999GD10991+9999999GF100991999999999999999999MA1101835098675REMMET09701/05/17 04:53:02 METAR KMIC 051053Z 32005KT 10SM CLR M21/M25 A3007 RMK AO2 SLP208 T12111250 TSNO
0267726575949602017010511537+45062-093351FM-15+0265KMIC V0203305N004152200059N0160935N5-02175-02565102075ADDAA101000095AA206000021GA1005+999999999GD10991+9999999GF100991999999999999999999KA1060M-01831KA2060N-02171MA1101835098675MD1890039+9999REMMET12101/05/17 05:53:02 METAR KMIC 051153Z 33008KT 10SM CLR M22/M26 A3007 RMK AO2 SLP207 60000 T12171256 11183 21217 58003 TSNO
0192726575949602017010512537+45062-093351FM-15+0265KMIC V0203205N004152200059N0160935N5-02225-02615102135ADDAA101000095GA1005+999999999GD10991+9999999GF100991999999999999999999MA1101865098705REMMET09701/05/17 06:53:02 METAR KMIC 051253Z 32008KT 10SM CLR M22/M26 A3008 RMK AO2 SLP213 T12221261 (FD)
0192726575949602017010513537+45062-093351FM-15+0265KMIC V0203105N004152200059N0160935N5-02225-02675102165ADDAA101000095GA1005+999999999GD10991+9999999GF100991999999999999999999MA1101905098745REMMET09701/05/17 07:53:02 METAR KMIC 051353Z 31008KT 10SM CLR M22/M27 A3009 RMK AO2 SLP216 T12221267 (FD)
0186726575949602017010514536+45062-093351FM-15+0265KMIC V0203005N004652200059N0160935N5-02175-02565102235ADDAA101000095GA1005+999999999GD10991+9999999MA1101965098805MD1390149+9999REMMET10301/05/17 08:53:02 METAR KMIC 051453Z 30009KT 10SM CLR M22/M26 A3011 RMK AO2 SLP223 T12171256 53014 (FD)
0192726575949602017010515537+45062-093351FM-15+0265KMIC V0203105N003652200059N0160935N5-02065-02565102255ADDAA101000095GA1005+999999999GD10991+9999999GF100991999999999999999999MA1102005098845REMMET09701/05/17 09:53:02 METAR KMIC 051553Z 31007KT 10SM CLR M21/M26 A3012 RMK AO2 SLP225 T12061256 (FD)
0217726575949602017010516537+45062-093351FM-15+0265KMIC V0202905N00365009755MN0160935N5-01945-02445102285ADDAA101000095GA1075+009755999GD13991+0097559GE19MSL   +99999+99999GF199999999999009751999999MA1102035098875REMMET10001/05/17 10:53:02 METAR KMIC 051653Z 29007KT 10SM BKN032 M19/M24 A3013 RMK AO2 SLP228 T11941244 (FD)
0294726575949602017010517537+45062-093351FM-15+0265KMIC V0203005N004652200059N0160935N5-01835-02445102195ADDAA101000095GA1025+007015999GD11991+0070159GE19AGL   +99999+99999GF102995999999007011999999KA1060M-01831KA2060N-02221MA1101935098775MD1890029+9999REMMET11801/05/17 11:53:02 METAR KMIC 051753Z 30009KT 10SM FEW023 M18/M24 A3010 RMK AO2 SLP219 T11831244 11183 21222 58002 (FD)EQDD01      0ADE726
0199726575949602017010518177+45062-093351FM-16+0265KMIC V0202905N00575006715MN0160935N5-01835-02395999999ADDGA1075+006715999GD13991+0067159GE19MSL   +99999+99999GF199999999999006711999999MA1101935098775REMMET09301/05/17 12:17:02 SPECI KMIC 051817Z 29011KT 10SM BKN022 M18/M24 A3010 RMK AO2 T11831239 (FD)
0183726575949602017010518516+45062-093351FM-16+0265KMIC V0203105N00365011285MN0144845N5-01805-02405999999ADDGA1045+006715999GA2075+011285999GD12991+0067159GD23991+0112859MA1101905098745REMMET09401/05/17 12:51:02 SPECI KMIC 051851Z 31007KT 9SM SCT022 BKN037 M18/M24 A3009 RMK AO2 FIBI (FD)
0255726575949602017010518537+45062-093351FM-15+0265KMIC V0203105N00265011585MN0160935N5-01785-02395102135ADDAA101000095GA1045+006715999GA2075+011585999GD12991+0067159GD23991+0115859GE19MSL   +99999+99999GF199999999999006711999999MA1101905098745REMMET10701/05/17 12:53:02 METAR KMIC 051853Z 31005KT 10SM SCT022 BKN038 M18/M24 A3009 RMK AO2 SLP213 T11781239 (FD)
0236726575949602017010519537+45062-093351FM-15+0265KMIC V0202905N004152200059N0160935N5-01725-02335102105ADDAA101000095GA1045+008235999GD12991+0082359GE19AGL   +99999+99999GF104995999999008231999999MA1101865098705REMMET10001/05/17 13:53:02 METAR KMIC 051953Z 29008KT 10SM SCT027 M17/M23 A3008 RMK AO2 SLP210 T11721233 (FD)EQDD01      0ADE726
0256726575949602017010520537+45062-093351FM-15+0265KMIC V0202705N004152200059N0160935N5-01725-02395102075ADDAA101000095GA1045+008235999GD12991+0082359GE19AGL   +99999+99999GF104995999999008231999999MA1101835098675MD1690129+9999REMMET10601/05/17 14:53:02 METAR KMIC 052053Z 27008KT 10SM SCT027 M17/M24 A3007 RMK AO2 SLP207 T11721239 56012 (FD)EQDD01      0ADE726
0236726575949602017010521537+45062-093351FM-15+0265KMIC V0202905N004152200059N0160935N5-01725-02395102105ADDAA101000095GA1045+008235999GD12991+0082359GE19AGL   +99999+99999GF104995999999008231999999MA1101865098705REMMET10001/05/17 15:53:02 METAR KMIC 052153Z 29008KT 10SM SCT027 M17/M24 A3008 RMK AO2 SLP210 T11721239 TSNOEQDD01      0ADE726
0274726575949602017010522537+45062-093351FM-15+0265KMIC V0202805N003652200059N0160935N5-01785-02335102105ADDAA101000095GA1045+006105999GA2045+011585999GD12991+0061059GD22991+0115859GE19AGL   +99999+99999GF104995999999006101999999MA1101865098705REMMET10701/05/17 16:53:02 METAR KMIC 052253Z 28007KT 10SM SCT020 SCT038 M18/M23 A3008 RMK AO2 SLP210 T11781233 TSNOEQDD01      0ADE726
0294726575949602017010523537+45062-093351FM-15+0265KMIC V0202905N004652200059N0160935N5-01895-02395102145ADDAA101000095GA1025+005185999GD11991+0051859GE19AGL   +99999+99999GF102995999999005181999999KA1060M-01671KA2060N-01891MA1101905098745MD1290069+9999REMMET11801/05/17 17:53:02 METAR KMIC 052353Z 29009KT 10SM FEW017 M19/M24 A3009 RMK AO2 SLP214 T11891239 11167 21189 52006 TSNOEQDD01      0ADE726
0212726575949602017010600537+45062-093351FM-15+0265KMIC V0202805N00515015245MN0160935N5-01945-02445102205ADDAA101000095GA1075+015245999GD13991+0152459GE19MSL   +99999+99999GF199999999999015241999999MA1101935098775REMMET09501/05/17 18:53:01 METAR KMIC 060053Z 28010KT 10SM BKN050 M19/M24 A3010 RMK AO2 SLP220 T11941244
0231726575949602017010601207+45062-093351FM-16+0265KMIC V0202905N00515007625MN0144845N5-02005-02505999999ADDGA1075+007625999GA2075+014945999GD13991+0076259GD23991+0149459GE19MSL   +99999+99999GF199999999999007621999999MA1101935098775REMMET09401/05/17 19:20:01 SPECI KMIC 060120Z 29010KT 9SM BKN025 BKN049 M20/M25 A3010 RMK AO2 T12001250
0213726575949602017010601397+45062-093351FM-16+0265KMIC V0202905N005752200059N0160935N5-02005-02505999999ADDGA1045+007015999GD12991+0070159GE19AGL   +99999+99999GF104995999999007011999999MA1101965098805REMMET08801/05/17 19:39:01 SPECI KMIC 060139Z 29011KT 10SM SCT023 M20/M25 A3011 RMK AO2 T12001250EQDD01      0ADE726
0231726575949602017010601537+45062-093351FM-15+0265KMIC V0202905N005152200059N0160935N5-02005-02505102245ADDAA101000095GA1025+004885999GD11991+0048859GE19AGL   +99999+99999GF102995999999004881999999MA1101965098805REMMET09501/05/17 19:53:01 METAR KMIC 060153Z 29010KT 10SM FEW016 M20/M25 A3011 RMK AO2 SLP224 T12001250EQDD01      0ADE726
0212726575949602017010602537+45062-093351FM-15+0265KMIC V0202805N005752200059N0160935N5-02065-02565102265ADDAA101000095GA1005+999999999GD10991+9999999GF100991999999999999999999MA1102005098845MD1190109+9999REMMET10301/05/17 20:53:02 METAR KMIC 060253Z 28011KT 10SM CLR M21/M26 A3012 RMK AO2 SLP226 T12061256 51010 TSNO
0192726575949602017010603537+45062-093351FM-15+0265KMIC V0202905N004152200059N0160935N5-02175-02675102295ADDAA101000095GA1005+999999999GD10991+9999999GF100991999999999999999999MA1102035098875REMMET09701/05/17 21:53:02 METAR KMIC 060353Z 29008KT 10SM CLR M22/M27 A3013 RMK AO2 SLP229 T12171267 TSNO
0192726575949602017010604537+45062-093351FM-15+0265KMIC V0203005N003152200059N0160935N5-02225-02675102315ADDAA101000095GA1005+999999999GD10991+9999999GF100991999999999999999999MA1102035098875REMMET09701/05/17 22:53:02 METAR KMIC 060453Z 30006KT 10SM CLR M22/M27 A3013 RMK AO2 SLP231 T12221267 TSNO
0286726575949602017010605537+45062-093351FM-15+0265KMIC V0203005N004152200059N0160935N5-02285-02675102335ADDAA101000095GA1005+999999999GD10991+9999999GF100991999999999999999999KA1060M-01891KA2060N-02281KA3240M-01671KA4240N-02281MA1102075098905MD1190079+9999REMMET12501/05/17 23:53:02 METAR KMIC 060553Z 30008KT 10SM CLR M23/M27 A3014 RMK AO2 SLP233 T12281267 11189 21228 411671228 51007 TSNO
0910726575949602017010605596+45062-093351SOD  +0265KMIC V020999999999999999999999999999+99999+99999999999ADDAA124000025AT1AU18SN  5AT2AU08HZ  5KA1240M-01665KA2240N-02275MG1098764102034OE11240084927018385OE22240067130019265OE33240041199999995REMSOD73024 HR PRECIPITATION (IN):T     24 HR MAX TEMP (F):2  24 HR MAX TEMP TIME (LST):1518 24 HR MIN TEMP (F):-9 24 HR MIN TEMP TIME (LST):2359 AVERAGE STATION PRESSURE:29.165 MINIMUM SEA LEVEL PRESSURE:30.13 TIME OF OCCURRENCE:0209 PEAK WIND SPEED (MPH):19  PEAK WIND DIR (DEG):270 PEAK WIND TIME (LST):1838  FASTEST 2MIN SPEED (MPH):15 FASTEST 2MIN DIR (DEG):300 FASTEST 2MIN TIME (LST):1926 AVERAGE WIND SPEED (MPH):9.2  24 HR AVG TEMP (F):-3 HEATING DEGREE DAYS:68  COOLING DEGREE DAYS:0   LATEST DAY MAX TEMP (0700-1900 LST):2   LATEST NIGHT MIN TEMP(1900-0800 LST):-8 HOURLY INCREMENTAL PRECIPITATION VALUES (IN):    T    T    T    0.00 0.00 0.00 0.00 0.00 0.00 0.00 0.00 0.00 0.00 0.00 0.00 0.00 0.00 0.00 0.00 0.00 0.00 0.00 0.00EQDR01     N7GJS072R02     N7GKS075
0192726575949602017010606537+45062-093351FM-15+0265KMIC V0202805N003152200059N0160935N5-02285-02675102335ADDAA101000095GA1005+999999999GD10991+9999999GF100991999999999999999999MA1102075098905REMMET09701/06/17 00:53:02 METAR KMIC 060653Z 28006KT 10SM CLR M23/M27 A3014 RMK AO2 SLP233 T12281267 TSNO
0192726575949602017010607537+45062-093351FM-15+0265KMIC V0202905N003152200059N0160935N5-02285-02725102355ADDAA101000095GA1005+999999999GD10991+9999999GF100991999999999999999999MA1102105098935REMMET09701/06/17 01:53:02 METAR KMIC 060753Z 29006KT 10SM CLR M23/M27 A3015 RMK AO2 SLP235 T12281272 TSNO
0212726575949602017010608537+45062-093351FM-15+0265KMIC V0202605N002152200059N0160935N5-02335-02725102385ADDAA101000095GA1005+999999999GD10991+9999999GF100991999999999999999999MA1102105098935MD1390059+9999REMMET10301/06/17 02:53:02 METAR KMIC 060853Z 26004KT 10SM CLR M23/M27 A3015 RMK AO2 SLP238 T12331272 53005 TSNO
0192726575949602017010609537+45062-093351FM-15+0265KMIC V0202705N002652200059N0160935N5-02335-02725102425ADDAA101000095GA1005+999999999GD10991+9999999GF100991999999999999999999MA1102175099005REMMET09701/06/17 03:53:02 METAR KMIC 060953Z 27005KT 10SM CLR M23/M27 A3017 RMK AO2 SLP242 T12331272 TSNO
0192726575949602017010610537+45062-093351FM-15+0265KMIC V0202605N002152200059N0160935N5-02335-02725102435ADDAA101000095GA1005+999999999GD10991+9999999GF100991999999999999999999MA1102175099005REMMET09701/06/17 04:53:02 METAR KMIC 061053Z 26004KT 10SM CLR M23/M27 A3017 RMK AO2 SLP243 T12331272 TSNO
0250726575949602017010611537+45062-093351FM-15+0265KMIC V0202505N002652200059N0160935N5-02395-02725102495ADDAA101000095GA1005+999999999GD10991+9999999GF100991999999999999999999KA1060M-02281KA2060N-02391MA1102205099035MD1390099+9999REMMET11501/06/17 05:53:02 METAR KMIC 061153Z 25005KT 10SM CLR M24/M27 A3018 RMK AO2 SLP249 T12391272 11228 21239 53009 TSNO
0192726575949602017010612537+45062-093351FM-15+0265KMIC V0202605N001552200059N0160935N5-02335-02725102535ADDAA101000095GA1005+999999999GD10991+9999999GF100991999999999999999999MA1102275099105REMMET09701/06/17 06:53:02 METAR KMIC 061253Z 26003KT 10SM CLR M23/M27 A3020 RMK AO2 SLP253 T12331272 TSNO
0192726575949602017010613537+45062-093351FM-15+0265KMIC V0209999C000052200059N0160935N5-02395-02725102545ADDAA101000095GA1005+999999999GD10991+9999999GF100991999999999999999999MA1102275099105REMMET09701/06/17 07:53:02 METAR KMIC 061353Z 00000KT 10SM CLR M24/M27 A3020 RMK AO2 SLP254 T12391272 (FD)
0212726575949602017010614537+45062-093351FM-15+0265KMIC V0202405N002152200059N0160935N5-02285-02615102595ADDAA101000095GA1005+999999999GD10991+9999999GF100991999999999999999999MA1102305099135MD1390109+9999REMMET10301/06/17 08:53:02 METAR KMIC 061453Z 24004KT 10SM CLR M23/M26 A3021 RMK AO2 SLP259 T12281261 53010 (FD)
0192726575949602017010615537+45062-093351FM-15+0265KMIC V0209999V001552200059N0160935N5-02115-02505102695ADDAA101000095GA1005+999999999GD10991+9999999GF100991999999999999999999MA1102405099235REMMET09701/06/17 09:53:02 METAR KMIC 061553Z VRB03KT 10SM CLR M21/M25 A3024 RMK AO2 SLP269 T12111250 (FD)
0192726575949602017010616537+45062-093351FM-15+0265KMIC V0202105N002652200059N0160935N5-01895-02395102725ADDAA101000095GA1005+999999999GD10991+9999999GF100991999999999999999999MA1102475099305REMMET09701/06/17 10:53:02 METAR KMIC 061653Z 21005KT 10SM CLR M19/M24 A3026 RMK AO2 SLP272 T11891239 (FD)
0250726575949602017010617537+45062-093351FM-15+0265KMIC V0202205N002652200059N0160935N5-01785-02395102665ADDAA101000095GA1005+999999999GD10991+9999999GF100991999999999999999999KA1060M-01781KA2060N-02391MA1102405099235MD1090089+9999REMMET11501/06/17 11:53:02 METAR KMIC 061753Z 22005KT 10SM CLR M18/M24 A3024 RMK AO2 SLP266 T11781239 11178 21239 50008 (FD)
0192726575949602017010618537+45062-093351FM-15+0265KMIC V0202305N002652200059N0160935N5-01675-02445102615ADDAA101000095GA1005+999999999GD10991+9999999GF100991999999999999999999MA1102375099205REMMET09701/06/17 12:53:02 METAR KMIC 061853Z 23005KT 10SM CLR M17/M24 A3023 RMK AO2 SLP261 T11671244 (FD)
0192726575949602017010619537+45062-093351FM-15+0265KMIC V0202405N003652200059N0160935N5-01565-02285102625ADDAA101000095GA1005+999999999GD10991+9999999GF100991999999999999999999MA1102375099205REMMET09701/06/17 13:53:02 METAR KMIC 061953Z 24007KT 10SM CLR M16/M23 A3023 RMK AO2 SLP262 T11561228 (FD)
0256726575949602017010620537+45062-093351FM-15+0265KMIC V0202205N003652200059N0160935N5-01505-02175102645ADDAA101000095GA1025+007925999GD11991+0079259GE19AGL   +99999+99999GF102995999999007921999999MA1102375099205MD1590019+9999REMMET10601/06/17 14:53:02 METAR KMIC 062053Z 22007KT 10SM FEW026 M15/M22 A3023 RMK AO2 SLP264 T11501217 55001 (FD)EQDD01      0ADE726
0254726575949602017010621537+45062-093351FM-15+0265KMIC V0202305N00315007015MN0144845N5-01565-02175102685ADDAA101000095GA1075+007015999GA2075+013725999GD13991+0070159GD23991+0137259GE19MSL   +99999+99999GF199999999999007011999999MA1102445099265REMMET10601/06/17 15:53:02 METAR KMIC 062153Z 23006KT 9SM BKN023 BKN045 M16/M22 A3025 RMK AO2 SLP268 T11561217 (FD)
0236726575949602017010622537+45062-093351FM-15+0265KMIC V0209999C000052200059N0160935N5-01615-02115102735ADDAA101000095GA1025+005795999GD11991+0057959GE19AGL   +99999+99999GF102995999999005791999999MA1102475099305REMMET10001/06/17 16:53:02 METAR KMIC 062253Z 00000KT 10SM FEW019 M16/M21 A3026 RMK AO2 SLP273 T11611211 (FD)EQDD01      0ADE726
0250726575949602017010623537+45062-093351FM-15+0265KMIC V0202405N002652200059N0160935N5-01675-02115102785ADDAA101000095GA1005+999999999GD10991+9999999GF100991999999999999999999KA1060M-01501KA2060N-01671MA1102515099335MD1290139+9999REMMET11501/06/17 17:53:02 METAR KMIC 062353Z 24005KT 10SM CLR M17/M21 A3027 RMK AO2 SLP278 T11671211 11150 21167 52013 (FD)
0187726575949602017010700537+45062-093351FM-15+0265KMIC V0202705N002152200059N0160935N5-01675-02115102855ADDAA101000095GA1005+999999999GD10991+9999999GF100991999999999999999999MA1102575099405REMMET09201/06/17 18:53:01 METAR KMIC 070053Z 27004KT 10SM CLR M17/M21 A3029 RMK AO2 SLP285 T11671211
0187726575949602017010701537+45062-093351FM-15+0265KMIC V0202605N002152200059N0160935N5-01725-02175102905ADDAA101000095GA1005+999999999GD10991+9999999GF100991999999999999999999MA1102645099465REMMET09201/06/17 19:53:01 METAR KMIC 070153Z 26004KT 10SM CLR M17/M22 A3031 RMK AO2 SLP290 T11721217
0207726575949602017010702537+45062-093351FM-15+0265KMIC V0202605N002152200059N0160935N5-01725-02175102965ADDAA101000095GA1005+999999999GD10991+9999999GF100991999999999999999999MA1102685099505MD1190179+9999REMMET09801/06/17 20:53:02 METAR KMIC 070253Z 26004KT 10SM CLR M17/M22 A3032 RMK AO2 SLP296 T11721217 51017
0192726575949602017010703537+45062-093351FM-15+0265KMIC V0202505N002652200059N0160935N5-01785-02225102995ADDAA101000095GA1005+999999999GD10991+9999999GF100991999999999999999999MA1102745099565REMMET09701/06/17 21:53:02 METAR KMIC 070353Z 25005KT 10SM CLR M18/M22 A3034 RMK AO2 SLP299 T11781222 TSNO
0192726575949602017010704537+45062-093351FM-15+0265KMIC V0202505N002152200059N0160935N5-01785-02225103035ADDAA101000095GA1005+999999999GD10991+9999999GF100991999999999999999999MA1102785099605REMMET09701/06/17 22:53:02 METAR KMIC 070453Z 25004KT 10SM CLR M18/M22 A3035 RMK AO2 SLP303 T11781222 TSNO
0286726575949602017010705537+45062-093351FM-15+0265KMIC V0202805N003152200059N0160935N5-01725-02175103055ADDAA101000095GA1005+999999999GD10991+9999999GF100991999999999999999999KA1060M-01671KA2060N-01831KA3240M-01501KA4240N-02391MA1102815099635MD1190129+9999REMMET12501/06/17 23:53:02 METAR KMIC 070553Z 28006KT 10SM CLR M17/M22 A3036 RMK AO2 SLP305 T11721217 11167 21183 411501239 51012 TSNO
0886726575949602017010705596+45062-093351SOD  +0265KMIC V020999999999999999999999999999+99999+99999999999ADDAA124000095KA1240M-01495KA2240N-02385MG1099314102304OE11240053629023515OE22240040228023475OE33240021599999995REMSOD73024 HR PRECIPITATION (IN):0.00  24 HR MAX TEMP (F):5  24 HR MAX TEMP TIME (LST):1532 24 HR MIN TEMP (F):-1124 HR MIN TEMP TIME (LST):0753 AVERAGE STATION PRESSURE:29.325 MINIMUM SEA LEVEL PRESSURE:30.21 TIME OF OCCURRENCE:0010 PEAK WIND SPEED (MPH):12  PEAK WIND DIR (DEG):290 PEAK WIND TIME (LST):2351  FASTEST 2MIN SPEED (MPH):9  FASTEST 2MIN DIR (DEG):280 FASTEST 2MIN TIME (LST):2347 AVERAGE WIND SPEED (MPH):4.8  24 HR AVG TEMP (F):-3 HEATING DEGREE DAYS:68  COOLING DEGREE DAYS:0   LATEST DAY MAX TEMP (0700-1900 LST):5   LATEST NIGHT MIN TEMP(1900-0800 LST):-11HOURLY INCREMENTAL PRECIPITATION VALUES (IN):.00 0.00 0.00 0.00 0.00 0.00 0.00 0.00 0.00 0.00 0.00 0.00 0.00 0.00 0.00 0.00 0.00 0.00 0.00 0.00 0.00 0.00 0.00 0.00EQDR01     N7GJS072R02     N7GKS075
0192726575949602017010706537+45062-093351FM-15+0265KMIC V0202905N002652200059N0160935N5-01785-02225103075ADDAA101000095GA1005+999999999GD10991+9999999GF100991999999999999999999MA1102815099635REMMET09701/07/17 00:53:02 METAR KMIC 070653Z 29005KT 10SM CLR M18/M22 A3036 RMK AO2 SLP307 T11781222 TSNO
0192726575949602017010707537+45062-093351FM-15+0265KMIC V0202905N002652200059N0160935N5-01895-02225103115ADDAA101000095GA1005+999999999GD10991+9999999GF100991999999999999999999MA1102885099695REMMET09701/07/17 01:53:02 METAR KMIC 070753Z 29005KT 10SM CLR M19/M22 A3038 RMK AO2 SLP311 T11891222 TSNO
0212726575949602017010708537+45062-093351FM-15+0265KMIC V0202805N003152200059N0160935N5-01835-02225103205ADDAA101000095GA1005+999999999GD10991+9999999GF100991999999999999999999MA1102955099765MD1390159+9999REMMET10301/07/17 02:53:02 METAR KMIC 070853Z 28006KT 10SM CLR M18/M22 A3040 RMK AO2 SLP320 T11831222 53015 TSNO
0192726575949602017010709537+45062-093351FM-15+0265KMIC V0202705N002152200059N0160935N5-01895-02225103235ADDAA101000095GA1005+999999999GD10991+9999999GF100991999999999999999999MA1102985099795REMMET09701/07/17 03:53:02 METAR KMIC 070953Z 27004KT 10SM CLR M19/M22 A3041 RMK AO2 SLP323 T11891222 TSNO
0192726575949602017010710537+45062-093351FM-15+0265KMIC V0202705N003152200059N0160935N5-01835-02225103235ADDAA101000095GA1005+999999999GD10991+9999999GF100991999999999999999999MA1102985099795REMMET09701/07/17 04:53:02 METAR KMIC 071053Z 27006KT 10SM CLR M18/M22 A3041 RMK AO2 SLP323 T11831222 TSNO
0250726575949602017010711537+45062-093351FM-15+0265KMIC V0202805N003152200059N0160935N5-01835-02225103275ADDAA101000095GA1005+999999999GD10991+9999999GF100991999999999999999999KA1060M-01721KA2060N-01891MA1103015099835MD1390069+9999REMMET11501/07/17 05:53:02 METAR KMIC 071153Z 28006KT 10SM CLR M18/M22 A3042 RMK AO2 SLP327 T11831222 11172 21189 53006 TSNO
0217726575949602017010712537+45062-093351FM-15+0265KMIC V0202905N00465014025MN0160935N5-01785-02175103395ADDAA101000095GA1075+014025999GD13991+0140259GE19MSL   +99999+99999GF199999999999014021999999MA1103155099965REMMET10001/07/17 06:53:02 METAR KMIC 071253Z 29009KT 10SM BKN046 M18/M22 A3046 RMK AO2 SLP339 T11781217 (FD)
0236726575949602017010713537+45062-093351FM-15+0265KMIC V0203005N004152200059N0160935N5-01835-02225103485ADDAA101000095GA1025+008845999GD11991+0088459GE19AGL   +99999+99999GF102995999999008841999999MA1103225100025REMMET10001/07/17 07:53:02 METAR KMIC 071353Z 30008KT 10SM FEW029 M18/M22 A3048 RMK AO2 SLP348 T11831222 (FD)EQDD01      0ADE726
0212726575949602017010714537+45062-093351FM-15+0265KMIC V0203105N004152200059N0160935N5-01785-02175103615ADDAA101000095GA1005+999999999GD10991+9999999GF100991999999999999999999MA1103355100165MD1390339+9999REMMET10301/07/17 08:53:02 METAR KMIC 071453Z 31008KT 10SM CLR M18/M22 A3052 RMK AO2 SLP361 T11781217 53033 (FD)
0192726575949602017010715537+45062-093351FM-15+0265KMIC V0203205N005752200059N0160935N5-01675-02175103745ADDAA101000095GA1005+999999999GD10991+9999999GF100991999999999999999999MA1103495100295REMMET09701/07/17 09:53:02 METAR KMIC 071553Z 32011KT 10SM CLR M17/M22 A3056 RMK AO2 SLP374 T11671217 (FD)
0192726575949602017010716537+45062-093351FM-15+0265KMIC V0203205N004152200059N0160935N5-01565-02115103805ADDAA101000095GA1005+999999999GD10991+9999999GF100991999999999999999999MA1103565100355REMMET09701/07/17 10:53:02 METAR KMIC 071653Z 32008KT 10SM CLR M16/M21 A3058 RMK AO2 SLP380 T11561211 (FD)
0250726575949602017010717537+45062-093351FM-15+0265KMIC V0203105N006252200059N0160935N5-01445-02115103815ADDAA101000095GA1005+999999999GD10991+9999999GF100991999999999999999999KA1060M-01441KA2060N-01831MA1103595100395MD1190209+9999REMMET11501/07/17 11:53:02 METAR KMIC 071753Z 31012KT 10SM CLR M14/M21 A3059 RMK AO2 SLP381 T11441211 11144 21183 51020 (FD)
0192726575949602017010718537+45062-093351FM-15+0265KMIC V0203105N004652200059N0160935N5-01395-02115103805ADDAA101000095GA1005+999999999GD10991+9999999GF100991999999999999999999MA1103565100355REMMET09701/07/17 12:53:02 METAR KMIC 071853Z 31009KT 10SM CLR M14/M21 A3058 RMK AO2 SLP380 T11391211 (FD)
0192726575949602017010719537+45062-093351FM-15+0265KMIC V0203005N005752200059N0160935N5-01335-02115103815ADDAA101000095GA1005+999999999GD10991+9999999GF100991999999999999999999MA1103595100395REMMET09701/07/17 13:53:02 METAR KMIC 071953Z 30011KT 10SM CLR M13/M21 A3059 RMK AO2 SLP381 T11331211 (FD)
0212726575949602017010720537+45062-093351FM-15+0265KMIC V0203105N005752200059N0160935N5-01335-02175103885ADDAA101000095GA1005+999999999GD10991+9999999GF100991999999999999999999MA1103665100455MD1390079+9999REMMET10301/07/17 14:53:02 METAR KMIC 072053Z 31011KT 10SM CLR M13/M22 A3061 RMK AO2 SLP388 T11331217 53007 (FD)
0192726575949602017010721537+45062-093351FM-15+0265KMIC V0203005N005752200059N0160935N5-01395-02175103975ADDAA101000095GA1005+999999999GD10991+9999999GF100991999999999999999999MA1103735100525REMMET09701/07/17 15:53:02 METAR KMIC 072153Z 30011KT 10SM CLR M14/M22 A3063 RMK AO2 SLP397 T11391217 TSNO
0192726575949602017010722537+45062-093351FM-15+0265KMIC V0203005N003152200059N0160935N5-01445-02225103995ADDAA101000095GA1005+999999999GD10991+9999999GF100991999999999999999999MA1103765100555REMMET09701/07/17 16:53:02 METAR KMIC 072253Z 30006KT 10SM CLR M14/M22 A3064 RMK AO2 SLP399 T11441222 (FD)
0250726575949602017010723537+45062-093351FM-15+0265KMIC V0202805N004152200059N0160935N5-01565-02175104025ADDAA101000095GA1005+999999999GD10991+9999999GF100991999999999999999999KA1060M-01331KA2060N-01561MA1103765100555MD1190139+9999REMMET11501/07/17 17:53:02 METAR KMIC 072353Z 28008KT 10SM CLR M16/M22 A3064 RMK AO2 SLP402 T11561217 11133 21156 51013 (FD)
0187726575949602017010800537+45062-093351FM-15+0265KMIC V0202805N003652200059N0160935N5-01615-02175104065ADDAA101000095GA1005+999999999GD10991+9999999GF100991999999999999999999MA1103835100625REMMET09201/07/17 18:53:01 METAR KMIC 080053Z 28007KT 10SM CLR M16/M22 A3066 RMK AO2 SLP406 T11611217
0187726575949602017010801537+45062-093351FM-15+0265KMIC V0202805N003152200059N0160935N5-01675-02175104105ADDAA101000095GA1005+999999999GD10991+9999999GF100991999999999999999999MA1103865100655REMMET09201/07/17 19:53:01 METAR KMIC 080153Z 28006KT 10SM CLR M17/M22 A3067 RMK AO2 SLP410 T11671217
0207726575949602017010802537+45062-093351FM-15+0265KMIC V0202805N002652200059N0160935N5-01725-02225104085ADDAA101000095GA1005+999999999GD10991+9999999GF100991999999999999999999MA1103835100625MD1090069+9999REMMET09801/07/17 20:53:02 METAR KMIC 080253Z 28005KT 10SM CLR M17/M22 A3066 RMK AO2 SLP408 T11721222 50006
0192726575949602017010803537+45062-093351FM-15+0265KMIC V0202805N002152200059N0160935N5-01785-02225104145ADDAA101000095GA1005+999999999GD10991+9999999GF100991999999999999999999MA1103895100685REMMET09701/07/17 21:53:02 METAR KMIC 080353Z 28004KT 10SM CLR M18/M22 A3068 RMK AO2 SLP414 T11781222 TSNO
0192726575949602017010804537+45062-093351FM-15+0265KMIC V0203005N001552200059N0160935N5-01895-02285104105ADDAA101000095GA1005+999999999GD10991+9999999GF100991999999999999999999MA1103865100655REMMET09701/07/17 22:53:02 METAR KMIC 080453Z 30003KT 10SM CLR M19/M23 A3067 RMK AO2 SLP410 T11891228 TSNO
0286726575949602017010805537+45062-093351FM-15+0265KMIC V0209999C000052200059N0160935N5-01895-02285104065ADDAA101000095GA1005+999999999GD10991+9999999GF100991999999999999999999KA1060M-01561KA2060N-01891KA3240M-01331KA4240N-01891MA1103795100595MD1890029+9999REMMET12501/07/17 23:53:02 METAR KMIC 080553Z 00000KT 10SM CLR M19/M23 A3065 RMK AO2 SLP406 T11891228 11156 21189 411331189 58002 TSNO
0886726575949602017010805596+45062-093351SOD  +0265KMIC V020999999999999999999999999999+99999+99999999999ADDAA124000095KA1240M-01325KA2240N-01885MG1100344103054OE11240093931014215OE22240071528015455OE33240036299999995REMSOD73024 HR PRECIPITATION (IN):0.00  24 HR MAX TEMP (F):8  24 HR MAX TEMP TIME (LST):1546 24 HR MIN TEMP (F):-2 24 HR MIN TEMP TIME (LST):2359 AVERAGE STATION PRESSURE:29.630 MINIMUM SEA LEVEL PRESSURE:30.43 TIME OF OCCURRENCE:0021 PEAK WIND SPEED (MPH):21  PEAK WIND DIR (DEG):310 PEAK WIND TIME (LST):1421  FASTEST 2MIN SPEED (MPH):16 FASTEST 2MIN DIR (DEG):280 FASTEST 2MIN TIME (LST):1545 AVERAGE WIND SPEED (MPH):8.1  24 HR AVG TEMP (F):3  HEATING DEGREE DAYS:62  COOLING DEGREE DAYS:0   LATEST DAY MAX TEMP (0700-1900 LST):8   LATEST NIGHT MIN TEMP(1900-0800 LST):-2 HOURLY INCREMENTAL PRECIPITATION VALUES (IN):.00 0.00 0.00 0.00 0.00 0.00 0.00 0.00 0.00 0.00 0.00 0.00 0.00 0.00 0.00 0.00 0.00 0.00 0.00 0.00 0.00 0.00 0.00 0.00EQDR01     N7GJS072R02     N7GKS075
0192726575949602017010806537+45062-093351FM-15+0265KMIC V0202605N001552200059N0160935N5-01945-02335104055ADDAA101000095GA1005+999999999GD10991+9999999GF100991999999999999999999MA1103795100595REMMET09701/08/17 00:53:02 METAR KMIC 080653Z 26003KT 10SM CLR M19/M23 A3065 RMK AO2 SLP405 T11941233 TSNO
0192726575949602017010807537+45062-093351FM-15+0265KMIC V0209999C000052200059N0160935N5-01945-02335104035ADDAA101000095GA1005+999999999GD10991+9999999GF100991999999999999999999MA1103795100595REMMET09701/08/17 01:53:02 METAR KMIC 080753Z 00000KT 10SM CLR M19/M23 A3065 RMK AO2 SLP403 T11941233 TSNO
0212726575949602017010808537+45062-093351FM-15+0265KMIC V0209999C000052200059N0160935N5-02065-02335104025ADDAA101000095GA1005+999999999GD10991+9999999GF100991999999999999999999MA1103765100555MD1890049+9999REMMET10301/08/17 02:53:02 METAR KMIC 080853Z 00000KT 10SM CLR M21/M23 A3064 RMK AO2 SLP402 T12061233 58004 TSNO
0192726575949602017010809537+45062-093351FM-15+0265KMIC V0202005N001552200059N0160935N5-02065-02395103965ADDAA101000095GA1005+999999999GD10991+9999999GF100991999999999999999999MA1103735100525REMMET09701/08/17 03:53:02 METAR KMIC 080953Z 20003KT 10SM CLR M21/M24 A3063 RMK AO2 SLP396 T12061239 TSNO
0207726575949602017010810537+45062-093351FM-15+0265KMIC V0209999C000052200059N0160935N5-02065-02335103915ADDAA101000095GA1005+999999999GD10991+9999999GF100991999999999999999999MA1103665100455WA1900099REMMET10301/08/17 04:53:02 METAR KMIC 081053Z 00000KT 10SM CLR M21/M23 A3061 RMK AO2 SLP391 I1000 T12061233 TSNO
0265726575949602017010811537+45062-093351FM-15+0265KMIC V0201305N001552200059N0160935N5-02065-02395103875ADDAA101000095GA1005+999999999GD10991+9999999GF100991999999999999999999KA1060M-01891KA2060N-02111MA1103625100425MD1690169+9999WA1900099REMMET12101/08/17 05:53:02 METAR KMIC 081153Z 13003KT 10SM CLR M21/M24 A3060 RMK AO2 SLP387 I6000 T12061239 11189 21211 56016 TSNO
0187726575949602017010812537+45062-093351FM-15+0265KMIC V0201805N001552200059N0160935N5-02065-02335103785ADDAA101000095GA1005+999999999GD10991+9999999GF100991999999999999999999MA1103525100325REMMET09201/08/17 06:53:02 METAR KMIC 081253Z 18003KT 10SM CLR M21/M23 A3057 RMK AO2 SLP378 T12061233
0187726575949602017010813537+45062-093351FM-15+0265KMIC V0201505N002152200059N0160935N5-01945-02285103645ADDAA101000095GA1005+999999999GD10991+9999999GF100991999999999999999999MA1103395100195REMMET09201/08/17 07:53:02 METAR KMIC 081353Z 15004KT 10SM CLR M19/M23 A3053 RMK AO2 SLP364 T11941228
0207726575949602017010814537+45062-093351FM-15+0265KMIC V0201605N004652200059N0160935N5-01785-02175103615ADDAA101000095GA1005+999999999GD10991+9999999GF100991999999999999999999MA1103355100165MD1690249+9999REMMET09801/08/17 08:53:02 METAR KMIC 081453Z 16009KT 10SM CLR M18/M22 A3052 RMK AO2 SLP361 T11781217 56024
0187726575949602017010815537+45062-093351FM-15+0265KMIC V0201605N004152200059N0160935N5-01675-02175103575ADDAA101000095GA1005+999999999GD10991+9999999GF100991999999999999999999MA1103325100125REMMET09201/08/17 09:53:02 METAR KMIC 081553Z 16008KT 10SM CLR M17/M22 A3051 RMK AO2 SLP357 T11671217
0187726575949602017010816537+45062-093351FM-15+0265KMIC V0201605N004652200059N0160935N5-01445-02065103545ADDAA101000095GA1005+999999999GD10991+9999999GF100991999999999999999999MA1103285100095REMMET09201/08/17 10:53:02 METAR KMIC 081653Z 16009KT 10SM CLR M14/M21 A3050 RMK AO2 SLP354 T11441206
0252726575949602017010817537+45062-093351FM-15+0265KMIC V0201505N005152200059N0160935N5-01285-02065103305ADDAA101000095GA1005+999999999GD10991+9999999GF100991999999999999999999KA1060M-01281KA2060N-02061MA1103085099895MD1890299+9999REMMET11701/08/17 11:53:02 METAR KMIC 081753Z 15010KT 10SM CLR M13/M21 A3044 RMK AO2 PRESFR SLP330 T11281206 11128 21206 58029
0205726575949602017010818537+45062-093351FM-15+0265KMIC V0201305N006252200059N0160935N5-01175-02065103055ADDAA101000095GA1005+999999999GD10991+9999999GF100991999999999999999999MA1102815099635OC100885REMMET10201/08/17 12:53:02 METAR KMIC 081853Z 13012G17KT 10SM CLR M12/M21 A3036 RMK AO2 PRESFR SLP305 T11171206
0187726575949602017010819537+45062-093351FM-15+0265KMIC V0201505N007252200059N0160935N5-01115-02065102875ADDAA101000095GA1005+999999999GD10991+9999999GF100991999999999999999999MA1102645099465REMMET09201/08/17 13:53:02 METAR KMIC 081953Z 15014KT 10SM CLR M11/M21 A3031 RMK AO2 SLP287 T11111206
0232726575949602017010820537+45062-093351FM-15+0265KMIC V0201505N00625014025MN0160935N5-01005-02005102755ADDAA101000095GA1085+014025999GD14991+0140259GE19MSL   +99999+99999GF199999999999014021999999MA1102515099335MD1690539+9999REMMET10101/08/17 14:53:02 METAR KMIC 082053Z 15012KT 10SM OVC046 M10/M20 A3027 RMK AO2 SLP275 T11001200 56053
0281726575949602017010821537+45062-093351FM-15+0265KMIC V0201505N00825015245MN0128755N5-01065-01835102605ADDAA101000025GA1025+010365999GA2085+015245999GD11991+0103659GD24991+0152459GE19MSL   +99999+99999GF199999999999010361999999MA1102375099205OC101135REMMET12501/08/17 15:53:02 METAR KMIC 082153Z 15016G22KT 8SM FEW034 OVC050 M11/M18 A3023 RMK AO2 SNB15E26B42E52 SLP260 P0000 T11061183
0228726575949602017010822537+45062-093351FM-15+0265KMIC V0201705N00675024385MN0160935N5-01065-01725102475ADDAA101000095GA1085+024385999GD14991+0243859GE19MSL   +99999+99999GF199999999999024381999999MA1102245099075OC101085REMMET10301/08/17 16:53:02 METAR KMIC 082253Z 17013G21KT 10SM OVC080 M11/M17 A3019 RMK AO2 SLP247 T11061172 (FD)
0292726575949602017010823537+45062-093351FM-15+0265KMIC V0201705N00515025915MN0160935N5-01005-01675102505ADDAA101000095AA206000021GA1085+025915999GD14991+0259159GE19MSL   +99999+99999GF199999999999025911999999KA1060M-01001KA2060N-01281MA1102275099105MD1590249+9999REMMET12401/08/17 17:53:02 METAR KMIC 082353Z 17010KT 10SM OVC085 M10/M17 A3020 RMK AO2 SLP250 60000 T11001167 11100 21128 55024 (FD)
0212726575949602017010900537+45062-093351FM-15+0265KMIC V0201605N00315013415MN0160935N5-01005-01615102435ADDAA101000095GA1085+013415999GD14991+0134159GE19MSL   +99999+99999GF199999999999013411999999MA1102205099035REMMET09501/08/17 18:53:01 METAR KMIC 090053Z 16006KT 10SM OVC044 M10/M16 A3018 RMK AO2 SLP243 T11001161
0219726575949602017010901537+45062-093351FM-15+0265KMIC V0201705N00465011895MN0160935N5-00945-01505102335ADDAA101000095GA1085+011895999GD14991+0118959GE19MSL   +99999+99999GF199999999999011891999999MA1102135098975REMMET10201/08/17 19:53:01 METAR KMIC 090153Z 17009KT 10SM OVC039 M09/M15 A3016 RMK AO2 PRESFR SLP233 T10941150
0232726575949602017010902537+45062-093351FM-15+0265KMIC V0201805N00215010365MN0160935N5-00895-01445102435ADDAA101000095GA1085+010365999GD14991+0103659GE19MSL   +99999+99999GF199999999999010361999999MA1102245099075MD1590059+9999REMMET10101/08/17 20:53:02 METAR KMIC 090253Z 18004KT 10SM OVC034 M09/M14 A3019 RMK AO2 SLP243 T10891144 55005
0250726575949602017010903537+45062-093351FM-15+0265KMIC V0201605N00365010365MN0160935N5-00895-01395102255ADDAA101000095GA1075+010365999GA2085+014945999GD13991+0103659GD24991+0149459GE19MSL   +99999+99999GF199999999999010361999999MA1102075098905REMMET10201/08/17 21:53:02 METAR KMIC 090353Z 16007KT 10SM BKN034 OVC049 M09/M14 A3014 RMK AO2 SLP225 T10891139
0231726575949602017010904537+45062-093351FM-15+0265KMIC V0201705N002152200059N0160935N5-01005-01445102245ADDAA101000095GA1045+012805999GD12991+0128059GE19AGL   +99999+99999GF104995999999012801999999MA1102035098875REMMET09501/08/17 22:53:02 METAR KMIC 090453Z 17004KT 10SM SCT042 M10/M14 A3013 RMK AO2 SLP224 T11001144EQDD01      0ADE726
0306726575949602017010905537+45062-093351FM-15+0265KMIC V0209999C00005013115MN0160935N5-01115-01445102255ADDAA101000095GA1085+013115999GD14991+0131159GE19MSL   +99999+99999GF199999999999013111999999KA1060M-00891KA2060N-01111KA3240M-00891KA4240N-02111MA1102075098905MD1590179+9999REMMET12301/08/17 23:53:02 METAR KMIC 090553Z 00000KT 10SM OVC043 M11/M14 A3014 RMK AO2 SLP225 T11111144 11089 21111 410891211 55017
0886726575949602017010905596+45062-093351SOD  +0265KMIC V020999999999999999999999999999+99999+99999999999ADDAA124000025KA1240M-00885KA2240N-02105MG1099564102204OE11240111815015085OE22240089416015155OE33240034099999995REMSOD73024 HR PRECIPITATION (IN):T     24 HR MAX TEMP (F):16 24 HR MAX TEMP TIME (LST):2227 24 HR MIN TEMP (F):-6 24 HR MIN TEMP TIME (LST):0430 AVERAGE STATION PRESSURE:29.400 MINIMUM SEA LEVEL PRESSURE:30.18 TIME OF OCCURRENCE:2324 PEAK WIND SPEED (MPH):25  PEAK WIND DIR (DEG):150 PEAK WIND TIME (LST):1508  FASTEST 2MIN SPEED (MPH):20 FASTEST 2MIN DIR (DEG):160 FASTEST 2MIN TIME (LST):1515 AVERAGE WIND SPEED (MPH):7.6  24 HR AVG TEMP (F):5  HEATING DEGREE DAYS:60  COOLING DEGREE DAYS:0   LATEST DAY MAX TEMP (0700-1900 LST):14  LATEST NIGHT MIN TEMP(1900-0800 LST):-6 HOURLY INCREMENTAL PRECIPITATION VALUES (IN):.00 0.00 0.00 0.00 0.00 0.00 0.00 0.00 0.00 0.00 0.00 0.00 0.00 0.00 0.00 T    0.00 0.00 0.00 0.00 0.00 0.00 0.00 0.00EQDR01     N7GJS072R02     N7GKS075
0212726575949602017010906537+45062-093351FM-15+0265KMIC V0209999C00005008845MN0160935N5-01175-01505102275ADDAA101000095GA1085+008845999GD14991+0088459GE19MSL   +99999+99999GF199999999999008841999999MA1102075098905REMMET09501/09/17 00:53:02 METAR KMIC 090653Z 00000KT 10SM OVC029 M12/M15 A3014 RMK AO2 SLP227 T11171150
0212726575949602017010907537+45062-093351FM-15+0265KMIC V0209999C00005007625MN0160935N5-01005-01335102255ADDAA101000095GA1085+007625999GD14991+0076259GE19MSL   +99999+99999GF199999999999007621999999MA1102075098905REMMET09501/09/17 01:53:02 METAR KMIC 090753Z 00000KT 10SM OVC025 M10/M13 A3014 RMK AO2 SLP225 T11001133
0232726575949602017010908537+45062-093351FM-15+0265KMIC V0209999C00005007625MN0160935N5-00895-01225102285ADDAA101000095GA1085+007625999GD14991+0076259GE19MSL   +99999+99999GF199999999999007621999999MA1102105098935MD1390049+9999REMMET10101/09/17 02:53:02 METAR KMIC 090853Z 00000KT 10SM OVC025 M09/M12 A3015 RMK AO2 SLP228 T10891122 53004
0212726575949602017010909537+45062-093351FM-15+0265KMIC V0202905N00265007325MN0160935N5-00785-01175102305ADDAA101000095GA1085+007325999GD14991+0073259GE19MSL   +99999+99999GF199999999999007321999999MA1102135098975REMMET09501/09/17 03:53:02 METAR KMIC 090953Z 29005KT 10SM OVC024 M08/M12 A3016 RMK AO2 SLP230 T10781117
0212726575949602017010910537+45062-093351FM-15+0265KMIC V0203105N00265007015MN0160935N5-00785-01175102245ADDAA101000095GA1085+007015999GD14991+0070159GE19MSL   +99999+99999GF199999999999007011999999MA1102075098905REMMET09501/09/17 04:53:02 METAR KMIC 091053Z 31005KT 10SM OVC023 M08/M12 A3014 RMK AO2 SLP224 T10781117
0270726575949602017010911537+45062-093351FM-15+0265KMIC V0202905N00155007015MN0160935N5-00785-01175102245ADDAA101000095GA1085+007015999GD14991+0070159GE19MSL   +99999+99999GF199999999999007011999999KA1060M-00781KA2060N-01221MA1102075098905MD1890049+9999REMMET11301/09/17 05:53:02 METAR KMIC 091153Z 29003KT 10SM OVC023 M08/M12 A3014 RMK AO2 SLP224 T10781117 11078 21122 58004
0217726575949602017010912537+45062-093351FM-15+0265KMIC V0209999C00005006715MN0160935N5-00785-01175102175ADDAA101000095GA1085+006715999GD14991+0067159GE19MSL   +99999+99999GF199999999999006711999999MA1102005098845REMMET10001/09/17 06:53:02 METAR KMIC 091253Z 00000KT 10SM OVC022 M08/M12 A3012 RMK AO2 SLP217 T10781117 (FD)
0218726575949602017010913177+45062-093351FM-16+0265KMIC V0209999C000052200059N0160935N5-00835-01225999999ADDGA1045+006715999GD12991+0067159GE19AGL   +99999+99999GF104995999999006711999999MA1102005098845REMMET09301/09/17 07:17:02 SPECI KMIC 091317Z 00000KT 10SM SCT022 M08/M12 A3012 RMK AO2 T10831122 (FD)EQDD01      0ADE726
0236726575949602017010913537+45062-093351FM-15+0265KMIC V0209999C000052200059N0160935N5-00835-01225102165ADDAA101000095GA1025+007015999GD11991+0070159GE19AGL   +99999+99999GF102995999999007011999999MA1102005098845REMMET10001/09/17 07:53:02 METAR KMIC 091353Z 00000KT 10SM FEW023 M08/M12 A3012 RMK AO2 SLP216 T10831122 (FD)EQDD01      0ADE726
0198726575949602017010914277+45062-093351FM-16+0265KMIC V0209999C00005007325MN0128755N5-00835-01175999999ADDGA1075+007325999GD13991+0073259GE19MSL   +99999+99999GF199999999999007321999999MA1102035098875REMMET09201/09/17 08:27:02 SPECI KMIC 091427Z 00000KT 8SM BKN024 M08/M12 A3013 RMK AO2 T10831117 (FD)
0236726575949602017010914537+45062-093351FM-15+0265KMIC V0209999C00005007325MN0144845N5-00785-01175102235ADDAA101000095GA1085+007325999GD14991+0073259GE19MSL   +99999+99999GF199999999999007321999999MA1102075098905MD1590009+9999REMMET10501/09/17 08:53:02 METAR KMIC 091453Z 00000KT 9SM OVC024 M08/M12 A3014 RMK AO2 SLP223 T10781117 55000 (FD)
0292726575949602017010915537+45062-093351FM-15+0265KMIC V0209999C00005007925MN0128755N5-00785-01175102325ADDAA101000095GA1025+003965999GA2045+005795999GA3075+007925999GD11991+0039659GD22991+0057959GD33991+0079259GE19MSL   +99999+99999GF199999999999003961999999MA1102175099005REMMET11301/09/17 09:53:02 METAR KMIC 091553Z 00000KT 8SM FEW013 SCT019 BKN026 M08/M12 A3017 RMK AO2 SLP232 T10781117 (FD)
0300726575949602017010916067+45062-093351FM-16+0265KMIC V0201205N00155004275MN0096565N5-00785-01115999999ADDAU100007015AW1051GA1075+004275999GA2075+005495999GA3085+033535999GD13991+0042759GD23991+0054959GD34991+0335359GE19MSL   +99999+99999GF199999999999004271999999MA1102135098975MW1055REMMET10901/09/17 10:06:02 SPECI KMIC 091606Z 12003KT 6SM HZ BKN014 BKN018 OVC110 M08/M11 A3016 RMK AO2 T10781111 (FD)
0236726575949602017010916347+45062-093351FM-16+0265KMIC V0200905N00265030485MN0128755N5-00725-01115999999ADDGA1045+004275999GA2085+030485999GD12991+0042759GD24991+0304859GE19MSL   +99999+99999GF199999999999004271999999MA1102075098905REMMET09901/09/17 10:34:02 SPECI KMIC 091634Z 09005KT 8SM SCT014 OVC100 M07/M11 A3014 RMK AO2 T10721111 (FD)
